:020000040802F0
:1000000028170020890202085F3A02088B2D020897
:100010005D3A0208F91D02088D7C0208000000000C
:100020000000000000000000000000004F42020835
:100030005529020800000000753B02088953020898
:10004000A3020208A3020208A3020208A3020208F4
:10005000A3020208A3020208A3020208A3020208E4
:10006000A3020208A3020208A3020208A3020208D4
:10007000A3020208A302020821260208A302020822
:10008000A3020208A3020208A3020208A3020208B4
:10009000A3020208A3020208A3020208A3020208A4
:1000A000A3020208A3020208A3020208A302020894
:1000B000A302020889550208A3020208A30202084B
:1000C000A3020208A3020208A3020208A302020874
:1000D000A30202080D750208297602084179020878
:1000E000A3020208A3020208A3020208A302020854
:1000F000A3020208A3020208A3020208A302020844
:10010000A3020208A3020208515E0208A302020829
:10011000A3020208A3020208495F0208A302020820
:1001200061260208A3020208A3020208A302020831
:10013000A3020208A3020208A3020208A302020803
:10014000A3020208A3020208A3020208053B020858
:10015000A3020208A3020208A3020208A3020208E3
:10016000A3020208A3020208A3020208A3020208D3
:10017000A3020208A3020208A3020208A3020208C3
:10018000A3020208A302020800F002F800F06CF8D3
:100190000AA090E8000C82448344AAF10107DA45E2
:1001A00001D100F061F8AFF2090EBAE80F0013F0C8
:1001B000010F18BFFB1A43F0010318471C8600000B
:1001C0003C8600000A444FF0000C10F8013B13F08D
:1001D000070408BF10F8014B1D1108BF10F8015BA0
:1001E000641E05D010F8016B641E01F8016BF9D193
:1001F00013F0080F1EBF10F8014BAD1C0C1B09D1EA
:100200006D1E58BF01F801CBFAD505E014F8016B5B
:1002100001F8016B6D1EF9D59142D6D370470000ED
:100220000023002400250026103A28BF78C1FBD8FF
:10023000520728BF30C148BF0B607047662908F0DD
:100240007581642900F07C80002070471FB508F09C
:1002500068F900F091FD04000020002107F096FFEE
:10026000E0601FBD10B510BD00F086FE1146FFF71F
:10027000EDFF07F0B3FE00F0A4FE03B4FFF7F2FFBA
:1002800003BC00F0E7FE000009488047094800472A
:10029000FEE7FEE7FEE7FEE7FEE7FEE7FEE7FEE736
:1002A000FEE7FEE704480549054A064B7047000093
:1002B0003154020889010208281100202817002063
:1002C00028130020281300200FB41CB5074B06AAE2
:1002D0007B4469460090059800F0F9FC00206946CF
:1002E00000F008FD1CBC5DF814FB0000210A0000B2
:1002F00070B5044685690068C10601D5302600E066
:100300002026C00707D070BDD4E9012130469047B0
:10031000206A401C20626D1EF6D570BD70B5044683
:1003200085690078C00707D170BDD4E9012120207C
:100330009047206A401C20626D1EF6D570BD0000FB
:100340002DE9F0410646002410687529314616A5AE
:1003500010D0AFF30080002802DA404213A507E076
:1003600031688A0701D512A502E0490704D511A515
:10037000012401E0AFF3008000210A2206F12407E6
:1003800009E0B0FBF2FCB0FBF2F302FB1C003030E2
:1003900078541846491C0028F3D123462A46304693
:1003A000BDE8F04100F025BA000000002D0000007B
:1003B0002B000000200000002DE9F05F8946044674
:1003C0004FF0000ADFF824B1FB44C0F820A020461B
:1003D000E168884700287DD0252806D0D4E901218E
:1003E0009047206A401C2062F1E700255F462046C6
:1003F000E16888472028064607DB312E05D2B81968
:1004000010F8200C08B10543F1E7A80701D525F045
:100410000405C4F81CA00027C4F818A02A2E09D08F
:10042000304607F0BDFC38B304EB8708303EC8F80F
:10043000186019E059F8041B204604EB870291610B
:10044000E1688847012F064618D1E069002820DAC4
:1004500025F020051DE0D8F8180000EB800006EB21
:1004600040003038C8F818002046E1688847064642
:1004700007F096FC0028EED1012F0AD02E2E08D1CD
:100480002046E16888477F1C0646022F45F020057C
:10049000C4DBA069002803DA404245F00105A061F1
:1004A000E80701D025F01005A6B1A6F141001928F2
:1004B00002D8203645F400654A463146204625607C
:1004C0004D46FFF7BBFE60B1012807D0ED1D25F0BA
:1004D000070000E007E000F1080978E705F10409EA
:1004E00075E730467AE7206ABDE8F09F6483000034
:1004F00010B5431E13F8014F002CFBD105E011F895
:10050000014B002C03F8014B03D0521EF7D20021FF
:10051000197010BD10B5431C02E010F8011B71B139
:100520008107FAD14FF0013202C88C1A8C4314EAC9
:10053000C211F9D0C01A0A0603D0C01E10BDC01ADD
:1005400010BD0A0401D0801E10BD0902FCD0401E5F
:1005500010BD40EA010370B59B072ED14FF0013664
:10056000042A2AD308C810C99D1B9D43121F15EAEF
:10057000C61517D0D8B2E1B2401A50EA056110D1C1
:1005800098B2A1B2401A50EA05410AD123F07F4047
:1005900024F07F41401A50EA052102D1180EA0EB49
:1005A000146070BDA342DBD018BA21BA884201D9C9
:1005B000012070BD4FF0FF3070BD0AB9002070BD42
:1005C00010F8013B11F8014B63B1A3420AD1521E4E
:1005D00008D010F8013B11F8014B1BB1A34201D127
:1005E000521EEDD1181B70BD032A40F2308010F06E
:1005F000030C00F0158011F8013BBCF1020F6244BE
:1006000098BF11F801CB00F8013B38BF11F8013B4E
:10061000A2F1040298BF00F801CB38BF00F8013BFB
:1006200011F0030300F06780083AC0F0088051F829
:10063000043B083A51F804CBA0E80810F5E7121D76
:100640005CBF51F8043B40F8043BAFF30080D20795
:1006500024BF11F8013B11F801CB48BF11F8012B61
:1006600024BF00F8013B00F801CB48BF00F8012B84
:100670007047431A28BF9A427FF6B6AF032A104448
:10068000114440F2268010F0030F1EBF11F8013D07
:10069000521E00F8013D10F0030F7FF4F6AF11F089
:1006A000030300F03F83083AC0F00B8051F8043D8B
:1006B000083A51F804CD40F8043D40F804CDFFF766
:1006C000F3BF121D5CBF51F8043D40F8043DAFF389
:1006D0000080D20724BF11F8013D11F801CD48BFB9
:1006E00011F8012C24BF00F8013D00F801CD48BFEE
:1006F00000F8012C704710B5203AC0F00B80B1E82B
:100700001850203AA0E81850B1E81850A0E8185046
:10071000BFF4F5AF5FEA027C24BFB1E81850A0E84F
:10072000185044BF18C918C0BDE810405FEA827C69
:1007300024BF51F8043B40F8043B08BF7047D20780
:1007400028BF31F8023B48BF11F8012B28BF20F821
:10075000023B48BF00F8012B70474FF0000204290C
:10076000C0F0128010F0030C00F01B80CCF1040CE0
:10077000BCF1020F18BF00F8012BA8BF20F8022B14
:10078000A1EB0C0100F00DB85FEAC17C24BF00F8BA
:10079000012B00F8012B48BF00F8012B70474FF0E8
:1007A000000200B5134694469646203922BFA0E8C1
:1007B0000C50A0E80C50B1F12001BFF4F7AF0907CD
:1007C00028BFA0E80C5048BF0CC05DF804EB8900BE
:1007D00028BF40F8042B08BF704748BF20F8022B01
:1007E00011F0804F18BF00F8012B70477047704719
:1007F00070472DE9F0470D4699469246044600F1B0
:1008000024080168880604D5E06921F01001216000
:1008100000E00120A84201DD471B00E00027A1699C
:100820007A1902EB0900081AA0612078C00602D4E8
:100830002046FFF75DFD002608E0D4E901211AF803
:1008400006009047206A401C761C20624E45F4DB6F
:100850002078C0060AD52046FFF74AFD06E0D4E915
:10086000012130209047206A401C2062381EA7F1E9
:100870000107F4DC07E0D4E9012118F805009047EE
:10088000206A401C2062281EA5F10105F3DC2046E9
:10089000FFF744FD2078000602D50220BDE8F0876E
:1008A0000120FBE770472DE9FF4F0C461E464FF035
:1008B000FF378BB0D2E90001DDF860800A908A46EC
:1008C000C1F30A5505B93D46002108464FF0000026
:1008D000BAF1000F00F4400005DA00EB80004FF49D
:1008E000400101EA50004FEA9059B9F1010F00DDD3
:1008F000B9460A9850EA4A000ED044F61050A5F2C4
:10090000FF3545432F14B8F1000F1ED07542291E44
:100910001EDDC9F100021CE0B8F1010F4FF000002C
:1009200001D0302103E0F24305E02154401CB042E5
:10093000FBDB30460022002121540B99C1F80880CE
:10094000C1E900200FB0BDE8F08FBD1B6D1CDEE7D4
:100950004A4600DA694206A800F098FA06AB93E826
:10096000070003AB83E8070050460A9900F079FBC3
:100970008DE80700A0F500501F3800900398002D67
:100980000ADD42F21F014A460844002303A90390EE
:10099000684600F0E2FD09E0A0F500504A461F3825
:1009A000002303A90390684600F0ECFD8DE80700E2
:1009B0000004000C03D04FF0FF30410800E0104667
:1009C000B8F1000F03D00022009215461EE0751EFC
:1009D00005D400F0D5F9303262556D1EF9D5B34615
:1009E0000122084302D000227F1C04E02078302836
:1009F00001D100227F1E002A099784D01DE0112D0D
:100A000007DA00F0BDF9303262556D1C50EA010280
:100A1000F5D1084302D00098C8B10EE00021681E4D
:100A200005E0235C625C63542254401E491C8142F1
:100A3000F7DBAB46A81B401E0990002004F80B0012
:100A40000B98099AC0F80880C0E9002B7AE71126B4
:100A50004FF0000857E72DE9F04F88460446D21DB5
:100A600022F0070191B0D1E90001CDE90A0107F0B8
:100A70007FF902460B98C00F01D02D2007E02068B7
:100A8000810701D52B2002E0202101EAC000032AC2
:100A9000099001D0072A05DB03464146204600F0B5
:100AA000B5F90BE12078800601D5E06900E0062069
:100AB000B8F1650F814606D0B8F1660F18D0B8F1CD
:100AC000670F70D131E00020B9F1110F009001DB08
:100AD000112301E009F101030AAA01A90CA8FFF7FB
:100AE000E2FEDDE90C70002609F10105834647E0CE
:100AF00001204B4600904FF000470AAA01A90CA81C
:100B0000FFF7D1FEDDE90DB00C995D46002610B966
:100B100009F101000D18B9EB050003D4C0F1FF364F
:100B200009F10105A5EB09002BE0B9F1010F01DA8C
:100B30004FF001090020B9F1110F0090484601DD86
:100B4000112300E003460AAA01A90CA8FFF7ABFE97
:100B5000DDE90C704D4600268346207800070AD454
:100B6000AB4500DA5D4601A8012D04DD411911F8FD
:100B7000011C302907D04F4502DA17F1040F04DABF
:100B8000012082460FE06D1EEEE7002F02DCED1B18
:100B90003E4403E0781CA84200DD7D1CB81B00F138
:100BA000010A4FF000472078000703D4AA4501DB73
:100BB0004FF0FF3A0021B7F1004F0DF143088DF8D7
:100BC000431024D002202B23002F01DA7F422D2353
:100BD0000A21021EA0F1010000DC5FB197FBF1FCCD
:100BE00097FBF1F201FB1C7C17460CF1300C08F866
:100BF00001CDEEE7A8F1010003702188090501D5B8
:100C0000452100E06521A0F1010800F8011C0998C8
:100C10000FA9A1EB0807FF1D00B10120411901EB4D
:100C2000EA70A1693844081A401EA0612078C00605
:100C300002D42046FFF75CFB099828B1D4E90121D2
:100C40009047206A401C20622078C00622D52046AA
:100C5000FFF74EFB1EE0002E04DBB34502DD01A8CA
:100C6000805D00E03020D4E901219047206A401CDB
:100C70002062761CAAF101005FEA000A0AD100F0A6
:100C80007BF8C0680168405CD4E901219047206A84
:100C9000401C2062281EA5F10105DCDC07E0D4E938
:100CA000012118F8010B9047206A401C2062381E71
:100CB000A7F10107F3DC2046FFF730FB032011B05A
:100CC00041E6000001694A1C02610878704700B5DE
:100CD0008FB0CDE901310021059105497944CDE975
:100CE000031011466846FFF767FB0FB000BD000018
:100CF000E5FFFFFF0A6802F8010B0A607047431A1C
:100D000028BF9A427FF6F7AC104410F0030F11444D
:100D10001EBF11F8013D521E00F8013D10F0030FF7
:100D20007FF4F6AF103AC0F00A8010B531E91850E0
:100D3000103A20E91850BFF4F9AFBDE8104053074E
:100D400024BF31E9081020E9081044BF51F8043DE0
:100D500040F8043D12F0030F08BF7047D20728BFC8
:100D600031F8023D48BF11F8012C28BF20F8023DA0
:100D700048BF00F8012C704700487047E810002079
:100D800030B5B0F10A024FEA900E71F100034EEA5D
:100D9000817EB0EB0E0061EB91014FEA101E4EEA2E
:100DA000017E10EB0E0041EB11114FEA102E4EEABE
:100DB000016E10EB0E0041EB11214FEA104E4EEA8E
:100DC000014E10EB0E0041EB1141401841F10001C2
:100DD0004FEAD00040EA41704FEAD10110EB8005A4
:100DE0004FEA810444EA907444EB01046D1944EB2A
:100DF0000404521BA3414FF0000348BF0A3200D540
:100E000030BD401C41F1000130BD00002DE9F04132
:100E10001F46044603260168072A01F4006004DB2C
:100E200008B116A505E016A503E008B115A500E078
:100E300015A521F010002060A069C01EA0610FB1AF
:100E4000401EA0612046FFF753FA4FB1D4E90121BB
:100E500038469047206A401C2062C01C206206E091
:100E6000206AFAE7D4E9012115F8010B9047761EB4
:100E7000F8D22046FFF752FABDE8F0814E414E000D
:100E80006E616E00494E4600696E66002DE9F047BE
:100E9000814616468AB0354878440DC88DE80D0065
:100EA00032487844801C03AC0DC884E80D0041F63C
:100EB0009B300844372190FBF1F290FBF1F5A5F14E
:100EC000800501FB12041B3C02D56442012000E0B6
:100ED0000020DFF898A080460027FA44AAF1BE0A55
:100EE0000EE0E0070AD03246684607EB47010123CF
:100EF0000AEB810100F046FB8DE8070064107F1CBF
:100F0000002CEED1194F7F44AE3F19E0E80715D011
:100F100007EB04100DF1180A90E80E008AE80E00A5
:100F2000C068F04201D1981908903246012306A901
:100F300003A800F027FB03AB83E807006D10641CD7
:100F4000002DE3D14FF0010332466946B8F1000F9E
:100F500003A802D000F001FB01E000F013FBC9E997
:100F60000001C9F808200AB0BDE8F0872479000024
:100F700000487047C81000207546FFF7F9FFAE46DD
:100F800005006946534620F00700854618B020B595
:100F9000FFF788F9BDE820404FF000064FF000074A
:100FA0004FF000084FF0000B21F00701AC46ACE811
:100FB000C009ACE8C009ACE8C009ACE8C0098D467E
:100FC000704710B50446AFF300802046BDE81040DE
:100FD000FFF753B94FF0013C50F8042B51F8043B94
:100FE0009A4221D1A2EB0C03934313EACC1317D1FD
:100FF00050F8042B51F8043B9A4215D1A2EB0C0394
:10100000934313EACC130BD150F8042B51F8043B53
:101010009A4209D1A2EB0C03934313EACC13DBD021
:101020004FF00000704700BFD01A01BAB1FA81F149
:1010300001F0180122FA01F0CB40C1F12001DBB22E
:10104000C0B2C01A2CFA01F3D11A914311EAC311AC
:10105000E6D1704701491820ABBEFEE7260002002A
:1010600070475FEA400C08BF91F0000F4FEA8C23F5
:101070004FEAC12243EA51514FEA1C5018BF00F514
:10108000F0404FEA300018BF41F000415FEA6C5C6D
:1010900000F02980BCF1FF3F08BF40F0804070475E
:1010A000130C06BF12044FF0100C4FF0000C130E7F
:1010B00004BF12020CF1080C130F04BF12010CF153
:1010C000040C930F04BF92000CF1020CD30F04BF69
:1010D00052000CF1010C11464FF00002A0F11F006C
:1010E000A0EB0C00704711F0004F08BF704731F0C3
:1010F00000413FF4D5AF0B0C06BF09044FF0100CB4
:101100004FF0000C0B0E04BF09020CF1080C0B0F82
:1011100004BF09010CF1040C8B0F04BF89000CF112
:10112000020CCB0F04BF49000CF1010CCCF12003E1
:10113000A0EB0C0022FA03F302FA0CF241EA0301DD
:1011400000F10100704720F07F4C80EA030023F09B
:101150007F47ACEB070303F57C5300F0004003F13D
:10116000FF032DE980494FEA154B09B44FEA1443B8
:1011700025EA0B4E24EA03480FF2042606EB132758
:1011800049083E785FEA320203FB0667C7F50007AD
:1011900007FB06F64FEA54374FEAD64606F1020639
:1011A00007FB066CCCF1005C4FEA1C472CEA074CAD
:1011B00007FB06F40CFB06F504EB15464FEA961602
:1011C00034BF00204FF000404FEAD13706FB07FC48
:1011D0004FEA1C4C0CFB0BF7D21B03FB0CF761EB2B
:1011E00007010CFB0EF7B0EB074072EB17420CFB4C
:1011F00008F734BFA2EB0742B2EB074261EB17419D
:101200004FEA0C444FEA910706FB07FC4FEA1C4CDF
:101210000CFB0BF7B0EBC74072EB573203FB0CF73C
:1012200034BFA2EBC742B2EBC74261EB57310CFBB4
:101230000EF7B0EBC70072EB57720CFB08F734BF28
:10124000A2EBC702B2EBC70261EB5771039F4FEAF3
:10125000816141EA921104EBCC044FEAD1374FEAA5
:10126000826206FB07FC42EA90124FEA80604FEA76
:101270001C4C0CFB0BF7D21B03FB0CF761EB0701BB
:101280000CFB0EF7B0EB074072EB17420CFB08F7B4
:1012900034BFA2EB0742B2EB074261EB17414FEAC2
:1012A0008C554FEA910704EB9C2406FB07FC4FEAA0
:1012B0001C4C0CFB0BF7B0EBC74072EB573203FB37
:1012C0000CF734BFA2EBC742B2EBC74261EB573118
:1012D0000CFB0EF7B0EBC70072EB57720CFB08F774
:1012E00034BFA2EBC702B2EBC70261EB577115EB3B
:1012F0004C254FEA816141EA92114FEA82624FEA3E
:10130000D13742EA901206FB07FC44F100044FEA91
:1013100080604FEA1C4C0CFB0BF7D21B03FB0CF755
:1013200061EB07010CFB0EF7B0EB074072EB1742C5
:101330000CFB08F734BFA2EB0742B2EB074261EBAC
:10134000174115EB1C154FEA813141EA92414FEAF2
:10135000823242EA90424FEA80304FEA0C7644F102
:10136000000448EA03434EEA0B484FF0000EB2EB8C
:10137000080C71EB030724BF624639464EEB0E0E94
:101380004FF0000B0018524149414BEB0B0BB2EBF5
:10139000080C71EB03077BF1000B24BF6246394652
:1013A0004EEB0E0E4FF0000B0018524149414BEB33
:1013B0000B0BB2EB080C71EB03077BF1000B24BFA6
:1013C000624639464EEB0E0E51EA020718BF46F050
:1013D000010616EB0E7655F1000254F1000103D51B
:1013E000BDE88901BDE80088BDE88901BDE8004885
:1013F000B619524141EB0101A3F10103704780800E
:101400007F7E7D7C7B7A797877767675747372715E
:1014100071706F6E6E6D6C6C6B6A6A696868676616
:1014200066656464636362616160605F5F5E5E5DA8
:101430005D5C5C5B5B5A5A5959585857575656551C
:1014400055555454535352525251515050504F4F7E
:101450004F4E4E4D4D4D4C4C4C4B4B4B4A4A4A49CE
:101460004949484848474747474646464545454411
:101470004444444343434342424242414141002B9E
:101480009C4630D477002BD01CB54FEA370703B405
:101490004FF010004FF01001BAF1000F06D0BCF170
:1014A000000FDCBF40F0080040F008014FF00000E2
:1014B0000FBCBDE810400BF1010BBBF1010F08BFE1
:1014C0005FEA170722BF12F1010211F101014FF08B
:1014D000004143F1000300F0004043EA0000704780
:1014E000F9D35708D0E746EA064613F1400F4FEA12
:1014F00016461FDD13F1200FDFBF16430A460021F9
:1015000020335B42BED0C3F1200746EA064602FA0A
:1015100007F74FEA164646EA0706C3F1200722FA04
:1015200003F201FA07F721FA03F14FF0000342EA50
:101530000702A7E746EA020646EA06464FEA1646CB
:1015400046EA0106BCBF46EA0646360C4FF00003E9
:101550004FF000024FF0000194E72DE9804C9A46CD
:10156000934670B491E8380007C831EA400C48BF90
:1015700034EA430C03D5FFF7E6FDFFF780FFF0BC2C
:10158000BDE8008C2DE9804C9A46934670B491E8F2
:10159000380007C810F0804F08BF13F0804F03D108
:1015A00000F005F8FFF76BFFF0BCBDE8008C20F001
:1015B0007F4780EA030023F07F4C07EB0C03A3F581
:1015C0007C5300F00040A3F1FE0392F0000F00F006
:1015D000B38095F0000F00F077802DE901494FEAC4
:1015E00011404FEA144621EA004800FB06FC24EAB9
:1015F000064708FB06F607FB08F800FB07F718EBA1
:1016000006484CEB164C4FEA124B18EB07484FEAD2
:1016100015464CEB174022EA0B4E0BFB06FC25EA65
:1016200006470EFB06F607FB0EFE0BFB07F71EEB4D
:10163000064E4CEB164C4FF000061EEB074E4CEBE3
:10164000174B18EB0B0840F1000018EB0E0B58EB92
:10165000000840F100008F1A4FF000013CBFC94361
:10166000661B14BFB5EB040C00213CBFC943F61B3D
:101670004FEA17444EEA8E0E27EA04454FEA1C470C
:1016800004FB07622CEA074C05FB07F70CFB05F689
:1016900004FB0CFC16EB074642EB174216EB0C461C
:1016A00042EB1C421BEB060658EB0202414146EAA4
:1016B0009E0601D5BDE80189B619524141EB0101F1
:1016C000A3F10103BDE801894FEA14454FEA114730
:1016D00024EA054621EA074C05FB07F406FB07F759
:1016E0000CFB06F105FB0CFC11EB074144EB174426
:1016F0004FEA124711EB0C4144EB1C4422EA074C21
:1017000005FB07F206FB07F70CFB06F605FB0CFCD6
:1017100016EB074642EB174216EB0C4642EB1C4514
:101720006A1854F1000148BF7047B619524141EBA5
:101730000101A3F10103704795F0000F37D04FEA84
:1017400011424FEA144721EA024624EA074C02FB01
:1017500007F106FB07F70CFB06F402FB0CFC14EB8D
:10176000074441EB17414FEA154714EB0C4441EB9A
:101770001C4125EA074C02FB07F506FB07F70CFBAB
:1017800006F602FB0CFC16EB074645EB174516EB7D
:101790000C4645EB1C42121951F1000148BF70473D
:1017A000B619524141EB0101A3F1010370474FEA21
:1017B00014454FEA114724EA054621EA074C05FB88
:1017C00007F106FB07F70CFB06F24FF0000605FBDE
:1017D0000CFC12EB074241EB174112EB0C4251EBB0
:1017E0001C4148BF7047921841EB0101A3F101036E
:1017F000704700001CB50121102002F0DFF9022023
:101800008DF8050001208DF8040000208DF80600F9
:10181000702000906946024801F060FA1CBD00008B
:101820000010024031B52A4D82B02021284601F037
:10183000A8FA1021284601F0A6FA00BF00BF00BF99
:1018400000BF2021284601F09EFA00BF1021284643
:1018500001F099FA00BF00BF2021284601F091FA5B
:1018600000218DF800104FF6FF7422E0BDF808004B
:101870004FF040010004284602D501F084FA01E04F
:1018800001F07FFA1021284601F07BFA00BF00BF6B
:101890001021284601F077FA00BF00BFBDF808000C
:1018A00004EA4000ADF808009DF80010491C8DF8CE
:1018B00000109DF800001028D8D32021284601F000
:1018C00062FA03B02846BDE83040102101F05BBA4F
:1018D0000010024008B54FF47A70ADF80000BDF872
:1018E0000000002803D0BDF80000401EF5E708BD49
:1018F0002DE9F041012188B0080302F083F90226A6
:101900008DF8056001270420DFF8AC808DF80470A5
:10191000002400908DF806406946404601F0DEF94B
:101920008DF804608DF8064003208DF80500234EE5
:10193000382500958DF807706946304601F0CEF9DC
:1019400005220321304601F005FA05220421304624
:1019500001F000FA05221146304601F0FBF904219E
:10196000404601F010FAFFF7B5FF0421404601F0B0
:1019700008FAADF808404FF48270ADF80A00F01490
:10198000ADF80C00ADF810408010ADF81450ADF873
:101990000E40ADF81200ADF816400720084CADF827
:1019A000180002A9204602F036FC0121204602F070
:1019B0001DFC08B0BDE8F081000C024000040240AC
:1019C000003001402DE9FF4700258DF80050424CC2
:1019D000424E434FDFF80C81DFF80C91DFF80CA189
:1019E00020E09DF80010012002F0CEFB9DF80010D1
:1019F00024F811002088308060883880A188A8F8F9
:101A00000010E088ADF808002089ADF80C0061896D
:101A1000A9F80010A189AAF800109DF80000401C48
:101A20008DF800009DF800000728DAD3BDF80C10EF
:101A30002F4C6078284ED83606EB4002401C607070
:101A40001180607864281DD165706421304600954E
:101A500000F0B0F9282009E09DF80400009936F85C
:101A60001000084400909DF80400401C8DF804000C
:101A70009DF804003228EFD300980A21B0FBF1F062
:101A80001C490880BDF8082021781348103000EB6D
:101A90004103491C21701A8021781E291AD1257012
:101AA00000958DF804500BE09DF8041030F81110EB
:101AB000009A114400919DF80410491C8DF80410FF
:101AC0009DF804101E29EFD300981E21B0FBF1F001
:101AD00009490880BDE8FF874807002088000020EA
:101AE0008A000020840000207E000020800000206A
:101AF000AA010020860000208200002011B50D4CB4
:101B000081B00221204602F07BFB0028F9D0BDF80D
:101B10000410204602F07DFB0121204602F070FBFC
:101B20000028F9D0204602F072FBADF80000BDF8A5
:101B300000001CBD00300140F0B501210D029BB03A
:101B4000284602F05FF80121880502F037F84020AE
:101B5000032619908DF8686000248DF86B4019A950
:101B60002B4801F0BBF82B480AA9CDE900402A48D0
:101B7000CDE902046420CDE90404A80006904000E9
:101B800007908000CDE908050001012581E83100BA
:101B9000224F0D94694638460E9400F07FFE0121D5
:101BA000384600F09BFD01221021384600F060FE0F
:101BB00000F026FD174F01214C3F384600F072F827
:101BC00015941694179415A8189400F055F80F94CE
:101BD0008DF840508DF84150129413948DF8506058
:101BE0000FA9384600F07EF800230122062138466E
:101BF00000F09EF80121384600F034F8384600F035
:101C0000D1F80121384600F057F81BB0F0BD0000B4
:101C1000000002404C2001405004002010640240AB
:101C20000CB5002000908DF804000C490BE09DF8E5
:101C3000040031F81000009A104400909DF8040050
:101C4000401C8DF804009DF804006428EFD3009830
:101C50003221B0FBF1F0024908800CBD5004002095
:101C60007C0000200029816802D041F0010101E0E0
:101C700021F0010181607047084B10B5D3F80423AF
:101C800007490A40D0E900142143D0E90240044347
:101C900021431143C3F8041310BD0000002001408C
:101CA000E030FCFF0029816802D041F4807101E03E
:101CB00021F48071816070470029816802D041F46D
:101CC000007101E021F400718160704710B50121BD
:101CD0000C02204601F0A2FF2046BDE81040002182
:101CE00001F09CBF30B542680F4B0C791A400B686D
:101CF00042EA04221343436082680C4B4D791A4038
:101D0000D1E9034323438C6844EA45042343134346
:101D10008360C26A097D22F47002491EC9B242EA98
:101D20000151C16230BD0000FFFEFFFCFDF7FFC0A6
:101D300070B5072609290AD9C568A1F10A0404EB80
:101D40004404A640B543A3401D43C56007E00569B0
:101D500001EB4104A640B543A3401D4305611F2389
:101D6000072A09D2446B521E02EB820293409C4325
:101D700091400C43446370BD0D2A09D2046BD21FFD
:101D800002EB820293409C4391400C43046370BD7C
:101D9000C46A0D3A02EB820293409C4391400C438B
:101DA000C46270BD816841F08041816070470088E5
:101DB00040BA70472DE9F043884606460025A1F158
:101DC000010915E00024A8EB05077F1E0DE006EBD6
:101DD000440136F814004988884205D9601C82B253
:101DE000A1B2304603F0C6FA641CA742EFDC6D1CBA
:101DF0004D45E7DBBDE8F083FEE7000070B5094D17
:101E0000FF22134605F5807605E010F8014B54409B
:101E10002A5D5A40335D491E89B2F6D243EA022058
:101E200070BD0000308502082DE9F05FFE4DDFF83F
:101E300000C414460023DCF80020F94EDFF8E493D8
:101E4000DFF8E883DFF8ECE3DFF8ECB3DFF8ECA3CE
:101E5000D5ED050A95ED060AD5ED091A95ED0A1A94
:101E6000012722F0080220B1012872D0022871D087
:101E7000B8E3F348E1B101291ED0022940D003297B
:101E800043D0042968D0EF48052975D006296ED0C3
:101E9000ED4807296CD04FF4FA5B082969D009296D
:101EA00068D00A2967D00B2974D00C2973D099E324
:101EB0003770C9F81C3026E0008801EE104AB8EEF1
:101EC000400AF8EE600AB8EE411AC5E9070431EE9F
:101ED000401A00EE100AB8EE400A70EE600A81EE79
:101EE000200A00EE900AB8EE601A00EE904AF8EE72
:101EF000600A88ED000A40EE410AC8ED040A6EE36C
:101F00003770C9F81C700088DFE2008801EE104AC3
:101F1000B8EE400AF8EE600AB8EE411AC5E90704C7
:101F200031EE401A00EE100AB8EE400A70EE600A78
:101F300081EE200A00EE900AB8EE601A00EE904A98
:101F4000F8EE600A88ED010A40EE410AC8ED050A84
:101F500045E3E0E047E2FFE7377040F6AC51AEF80A
:101F6000001041F28831ABF80010E2E104E013E028
:101F70005AE061E068E08CE06C61BEF80020AA6184
:101F80000088C5E9090442F21070AEF80000401064
:101F90005946DEE18CE099E0EC61BEF80010296260
:101FA000008802EE101AB8EE400AF8EE600AB8EEA9
:101FB000422AC5E90B0432EE402A00EE104AB8EE80
:101FC000400A70EE600A82EE200A00EE904AB8EEF7
:101FD000602A00EE901AF8EE600A88ED020A40EEE0
:101FE000420A00EE104AB8EE400AC8ED060AF8EEC2
:101FF000410AB8EE611A70EE600A00EE100AB8EEFF
:10200000400A30EE411A80EE810A00EE900AB8EEE6
:10201000601A00EE904AF8EE600A88ED030A40EE7E
:10202000410AC8ED070A75E1C9F81870C9F81C30F3
:10203000022100F0A6FE33E0C9F81870C9F81C3080
:10204000022100F09EFE3AE0EC61BAF80000B8EE22
:10205000400A01EE100AF8EE600A2862B8EE411A52
:1020600031EE401A00EE104AB8EE400A70EE600AF7
:1020700081EE200A00EE904AB8EE601A00EE900A57
:10208000F8EE600A88ED0A0A40EE410AC8ED120A2D
:1020900040E1C9F81870C9F81C70022100F073FE05
:1020A00037704FF47A70AAF8000001210220D3E0C3
:1020B000C9F81870C9F81C70022100F064FE6C6148
:1020C000BAF800105046A9615946D9E0EC61BAF857
:1020D0000000B8EE400A01EE100AF8EE600A28622D
:1020E000B8EE411A31EE401A00EE104AB8EE400A3E
:1020F00070EE600A81EE200A00EE904AB8EE601A97
:1021000000EE900AF8EE600A88ED0B0A40EE410AF4
:10211000C8ED130AFEE099B1012918D0022924D094
:102120004FF40060032969D0042973D0052972D0C7
:10213000062971D0454807296FD008296ED051E291
:10214000C9F8203041F28830AAF8000060E0C9F8F0
:1021500020306C61BAF800105046A9613C490988EA
:10216000C5E909144DF6C0218AE0EC61BAF8001007
:1021700037482962008802EE101AB8EE400AF8EEDD
:10218000600AB8EE422AC5E90B0432EE402A00EE9E
:10219000104AB8EE400A70EE600A82EE200A00EEA5
:1021A000904AB8EE602A00EE901AF8EE600A88EDC8
:1021B000080A40EE420A00EE104AB8EE400AC8EDA6
:1021C000100AF8EE410AB8EE611A70EE600A00EEED
:1021D000100AB8EE400A30EE411A80EE810A00EE95
:1021E000900AB8EE601A00EE904AF8EE600A88EDA8
:1021F0000C0A40EE410AC8ED140A8BE0C9F82070C1
:102200000146144800F0BDFD41F66411AAF8001023
:1022100037704AE723E035E082E08DE09BE0000084
:102220003200002018050020C40000208C0200208D
:102230003C0000208C0000208E0000209000002038
:10224000840000207E000020000402408000002066
:10225000820000200008024001F066FCC2E1C9F8DB
:1022600020700146E14800F08CFD6C61BAF8001066
:102270005046A961DE490988C5E9091447F24811A9
:102280000180AFE1EC61BAF80010D94829620088FA
:1022900002EE101AB8EE400AF8EE600AB8EE422AD2
:1022A000C5E90B0432EE402A00EE104AB8EE400AAF
:1022B00070EE600A82EE200A00EE904AB8EE602AC4
:1022C00000EE901AF8EE600A88ED090A40EE420A24
:1022D00000EE104AB8EE400AC8ED110AF8EE410AC5
:1022E000B8EE611A70EE600A00EE100AB8EE400A0D
:1022F00030EE411A80EE810A00EE900AB8EE601AC4
:1023000000EE904AF8EE600A88ED0D0A40EE410AB0
:10231000C8ED150ACCF80020337001F0F5FB61E13F
:1023200040F6AC50AEF800004FF47A61ABF8001004
:102330003770012100208FE76C61BBF800205946FF
:10234000AA610088C5E9090440F6AC50AEF8000067
:102350008000088046E1EC61BBF80010296200882B
:1023600002EE101AB8EE400AF8EE600AB8EE422A01
:10237000C5E90B0432EE402A00EE104AB8EE400ADE
:1023800070EE600A82EE200A00EE904AB8EE602AF3
:1023900000EE901AF8EE600A88ED0E0A40EE420A4E
:1023A00000EE104AB8EE400AC8ED160AF8EE410AEF
:1023B000B8EE611A70EE600A00EE100AB8EE400A3C
:1023C00030EE411A80EE810A00EE900AB8EE601AF3
:1023D00000EE904AF8EE600A88ED0F0A40EE410ADE
:1023E000C8ED170A96E78348C1B1012919D002291F
:1023F0007ED0032939D0DFF800B24FF6FF7A0429E6
:1024000057D0052964D0DFF8F4B1062951D0072947
:102410006FD008296CD009296CD0E3E0C9F82430CA
:10242000B8E0008801EE104AB8EE400AF8EE600A03
:10243000B8EE411AC5E9070431EE401A00EE100A61
:10244000B8EE400A70EE600A81EE200A00EE900AB3
:10245000B8EE601A00EE904AF8EE600A88ED180AAD
:1024600040EE410AC8ED1D0AB9E0008801EE104AAD
:10247000B8EE400AF8EE600AB8EE411AC5E9070462
:1024800031EE401A00EE100AB8EE400A70EE600A13
:1024900081EE200A00EE900AB8EE601A00EE904A33
:1024A000F8EE600A88ED190A40EE410AC8ED1E0AEE
:1024B00095E03770BBF800104FF47A725143BBF8C7
:1024C0000020AAEB0200B1FBF0F0C5E9050489E0A9
:1024D000BBF800104FF47A777943BBF8007001EE37
:1024E000104AAAEB0700B1FBF0F0C5E9070402E0CF
:1024F0004EE01FE050E0B8EE411AB8EE400AF8EEA8
:10250000600A31EE401A00EE100AB8EE400A70EE92
:10251000600A81EE200A00EE900AB8EE601A00EE22
:10252000904AF8EE600A88ED1B0A40EE410AC8EDB9
:10253000200A54E0BBF800104FF47A777943BBF8D7
:10254000007001EE104AAAEB0700B1FBF0F0B8EE04
:10255000411AB8EE400AF8EE600AC5E9070431EE08
:10256000401A00EE100AB8EE400A70EE600A81EEE2
:10257000200A00EE900AB8EE601A00EE904AF8EEDB
:10258000600A88ED1C0A40EE410AC8ED210A26E0E7
:10259000C9F824703770B6E4008801EE104AB8EE2E
:1025A000400AF8EE600AB8EE411AC5E9070431EEB8
:1025B000401A00EE100AB8EE400A70EE600A81EE92
:1025C000200A00EE900AB8EE601A00EE904AF8EE8B
:1025D000600A88ED1A0A40EE410AC8ED1F0ACCF8DD
:1025E00000203370BDE8F05F05F0BABB0008024080
:1025F0008200002086000020880000208A00002041
:1026000008B538208DF8000003208DF801008DF802
:10261000020001208DF80300684601F02DFA08BD84
:1026200070B50C4D0C4C2946204600F0F7F80028F8
:102630000ED02946204600F025F80021204600F063
:102640004DF8064801884906FCD501880906FCD5E5
:1026500070BD000000800018586002400048004033
:1026600010B50549054800F023F80548016841F018
:102670000201016010BD00002080001010640240C3
:1026800038000020074A904201D2074801E005487F
:102690001038064A8B0001EA020101D5C16070477B
:1026A0008160704710640240006002407D0F7D0F22
:1026B000074A904201D2074801E005481038064A0F
:1026C0008B0001EA020101D5C1607047816070474B
:1026D00010640240006002407D0F7D0F00290168F8
:1026E00002D041F0010101E021F0010101607047D9
:1026F0002DE9F043016821F0010101600021016032
:1027000041608160C1600161212141613C493C4AD5
:102710003D251039904202D18D60BDE8F083384AE2
:102720004FF474661832904201D18E60F5E7344A56
:102730004FF474173032904201D18F60EDE7304A88
:102740004FF0746C4832904202D1C1F808C0E4E7FF
:102750002B4B2C4A6033984201D1CA60DDE7284CEC
:10276000294B7834A04201D1CB60D6E7DFF89080C6
:10277000264C08F19008404501D1CC60CDE7DFF848
:1027800080804FF03D5908F1A808404502D1C1F8BA
:102790000C90C2E71E49DFF878800839404501D126
:1027A0000D60BAE71A4D1835A84201D10E60B4E7A2
:1027B000174D3035A84201D10F60AEE7144D4835B2
:1027C000A84202D1C1F800C0A7E7114D10496035F9
:1027D000091FA84201D10A609FE70D4A7832904252
:1027E00001D10B6099E70A4A9032904201D10C6006
:1027F00093E7074AA83290428FD1C1F800908CE746
:10280000106002403D000020400F002000003D20ED
:1028100010640240406880B27047000030B5104A32
:102820000024904201D20F4A01E00D4A103A0E4BAB
:10283000194205D01E2303EAD12503682B4002E08C
:10284000406900F08003880001D5506800E01068FE
:10285000064A1040084201D003B10124204630BD91
:1028600010640240006002403C0F3C0F7D0F7D0F62
:102870000B0607D5436912B143F0800301E023F052
:1028800080034361802908D0002A026801F01E01FC
:1028900001D00A4300E08A430260704730B5036804
:1028A000124ACC6813400A682243D1E905452C43FB
:1028B0002243CC6922430C6A22434C6A22438C6A2D
:1028C00022434C6B22438C6B22431A4302604269C1
:1028D00022F00703D1E90B2422431A4342610A691B
:1028E00042604A6882608968C16030BD3F801CF0E8
:1028F000416070471CB50121022001F05FF9022000
:102900008DF8050000208DF8040001208DF80700E7
:10291000800200906946024800F0E0F91CBD00000A
:10292000000402401CB50121022001F047F90220F9
:102930008DF8050001208DF8040000208DF80600B8
:102940004FF4806000906946014800F0C7F91CBD53
:1029500000040240704711B54FF47A7402E020463B
:1029600000F007F8BDF80010481EADF80000F6D2E0
:1029700018BD01B582B00020ADF80000042113E0BD
:10298000ADF8041000BF00BF00BF00BF00BFBDF81E
:102990000400401E0004000CADF80400F2D1BDF8A4
:1029A0000000401CADF80000BDF80000BDF8082094
:1029B0009042E5D30EBD000070B50024FFF79AFFEA
:1029C0004FF48065124E04E0641CE4B20320FFF76C
:1029D000D0FF2946304600F0CDF910B1C82CF3D312
:1029E0000FE0C82C0DD2002404E0641CE4B20320E4
:1029F000FFF7BFFF2946304600F0BCF918B1F02CB4
:102A000004D3012070BDF02CEFD3FAE7002070BD95
:102A10000004024070B500F09DF800F081F8FFF767
:102A2000CBFFCC2000F0A4F8BE2000F0A1F800F00D
:102A300067F8044600F064F8072805D9C043E1436D
:102A4000C0B2CCB2002500E0012504EB002000B2AA
:102A500005F0E1FB9FED061B53EC112B05F0F2FB9B
:102A600005F0AAFB00B2002D01D1404200B270BDBA
:102A7000000000000000E43F7CB502208DF8050056
:102A800001208DF804000020094D8DF806004FF458
:102A9000806469462846009400F020F921462846C3
:102AA00000F071F900F03CF8FFF786FF7CBD0000F4
:102AB0000004024070B5FFF735FF104D4FF48064FD
:102AC0002146284600F05DF90520FFF752FF214618
:102AD000284600F058F9FFF70DFF1E20FFF749FFC9
:102AE0002146284600F046F908B1012400E0002400
:102AF0007D20FFF73EFF204670BD0000000402402D
:102B000070B500250124FFF7D5FFC001641C40EA21
:102B10005500E4B2C5B2082CF5D9284670BD0000B6
:102B200070B5FFF7FFFE0A4D4FF48064214628463A
:102B300000F027F940F2E240FFF71BFF214628464C
:102B400000F021F9BDE870402620FFF712BF000019
:102B50000004024010B5FFF7E3FFFFF72DFFCC2084
:102B600000F006F8BDE81040442000F001B8000075
:102B70002DE9F0410546FFF7D5FE0124124EA702CC
:102B800015F0010F4FEA5505394630460AD000F0DE
:102B9000F8F80520FFF7EDFE3946304600F0F3F86F
:102BA000962009E000F0EDF89620FFF7E2FE3946A6
:102BB000304600F0E8F80520FFF7DBFE641CE4B2C5
:102BC000082CDDD9BDE8F081000402400649002050
:102BD0000860091D0860091D0860091D0860024998
:102BE0000248143108607047003C0140FFFF7F003D
:102BF0002DE9FC4101211F2000F0E0FF02248DF8A7
:102C000005400125A002304F8DF8045000260090A9
:102C10008DF806606946384600F060F88DF805408A
:102C2000A0038DF8046000908DF80750694638467F
:102C300000F054F88DF8054041F202008DF8045080
:102C400000908DF806606946204800F047F88DF83E
:102C5000054043F6C240DFF878808DF804500090BC
:102C60008DF806606946404600F038F88DF805405A
:102C70004FF44050174F8DF8045000908DF80660C7
:102C80006946384600F02AF88DF8054004208DF892
:102C9000045000908DF8066069460F4800F01EF859
:102CA00024032146384600F06EF84021404600F0EB
:102CB00068F84021404600F066F82146404600F0A2
:102CC00062F8BDE8FC810000000002400004024000
:102CD00000080240000C024000100240F0B5002243
:102CE00001274FF0030C0B6807FA02F52B40AB42AB
:102CF0002CD1066853000CFA03F4A64306600E7943
:102D0000D0F800E09E4046EA0E0606600E79012EDD
:102D100001D0022E12D18668A64386604E79D0F883
:102D200008E09E4046EA0E0686604668AE4346606E
:102D300045688E799640B6B235434560C568A5436F
:102D4000C560CC799C40C3681C43C460521C102AE7
:102D5000C9D3F0BD4B07DB0E9A40C90810B500EB94
:102D60008100016A0F249C40A1430162016A114362
:102D7000016210BD0246002012690A4200D0012003
:102D800070474183704701837047FEE713B582B0F7
:102D90004FF6FF71ADF800109DF80C1011B901212C
:102DA0008DF80C1000234AF201029DF80C104C1E05
:102DB0008DF80C4022D30178BDF800406140ADF899
:102DC00000108DF8043013E0BDF80010C907BDF8FD
:102DD00000104FEA510104D0ADF80010BDF800100A
:102DE0005140ADF800109DF80410491C8DF80410F6
:102DF0009DF804100829E7D3401CD6E7BDF8000071
:102E000004B010BD30380A2801D3002070470120DB
:102E1000704700002DE9F04137287DD14FF0006464
:102E200072B665685C4E0021304603F0A0F830466B
:102E300003F0B2F800220121304603F061F9E60008
:102E40000021304603F093F8304603F0A5F8002245
:102E50000121304603F054F9504E0021304603F072
:102E600086F8304603F098F800220121304603F03E
:102E700047F94B4E0021304603F079F8304603F015
:102E80008BF800220121304603F03AF9454E00212B
:102E9000304603F06CF8304603F07EF80022012142
:102EA000304603F02DF9404E0021304603F05FF824
:102EB000304603F071F800220121304603F020F97A
:102EC0003A4E304604F0F0FD40F2255700223946D4
:102ED000304604F065FE0021304604F072FD344EA9
:102EE000304604F0E1FD00223946304604F058FE39
:102EF0000021304604F065FD2E4E304604F0D4FD2E
:102F000000223946304604F04BFE0021304604F0E2
:102F100058FD00F0C7FE00E03BE0002000F096FF07
:102F2000FFF754FE4FF0E0200026066100F0B4FFEA
:102F30000021601301F026F8002001F069F872B654
:102F4000432000F08DFD2A2000F08AFD4D2000F086
:102F500087FD4C2000F084FDFEF7B8FE164F0021DF
:102F60003846FFF7BBFB002210213846FFF780FCF4
:102F700000211248FEF796FE72B6206880F3098899
:102F800086F31488206880F30888AC46BDE8F041D9
:102F90006047BDE8F08100000000014000040040EF
:102FA00000080040000C00400010004000100140EC
:102FB00000440040004800401064024000200140EE
:102FC0002DE9F14F634A2DED028B92F805C0634C59
:102FD0000026DFF8849121680123614D614F41F0A3
:102FE0004000BCF1050F25D2DFE80CF003192E7B61
:102FF0009800C9F818604FF480513846FFF7C1FEB9
:103000009DF8080038B19DF80800012812D1206809
:1030100040F0400089E0206820F0400090E09DF8FA
:10302000080058B19DF80800012803D15372107BA5
:10303000401C1073BDEC028BBDE8F88F032050726A
:10304000D07A401CD072F5E7917A491C91729DF8B4
:103050000810DFF814A19FED458ADFF81481B1B3A1
:103060009DF808100129E5D1C9F82030414991EDBA
:10307000000A414981ED000ADFED408A20EE280A6E
:10308000BDEEC00A10EE101A01F57A71A9604FF476
:103090007A71E960696C696139490E70394946464F
:1030A00081ED008A88ED008A8AF8003036490B707D
:1030B000206080213846FFF764FE686C00EE100A3D
:1030C000B8EE400AC0EE280AC6ED000AB2E7FFE7F4
:1030D00000F01AFD8AF8006088ED008A686C68616B
:1030E000A8E79DF80800294C78B19DF80800012850
:1030F000A0D1B5F86400A860B5F86600E8600421C6
:103100002046FFF740FE02211CE002213846FFF76F
:1031100038FEAE60EE600421204609E09DF80820EC
:1031200062B19DF80810012984D1206080213846C1
:10313000BDEC028BBDE8F84FFFF723BE21F0400045
:10314000802120603846BDEC028BBDE8F84FFFF7C8
:103150001ABE0000C400002018050020380000201E
:10316000140300200008024024000020000000009A
:103170002800002054000020D801002000007A44DC
:10318000B00100202C00002031000020001002407F
:103190002DE9F0473E4C206ADFF8F8A001284FF4F3
:1031A0000061504616D0FFF7EEFDE069DFF8E890C9
:1031B00000284FF0020148460FD0FFF7E4FDE06918
:1031C000364D374E01274FF0000848B1E06901281D
:1031D00013D01FE0FFF7D5FDE7E7FFF7D2FDEEE7DD
:1031E000E86A42F6E061884214D9307890B9E76124
:1031F00002214846FFF7C7FD0CE0E86A42F2107171
:10320000884207D2307828B9C4F81C800221484689
:10321000FFF7B7FD606A4FF40051002850460BD00D
:10322000FFF7AFFD1F48017849B10178012917D098
:103230000078022817D017E0FFF7A5FDF2E7606AD3
:1032400018B1606A012806D00EE0A86BD2280BD90D
:10325000307840B108E0A86BBE2805D2307818B9A4
:10326000C4F8248000E06762A0694FF4805138B14F
:10327000A069012809D15046BDE8F047FFF783BD9A
:103280005046BDE8F047FFF77CBDBDE8F087000081
:10329000180500200008024000040240140300202A
:1032A00032000020CB0000202DE9F14F414A2DEDE6
:1032B000028B5179404D4148E9B3012601296DD077
:1032C00002294AD19DF80810DFF8F4909FED3D8A5D
:1032D000DFF8F4803D4C002771B39DF808100129F8
:1032E0003BD13B498F6181148246FFF74AFD606CF8
:1032F00060613848DFED398A90ED000A364880ED8C
:10330000000A20EE280ABDEEC00A10EE100A00F5F1
:103310007A70A0604FF47A70E060314807703148ED
:10332000474680ED008A88ED008A89F800602E48C3
:103330000670286801E014E032E040F040002860A8
:1033400080215046FFF71DFD606C00EE100AB8EEBC
:10335000400AC0EE280AC7ED000ABDEC028BBDE8AA
:10336000F88F9DF80820144909686AB19DF8082073
:10337000012AF2D141F0400129608021BDEC028B8D
:10338000BDE8F84FFFF7FDBC21F040012960802126
:10339000BDEC028BBDE8F84FFFF7F5BC1672DCE719
:1033A00000F0B2FB89F8007088ED008A606C606103
:1033B000D3E70000C40000203800002000080240CD
:1033C000240000200000000028000020140300203A
:1033D0001805002054000020D801002000007A4485
:1033E000B00100202C0000203100002070B5174AE9
:1033F0005379002116480124164D052B11D2DFE820
:1034000003F00322131B22008269AA61C26D42618C
:10341000B0F860200261406944F62062904201D910
:103420002C6270BD296270BDA9612C624FF47A7163
:10343000C160416C416170BDA9614FF48051064883
:10344000FFF79FFCECE7147270BD0000C400002081
:103450001403002018050020000802402DE9F04F59
:103460002D4E91B04FF0000A86F8A1A096F89E006C
:103470004FF00309082809D1B01CFEF798FC074655
:10348000301DFEF794FC0546202804D986F8A1904B
:1034900011B0BDE8F08F00244FF0020BE84609E0C0
:1034A00008EB4401384600F0CFF9C8B17F1C641C1A
:1034B000BFB2A4B2AC42F3D396F8A1000028E7D182
:1034C000154832781E3001210AF8002072780A541B
:1034D0006A000BF8002086F8A2900021434618E00D
:1034E00086F8A1B0D4E796F8A24013F81120225430
:1034F00096F8A22003EB4104521CD2B286F8A22017
:103500006478145496F8A220521C491C86F8A22014
:1035100089B2A942E7D3BBE7AC03002010B5124C37
:10352000002084F8A10094F89E00082801D0032010
:103530000DE0A01CFEF73BFC0246201DFEF737FC09
:103540000146104600F048FA012803D0022084F812
:10355000A10003E094F8A100002804D0BDE81040C9
:10356000C0B200F0EDB910BDAC03002010B5134C93
:10357000002084F8A10094F89E00082801D00320C0
:103580000DE0A01CFEF713FC0246201DFEF70FFC09
:103590000146104600F0C8F8012803D0022084F844
:1035A000A10002E094F8A10020B1BDE81040C0B233
:1035B00000F0C6B9BDE8104000F0D6B9AC03002059
:1035C00010B5134C002084F8A10094F89E00082840
:1035D00001D003200DE0A01CFEF7E9FB0246201DF0
:1035E000FEF7E5FB0146104600F0FAF8012803D08B
:1035F000022084F8A10002E094F8A10020B1BDE807
:103600001040C0B200F09CB9BDE8104000F0ACB969
:10361000AC03002010B5134C002084F8A10094F8EE
:103620009E00082801D003200DE0A01CFEF7BFFB80
:103630000246201DFEF7BBFB0146104600F014F8C1
:10364000012803D0022084F8A10002E094F8A10030
:1036500020B1BDE81040C0B200F072B9BDE8104022
:1036600000F082B9AC0300202DE9F041122843D2CA
:10367000DFE800F0093F3F3F3F3F3F3F3F3F3F3FD5
:103680003F3F3F3F3F3F002501241C4E1C4FDFF8CA
:103690007480012902D004291DD02AE01A4905208E
:1036A00008701A48B0F864108160B0F86610C16004
:1036B000016F416134703C70124888F80240C01EAE
:1036C000857044701248047012480470124941F227
:1036D000883008800DE000F017FA35703C70104813
:1036E0009FED0E0A88F8025080ED000A0D4880ED2B
:1036F000000A0120BDE8F0810020FBE7CA0000209D
:10370000CD0000206F000020C9000020140300201D
:10371000B3010020B4010020B60100200000000029
:10372000640000206800002070B5122823D2DFE872
:1037300000F00920202020202020202020202020F0
:103740002020202000240D480D4D012902D00429FD
:103750000AD00EE004700078FFF748FE0120FFF762
:10376000A3FD0120287004E004700020FFF79CFDF9
:103770002C70012070BD002070BD0000C900002029
:103780006F00002010B5134C134A94F89E0050604F
:10379000082801D109215160936811688B4214D027
:1037A00091600E4A117821B1491E11F0FF0111708C
:1037B0000BD1002809D0042804D3A078A52805D06F
:1037C00000F0C2FC002084F89E0010BD02F096FFBD
:1037D000F8E70000AC030020B80000206C000020D7
:1037E00070B5122825D2DFE800F009222222222219
:1037F00022222222222222222222222201240E48B6
:103800000E4A0F4D012902D0042909D00FE004709F
:103810000C48B0F854108160B0F85610C16001E057
:103820000470002414700120FFF73EFD6C7001202D
:1038300070BD002070BD0000C9000020CA0000203B
:103840006F0000201403002070B5324A0D462DEDA4
:10385000028B13283049314C9FED318A92ED000ADA
:1038600056D2DFE800F00A0E13151D1F36383A3C19
:103870003A3636363E4447494C0081ED020AA06B89
:1038800002E081ED030AE06A80B23AE0254817E0E1
:103890002548DFED260A90ED000A20EE200A13E00D
:1038A00023480DE000F030F9002060610A20A4F800
:1038B00048002049022008700120FFF7F5FC1E484F
:1038C00090ED000A20EE080ABDEEC00A10EE100AC4
:1038D000DAE7002015E0E06BD6E7082011E0206C65
:1038E000D2E71648007840F3C010401C09E0B4F855
:1038F000600006E0E06DC7E7B4F8540001E0B4F8FA
:103900005600010A297068700120BDEC028B70BD61
:103910000020FAE7540000206C000020140300206F
:1039200000007A445C000020580000200000C842DB
:1039300060000020C900002028000020480000206E
:10394000084908B50A788DF80020497841F08001CF
:103950008DF801108DF802000321684600F016F87A
:1039600008BD0000AC0300201CB5074900206A46D2
:103970000B5C1354401CC0B20628F9D30621104634
:1039800000F004F81CBD0000AC030020F0B50C46AC
:103990000A46A1B0054601466846FCF725FE2146C9
:1039A0002846FEF72BFA010A0DF80410641CE1B258
:1039B0006E460DF80100491CCDB20024054F05E00C
:1039C000315D384604F063F9641CE4B2AC42F7D3CD
:1039D00021B0F0BD0010014010B51E4A01EB81037B
:1039E0004FF6FF7404EA4303122831D2DFE800F0F7
:1039F000090F1214171A1D2025282A2C2E2E2E2EC0
:103A00002E2E154809B1012920D181611EE0A2F8AE
:103A100060101BE0D16519E0A2F8543016E0A2F85E
:103A2000561013E0A2F8643010E0A2F866100DE022
:103A300001EB81004000906608E0A2F86C1005E000
:103A4000116703E0516701E082F87810012010BD92
:103A5000002010BD1403002018050020FEE7704769
:103A600000F01F02012191404009800000F1E02098
:103A7000C0F880117047000030B50F23C27801787C
:103A80000125FAB1144A126801F1E02102F4E06262
:103A9000C2F5E062C2F30722C2F10404D3404278C7
:103AA000A24084781C401443220181F8002400784D
:103AB00000F01F018D404009800000F1E020C0F8B7
:103AC000005130BD01F01F0085404809800000F121
:103AD000E020C0F8805130BD0CED00E00249084301
:103AE00002490860704700000000FA050CED00E094
:103AF000024A1140014302480160704780FFFF1FE6
:103B000008ED00E07047000010B5064C0020207062
:103B10006070217800F008F86178BDE8104002205C
:103B200000F002B83000002003B49DF80000002827
:103B300019D0022817D19DF804300C4A0C4811689E
:103B400053B19DF80430012B0DD141F040011160BB
:103B5000802102B0FFF715B921F0400111608021EA
:103B600002B0FFF710B902B0704700003800002023
:103B7000000802407047000031B50F4C01200621BB
:103B8000207061700021A170E0709DF8000021712B
:103B90009DF80000607106212046FFF7F7F8A0713C
:103BA00006212046FFF7F2F8000AE071BDE8384030
:103BB000082003F0D1BD000048060020044A002977
:103BC000116801D0014300E081431160704700009B
:103BD00030380240044A0029116801D0014300E056
:103BE000814311607047000040380240044A0029B8
:103BF000116801D0014300E081431160704700006B
:103C000020380240044A0029116801D0014300E035
:103C1000814311607047000044380240044A002983
:103C2000116801D0014300E081431160704700003A
:103C30002438024008B500F035F8012000F0D0F833
:103C400000F014F9164908700878012827D10020DF
:103C500000F0E2F8022000F0FFF8002000F0B6F8D3
:103C60004FF4A05000F0C4F84FF4805000F0CAF8B0
:103C70000420014600900223A822000500F0D2F89B
:103C8000012000F0C9F8392000F07EF80028FAD0B1
:103C9000022000F0E1F800F091F80828FBD108BDFF
:103CA000A90100201048016841F0010101600E4A9D
:103CB00000210832116002680C4B1A400260031D9B
:103CC0000B4A1A60084B0B4A84331A60084A103AB0
:103CD0001B1D1A60026822F48022026002480C3028
:103CE0000160181D0160704700380240FFFFF6EACE
:103CF000103000240030002070B5204B1968204C93
:103D000011F00C0104D06610042903D0082903D057
:103D100004601BE0066019E0184A121F1168C1F325
:103D20008055116801F03F0115B1B6FBF1F101E0DA
:103D3000B4FBF1F114681268C4F388146143C2F350
:103D40000142521C5200B1FBF2F1016019680F22CE
:103D500002EA11110B4A545C0168E14041601C68A1
:103D6000072505EA9424145D21FA04F484601B6895
:103D700005EA5333D25CD140C16070BD08380240BF
:103D80000024F400140000200246002051090129FB
:103D90000BD002290CD00849096802F01F02012348
:103DA00093400B4200D00120704703497439F3E778
:103DB0000149091FF0E7000074380240024800681A
:103DC00000F00C007047000008380240034A1168F8
:103DD00021F0F001014311607047000008380240F3
:103DE000024900220A700870704700000238024041
:103DF000034A116821F4E05101431160704700004B
:103E000008380240034A116821F4604141EAC000C9
:103E1000106070470838024001490866704700008A
:103E20000000474241EA82115A0810B5054B029C36
:103E300003EB02421143014341EA04600249086076
:103E400010BD00000000FFFF043802400149086077
:103E5000704700003C0E4742034A116821F00301FD
:103E600001431160704700000838024018B5002077
:103E70004FF4A04400903120FFF786FF0099491CC1
:103E80000091A14201D00028F5D03120FFF77CFF3E
:103E9000002800D0012018BD78B50024284ECA2083
:103EA0000094254630605320306000F04DF8E0B3B8
:103EB000234824380460224942F201102039086066
:103EC0000B1D186800F0070018608D131A1D10688C
:103ED000009900F00400491C0091A94201D000287B
:103EE000F5D01068400729D518681C6014494FF6B2
:103EF000FF7010390860091F1248086010480C381C
:103F00000460001D0460001D04600D48083004605A
:103F10000B48183004600A4820300460001D04601B
:103F2000146007481C30046000E003E000F04AF829
:103F300020B10125FF203060284678BD0025F9E733
:103F400024280040FF007F0008B50D4900200090A4
:103F50000868400612D44FF0FF3008608B130868E1
:103F6000009A00F04000521C00929A4201D00028B2
:103F7000F5D00868400601D4002008BD012008BD26
:103F80000C28004030B50E4DCA222A6053222A6008
:103F90000B4C0B4B1C3C1C33002920F00402216805
:103FA00000F0040004D0114321601968014303E0CC
:103FB00091432160196881431960FF20286030BD5A
:103FC0002428004018B50020104B0090CA2018602B
:103FD000532018600D491839086820F0A0000860C7
:103FE0004FF400340868009A00F02000521C009240
:103FF000A24201D00028F5D00868800601D5012032
:1040000000E00020FF21196018BD000024280040B6
:1040100018B50021134B0091CA2119605321196072
:1040200010491C390028086803D040F480600860FB
:1040300014E020F4806008600A4918398C1308687D
:10404000009A00F00400521C0092A24201D0002805
:10405000F5D00868400701D4002000E00120FF21CE
:10406000196018BD2428004017B581B0044603F03C
:1040700063FFA02003F026FF03F08EFF78B9BDF8A0
:104080000800C0B203F01EFF03F086FF38B903F04A
:1040900053FFA12003F016FF03F07EFFC0B103F031
:1040A00067FF002004B010BD03F0DCFEBDF8001077
:1040B0006054BDF80010BDF80C00401E814202D0D3
:1040C00003F076FE01E003F0B5FEBDF80000401CF1
:1040D000ADF80000BDF80000BDF80C108842E3D335
:1040E00003F046FF0120DDE710B50E4C0120102142
:1040F0002070032060700020A070E1702071022009
:10410000607106212046FEF741FEA071062120467F
:10411000FEF73CFE000AE071BDE81040082003F005
:104120001BBB000048060020012288210148FFF740
:104130009BBF000050000020882200210148FFF7AB
:1041400093BF00008C0200200D49012008700D482B
:10415000407850280ED005DC032809D006280DD160
:10416000FFF7DCB9512807D0522807D1FFF752BA20
:10417000FFF774B9FFF7FAB9FFF722BA70470000EA
:10418000F6010020AC03002013B582B00020ADF88A
:104190000000BDF80800BDF80C10400340EAC11053
:1041A00041F659010843ADF80000BDF800004FF694
:1041B000FF7101EA8000ADF800000B4C042120469D
:1041C000FEF7DFFDBDF80000FDF798FCADF800003C
:1041D000FDF780FB04212046FEF7D5FDFDF77AFBB5
:1041E000BDF8000004B010BD000C02400029018899
:1041F00002D041F0400101E021F040010180704710
:104200000246002012890A4200D0012070478089AE
:1042100070478181704730B502884C8802F4415361
:104220000A88CD8822438C882C4322430C89224360
:104230004C8922438C892243CC8922431A43028031
:10424000828B22F400628283098A018230BD70472A
:10425000F0B434490122364E0A700A228A70324D77
:104260009FED320AD6ED000A95ED001A324A60EE53
:10427000800A21EE000A12882E4CFCEEE00ABCEE09
:10428000C00AC2F30723D2B228B12C4D012805D0B1
:10429000022808D01CE05020487034E051204870BB
:1042A0001BE0887107E05220487025480678A6B1C7
:1042B0000078012827D0206B000EC871206B000CFD
:1042C0000872206B000A4872206B8872CB720A73E6
:1042D000F0BC0D211348FFF759BBA86A00EB800022
:1042E000C0F3D710C870A86A00EB800040000871C6
:1042F000286B00EB8000C0F3D7104871286B00EBEF
:1043000080004000CDE710EE100A000AC87010EEE1
:10431000100A087110EE900A000A487110EE900A17
:10432000BFE70000B81000205400002000007A44CD
:104330005C000020B00100203400002014030020A5
:104340006E0000202DE9F04F2DED028BB3B0054635
:1043500000200C463290C8216846FCF720FA2078ED
:104360003C2808D1601910F8021C0D2903D110F85F
:10437000010C0A2801D0022266E13C218DF80010D0
:10438000FEA10DF10100329AFBF79EFF0122FCA174
:104390006846FCF7ADF86846FCF7BCF81FFA80FAEF
:1043A0006846FCF7B7F8024669462046FCF7D1F8A4
:1043B0000028E0D1DFF8CCB3804604EB0A0908EB13
:1043C000C80101EB0B000646FCF7A4F8C5B2314664
:1043D00048462A46FCF7BDF838B108F1010000F064
:1043E000FF08B8F1130FEAD3C5E73E2020700AEBAF
:1043F0000500DFF890B385B2E349DFF890934046BB
:104400004FF00A0AABF1380B6FF02F06B8F1040F2A
:104410007CD00DDC50B3012879D0022878D0B8F1D7
:10442000030FA8D1605D3F2873D00B2D72D032E10D
:104430000C2870D00D286FD00E286ED0B8F1120F56
:1044400099D1605D3F2869D0012100200746625D57
:1044500007EB870306EB43036D1C401CD718C0B263
:10446000ADB28842F3D3012F7ED8F2E3605D3F28DE
:1044700081D1D9F82C204E466019C5A1FBF724FF45
:104480006D1DA8B22C252554401C726B87B2E01913
:10449000C1A1FBF719FFBF1DB8B22554401CB26A79
:1044A00087B2E019BAA1FBF70FFF7F1DB8B2255400
:1044B000401C326B87B2E019B5A1FBF705FF7F1DE9
:1044C000B8B22554401CB26B87B2E019B0A1FBF71B
:1044D000FBFE7F1DB8B22554401CF26B87B2E01979
:1044E000AFA1FBF7F1FE3F1DB8B22554401C326C62
:1044F00087B2E019AAA1FBF7E7FE3F1DB8B2255429
:10450000401C86B2A84890ED000A08E085E25EE013
:1045100085E007E1B1E0FDE3FDE3FDE3FDE3DFED71
:10452000A30AA0199CA120EE200ABDEEC00A10EE3D
:10453000102AFBF7C9FEB61DB0B29D492554401C98
:1045400086B20A78A0199BA1FBF7BEFEF61CB0B29A
:104550002554401C86B29BF80620A01997A1FBF7B2
:10456000B3FE761CB0B200E06DE025549449401CC7
:1045700086B20A78A01991A1FBF7A6FE761CB0B20C
:1045800090492554401C86B20A78A0198BA1FBF7EC
:104590009BFE761CB0B28C492554401C86B20A782A
:1045A000A0198AA1FBF790FEB61CB0B28849255429
:1045B000401C85B2B1F9002060197EA1FBF784FE92
:1045C000ED1CA8B20D212154401C80B222E0605D98
:1045D00001223F281AD000200146635D01EB8101D2
:1045E0006D1C401C06EB4101C0B21944ADB29042B3
:1045F000F3D35E468BF8051000210220FFF794FAF2
:104600000020B07103203072707903E260199BF8CA
:10461000052022E004F800A0401C85B27DE3605D27
:1046200001223F287ED000210846635D00EB800018
:104630006D1C491C06EB4000C9B21844ADB2914252
:10464000F3D301280ED901222046329900F014FD3F
:1046500033B0BDEC028BBDE8F08F58A1FBF734FE00
:104660006D1CF4E38BF806009BF80600FEF71CFEB9
:104670000D2060556D1CADB24FE300200746615D13
:1046800007EB870206EB42026D1C401C8F18C0B27C
:10469000ADB20528F3D34946C9F84470625D6D1C7C
:1046A0000023A8B22C2A0CD10022255C03EB830343
:1046B000401C521C06EB4303D2B22B4480B2052AA5
:1046C000F3D3A1F84830225C401C002380B22C2A8E
:1046D0000CD10022255C03EB8303401C521C06EB2B
:1046E0004303D2B22B4480B2052AF3D3CB64225CBD
:1046F000401C002380B22C2A0CD10022255C03EB45
:104700008303401C521C06EB4303D2B22B4480B2FD
:10471000032AF3D3A1F85030225C401C002380B25E
:104720002C2A00E07FE10CD10022255C03EB8303FF
:10473000401C521C06EB4303D2B22B4480B2052A24
:10474000F3D3A1F85430225C401C002380B22C2A01
:104750000CD10022255C03EB8303401C521C06EBAA
:104760004303D2B22B4480B2052AF3D3A1F85630CA
:10477000225C401C002380B22C2A2BE02564000020
:104780002F000000FC000020310000201403002056
:10479000253035640000000025303664000000003C
:1047A00025303464000000002800002000007A4416
:1047B000B001002025303364000000002531640082
:1047C000B2010020F6010020AC0100202532640077
:1047D000340000200CD10022255C03EB8303401C35
:1047E000521C06EB4303D2B22B4480B2052AF3D30A
:1047F000A1F85830225C401C002380B22C2A0CD136
:104800000022255C03EB8303401C521C06EB430390
:10481000D2B22B4480B2052AF3D3A1F86030225CD7
:10482000401C002380B22C2A0CD10022255C03EB13
:104830008303401C521C06EB4303D2B22B4480B2CC
:10484000052AF3D3CB65225C401C002380B22C2ABE
:104850000CD10022255C03EB8303401C521C06EBA9
:104860004303D2B22B4480B2052AF3D3A1F86230BD
:10487000225C401C002380B22C2A0CD10022255C33
:1048800003EB8303401C521C06EB4303D2B22B44C0
:1048900080B2052AF3D3A1F86430225C401C0023C7
:1048A00080B22C2A0CD10022255C03EB8303401C30
:1048B000521C06EB4303D2B22B4480B2052AF3D339
:1048C000A1F86630225C401C002380B22C2A0CD157
:1048D0000022255C03EB8303401C521C06EB4303C0
:1048E000D2B22B4480B2052AF3D38B66225C401CE3
:1048F000002380B22C2A0CD10022255C03EB830319
:10490000401C521C06EB4303D2B22B4480B2052A52
:10491000F3D3A1F86C30225C401C002380B22C2A17
:104920000CD10022255C03EB8303401C521C06EBD8
:104930004303D2B22B4480B2052AF3D30B67225C27
:10494000401C002380B22C2A0CD10022255C03EBF2
:104950008303401C521C06EB4303D2B22B4480B2AB
:10496000052AF3D34B67225C401C002380B22C2A1B
:104970000CD10022255C03EB8303401C521C06EB88
:104980004303D2B22B4480B2032AF3D381F87830A8
:10499000225C401C002380B22C2A0CD10022255C12
:1049A00003EB8303401C521C06EB4303D2B22B449F
:1049B00080B2032AF3D39BF805205F4602B98B61CE
:1049C000225C401C002380B22C2A0CD10022255CE2
:1049D00003EB8303401C521C06EB4303D2B22B446F
:1049E00080B2032AF3D3FB71235C401C002285B202
:1049F0002C2B0CD10020635D02EB82026D1C401C4D
:104A000006EB4202C0B21A44ADB20328F3D381F8D8
:104A100052207879FEF7EAFC2AE6605D3F2802D052
:104A20000B2D03D010E060190A7816E60020074627
:104A3000615D07EB870206EB42026D1C401C8F187C
:104A4000C0B2ADB20228F3D38BF805709BF8050015
:104A50000027DFF86CA444F62061B0B19BF8050094
:104A60005A46012863D0507902287DD09BF8050072
:104A700003287AD05079042878D09BF805000528BF
:104A800075D05079062873D0DAE1625D6D1CA8B24A
:104A90002C2A06D10022401C521CD2B280B2052A18
:104AA000F9D3235C401C002285B22C2B0CD10020B2
:104AB000635D02EB82026D1C401C06EB4202C0B239
:104AC0001A44ADB20528F3D3C9F81420D9F814005C
:104AD0000027884207D90120CAF82000C102F948FE
:104AE000FEF74FF907E00020CAF820004FF40061FC
:104AF000F448FEF748F9605D6D1CADB22C280CD16E
:104B00000020615D07EB870206EB42026D1C8F18E7
:104B1000401CADB210F0FF00F3D08BF806709BF88C
:104B200006000028B0D10120CAF8200025E1615D0F
:104B30006D1CA8B22C290CD10021235C07EB870542
:104B400006EB4505401C491C5F19C9B280B2052916
:104B5000F3D34D46A9F86470215C401C002380B259
:104B60002C2912D1002104E025E073E0B0E00AE135
:104B70003AE1275C03EB8303401C491C06EB43032B
:104B8000C9B23B4480B20529EDD3A5F86630235C59
:104B9000401C002185B22C2B0CD10020635D6D1CC4
:104BA00001EB810106EB4101401C1944ADB210F04C
:104BB000FF00F3D043E10121CAF82010C902C14827
:104BC000FEF7DFF8615D6D1CA8B22C290CD1002125
:104BD000225C07EB870306EB4303401C491CD718F4
:104BE000C9B280B20529F3D34B46C9F84470215CA1
:104BF000401C002280B22C290CD10021255C02EB44
:104C00008202401C491C06EB4202C9B22A4480B20F
:104C10000529F3D3A3F84820225C401C002185B26B
:104C20002C2A0CD10020625D6D1C01EB810106EB8A
:104C30004101401C1144ADB210F0FF00F3D08BF8DD
:104C400006109BF80600012802D19F490020087039
:104C5000F6E0FAE1615D6D1CA8B22C290CD10021AF
:104C6000235C07EB870506EB4505401C491C5F19D3
:104C7000C9B280B20529F3D34D46A9F86470215C0E
:104C8000401C002380B22C290CD10021275C03EBAF
:104C90008303401C491C06EB4303C9B23B4480B26A
:104CA0000529F3D3A5F86630235C401C002185B2AA
:104CB0002C2B0CD10020635D6D1C01EB810106EBF8
:104CC0004101401C1944ADB210F0FF00F3D0B6E032
:104CD000625D6D1CA8B22C2A06D10022401C521C19
:104CE000D2B280B2052AF9D3235C401C002285B2DF
:104CF0002C2B0CD10020635D02EB82026D1C401C4A
:104D000006EB4202C0B21A44ADB20528F3D3C9F88B
:104D1000142003E09CE0FFE03FE13DE1D9F81400FE
:104D20000027884207D90120CAF82000C10265483F
:104D3000FEF727F807E00020CAF820004FF40061D2
:104D40006048FEF720F8605D6D1CADB22C280CD1D8
:104D50000020615D07EB870206EB42026D1C8F1895
:104D6000401CADB210F0FF00F3D08BF806709BF83A
:104D70000600C0BB0121CAF820104FF40061514861
:104D8000FDF7FFFF5CE0615D6D1CA8B22C2906D128
:104D90000021401C491CC9B280B20529F9D3215C0D
:104DA000401C80B22C2906D10021401C491CC9B2EC
:104DB00080B20529F9D3235C401C002185B22C2B3D
:104DC0000CD10020635D6D1C01EB810106EB4101FC
:104DD000401C1944ADB210F0FF00F3D091719079EE
:104DE00008B9002090712BE0615D6D1CA8B22C29E0
:104DF00006D10021401C491CC9B280B20529F9D353
:104E0000215C401C80B22C2906D10021401C491C89
:104E1000C9B280B20529F9D3235C401C002185B2B8
:104E20002C2B0CD10020635D6D1C01EB810106EB86
:104E30004101401C1944ADB210F0FF00F3D0917154
:104E4000FEF762FE9BF80600FEF7BAF810E4DAE01F
:104E5000605D08233F2819D00122002141B10429B7
:104E600006D06818205CFDF7CDFF012832D0002263
:104E7000491CC9B29942F1D3012A7FF47CAAE818EF
:104E8000205C0D28F9D1002210463CE0B5EEC08A26
:104E9000F1EE10FA01DB2B2000E02D2060556D1C97
:104EA000ADB218EE100A03F0CBFA41EC100B60190A
:104EB00053EC102B05A1FBF707FA0835A3E000001F
:104EC0001805002000080240B20100202530332ED2
:104ED0003366000002F00102CAE750B1042805D091
:104EE000615D02EB820206EB42020A446D1CADB228
:104EF00007E0615D6D1C303900EE101AADB2B8EEFE
:104F0000C08A401CC0B29842E7D3BCEEC80A10EE7B
:104F1000100AC1B200203DE0605D08233F283BD06D
:104F20000122002141B1042906D06818205CFDF758
:104F300069FF01280DD00022491CC9B29942F1D362
:104F4000012A9AD1E818205C0D2896D1002210463B
:104F500018E002F00102EFE750B1042805D0615DCE
:104F600002EB820206EB42020A446D1CADB207E07E
:104F7000615D6D1C303900EE101AADB2B8EEC08A1A
:104F8000401CC0B29842E7D3BCEEC80A10EE100A2B
:104F9000C1B20120FCF748FF61E0605D06233F28B5
:104FA00018D00122002141B1042906D06818205CE4
:104FB000FDF728FF012829D00022491CC9B29942D7
:104FC000F1D3012ABDD1E818205C0D28B9D1002207
:104FD000104629E0B5EEC08AF1EE10FA01DB2B2075
:104FE00000E02D2060556D1CADB218EE100A03F0E4
:104FF00027FA41EC100B601953EC102BAFF234116F
:10500000FBF762F9AD1DA8B2FFF704BB02F0010285
:10501000D3E7615D88B102EB820206EB42026D1CB0
:105020000A44ADB2401CC0B29842F2D3BCEEC80AEA
:1050300010EE100AC1B20220ACE76D1C303900EE50
:10504000101AADB2B8EEC08AECE70A490120087028
:1050500002F07EFE012F02D13720FDF7DBFEB8F112
:10506000130FBFF488A933B06D1CBDEC028BA8B23E
:10507000BDE8F08F50000020F8B5044600200090F5
:10508000206016463E2020700A461AA16846FBF7AB
:105090001BF96846FBF73EFA0546601C2A4669463E
:1050A000FBF726FA6D1CA8B22F212154401C85B2B3
:1050B000012E08D0022E01D0032E15D0082660192B
:1050C00032460DA103E00926601932460DA1FBF717
:1050D000D0FAA81980B20D212154401C80B20A21B7
:1050E0002154401C80B2F8BD08266019324608A140
:1050F000EDE7000025640000434D44204552522155
:105100000000000050415241204552522100000051
:1051100052454D204552522100000000044810B570
:10512000B0F8660000F03AF802490320487210BD5A
:1051300014030020C400002070B50F4CA0790F4D5F
:10514000012809D104212846FDF71DFE0A20FDF79C
:1051500002FCA079FEF710FDA07948B9A079FEF70E
:105160000BFD0A20FDF7F7FB04212846FDF709FE99
:105170000020607270BD0000C400002000100240DA
:10518000044810B5B0F8640000F072F8024902203B
:10519000487210BD14030020C400002031B5124C29
:1051A00001202070062060700020A0703120E07087
:1051B000BDF800100A20B1FBF0F1090A2171BDF819
:1051C0000010B1FBF0F0607106212046FDF7DEFD16
:1051D000A07106212046FDF7D9FD000AE071BDE867
:1051E0003840082002F0B8BA48060020044810B53C
:1051F000B0F85600FFF7D2FF02490320087210BD35
:1052000014030020C400002070B5104CA079104D8C
:10521000012802D0A07958B114E004212846FDF7F6
:10522000B2FD0A20FDF797FBA079FEF7A5FC09E087
:10523000A079FEF7A1FC0A20FDF78DFB042128468A
:10524000FDF79FFD0020207270BD0000C40000200B
:1052500000100240044810B5B0F8540000F008F8FF
:1052600002490220087210BD14030020C40000206F
:1052700031B5124C01202070062060700020A07013
:105280003020E070BDF800100A20B1FBF0F1090AEF
:105290002171BDF80010B1FBF0F0607106212046CD
:1052A000FDF774FDA07106212046FDF76FFD000A91
:1052B000E071BDE83840082002F04EBA48060020F0
:1052C0000CB50022274900920192086840F4803012
:1052D00008604FF4A043086800F400300190009883
:1052E000401C0090019810B900989842F3D10868CA
:1052F000800334D5012001901A484030026842F002
:10530000805202601848026842F440420260154828
:10531000083002680260026842F4004202600268DB
:1053200042F4A0520260031F104A1A600A6842F059
:1053300080720A600A689201FCD50D4940F205723C
:105340000A60016821F003010160016841F0020177
:1053500001600168C1F381010229FAD10CBD0192FB
:105360000CBD000000380240007000401954400796
:10537000003C024010B530F8113030F8124020F8EF
:10538000114020F8123010BD10B500F0F7FF1248A0
:105390000168491C016011480188491C018001888D
:1053A0000022142905D902800D48016841F08001CE
:1053B00001600C4C0C492068C30702D00B785B1CC1
:1053C0000B700B78282B05D90A7020F001002060A3
:1053D0000648027010BD0000F80100209200002075
:1053E0003800002048000020A8010020A70100206C
:1053F0000D4801684FF4FA70B1FBF0F0401EB0F1B7
:10540000807F0FD24FF0E0214861084AF02082F8F7
:10541000140D0020886107200861086940F0010030
:1054200008617047FEE70000000000200FE000E088
:10543000114810B5016841F4700101600F4801681E
:1054400041F0010101600D4A00210832116002683B
:105450000B4B1A400260031D0A4A1A60026822F4CC
:105460008022026005480C300160FFF729FF0249E5
:1054700005488039086010BD88ED00E00038024022
:10548000FFFFF6FE10300024000002087CB5134E2A
:10549000012207213046FDF75DFC0122082130463C
:1054A000FDF758FC022480208DF804400025009070
:1054B0008DF806508DF8054069463046FDF70EFC24
:1054C000E0018DF8044000908DF806508DF80540FD
:1054D00069463046FDF702FC7CBD0000000002403A
:1054E00070B5012188B00846FEF78CFBFFF7CEFFB0
:1054F00004260024F001ADF81C00214DADF8146025
:10550000ADF8164006948DF81E4005A9284600F017
:10551000BBFE7020ADF800000120ADF8020045F69A
:10552000C050ADF80C40ADF810400290ADF80460EA
:10553000ADF80E40ADF812406946284600F0E8FD8F
:10554000104C48F2E80020800821284600F010FEA8
:105550002188284600F090FE0121284600F0FAFC40
:105560000121284600F003FD0121284600F009FD35
:1055700020884108284600F081FE08B070BD000078
:1055800000000140B40000202DE9F05F2DED028BFA
:10559000DFEDFB8A0121FB4800F0A6FD01287DD14B
:1055A000F9480168491C0160F84E3169F848002447
:1055B000814200D93461F168814200D9F460F06A17
:1055C00010B1F06A401EF062F24801789FEDF20AD5
:1055D0009FEDF28AF248DFF8CCB3DFF8CCA3F34FAB
:1055E0004FF001094FF47A7806290ED2DFE801F076
:1055F000033C660D0DFD0078012807D0CBED008A35
:1056000034633878012822D03481C1E231694046C0
:10561000B1FBF0F208FB12110029F2D131694145CA
:10562000EFD3E348D0ED000A20EE881AC1EE000A5D
:105630009BED000A30EE200A8BED000ABCEEC00A9A
:1056400010EE100A30630020FEF702FED9E7308921
:1056500040F2E7318842D8D2D6490988D64A22F8A2
:105660001010401C308193E24078012803D0CBED2C
:10567000008A34638CE231694046B1FBF0F208FBEA
:1056800012110029C1D131694145BED3CB48D0EDBB
:10569000000A20EE881AC1EE000A00E0FDE29BED50
:1056A000000A30EE200A8BED000ABCEEC00A10EEB4
:1056B000100A30630120FEF7CBFD69E2C04908788B
:1056C000DFF800B3C04D01284BD1C0480078012855
:1056D00047D1504630F8482F0089012800DA0120D0
:1056E000B7490978E9B3B249B94AD1ED000A92ED58
:1056F000000AF4EEC00AF1EE10FA01DDC2ED000A74
:105700003169B1FBF0F300FB1311B24851B992EDCE
:10571000000A80ED000ADAF81430BAF848C0634491
:10572000CAF8143092ED000AAB4ADFEDAC8AB5EE50
:10573000C00AF1EE10FA34D070EE600AA84B10EEF9
:10574000901A994203DAA7490968914253DA80ED29
:10575000000A20EE280ABDEEC00A10EE100A000A68
:1057600000E048E08BF82B0010EE100A8BF82C00BC
:1057700093480470FEF7C8F92EE0316296ED0A0AEC
:1057800020EE080ABDEEC00A10EE101A01F6B8317C
:1057900020F8541FA0F8028087F8009085F8009048
:1057A00029E090490968914225DA8A4880ED000A8B
:1057B000FEF7AAF9874890ED000A20EE280ABDEE10
:1057C000C00A10EE100A000A8BF82B0010EE100A27
:1057D0008BF82C007A4804709AF85210504641B168
:1057E00090F852104FF47A7200E089E011FB02F158
:1057F000C3E74146C1E7306AB8B1306A401E306243
:10580000306A90B93C70032028707749C1F818902D
:105810004FF480517548FDF7B6FA86F80190CAF842
:10582000104001210220FEF77FF9707801283FD156
:105830003078401C30706B4896ED0A1A6C49D0EDF8
:10584000000A80EE810A10EE100A884202DB3078EE
:10585000FF282DD17470FEF757F93078584600F8BC
:105860002D4F3178417057489BF8A2101E30FEF73B
:105870008DF89AF85210504631B190F852104FF40A
:105880007A7211FB02F100E04146716296ED0A0A5C
:1058900020EE080ABDEEC00A10EE101A01F6B8316B
:1058A00020F8541FA0F8028087F8009085F8009037
:1058B000706A002823D0706A401E7062706A0028E7
:1058C0001DD13C7003202870DAF844005546CAF810
:1058D0001400454884614FF480514448FDF751FA63
:1058E00086F802903C7095F8520030B195F852005D
:1058F0004FF47A7110FB01F000E04046F06247E19E
:10590000274880780128FAD131694046B1FBF0F28E
:1059100008FB1211374DD1B93169414517D32878A9
:1059200001281DD02548D0ED000A20EE881AC1EECE
:10593000000A9BED000A30EE200A8BED000ABCEE57
:10594000C00A10EE100A30630220FEF781FC2948DD
:105950000078294998B10846007801287ED0BAE03D
:105960001348D0ED000A254820EE881AC1EE000A3F
:1059700090ED000A30EE200A80ED000ADFE73FE0FC
:10598000000000000004004044000020B00100209E
:10599000FEFFFF7FC90000200000614500007A443F
:1059A0006F0000206400002014030020CA000020C3
:1059B0005C00002084000020E80800206000002037
:1059C00024000020AC030020CC0000203100002087
:1059D0002C00002028000020CDCCCC3D0000C84287
:1059E0006F12033B540000201805002000080240FD
:1059F000CDCCCC3E6E0000206D0000206800002061
:105A000008788B4601280DD100250621A548FDF711
:105A1000BDFF3220FCF79FFF6D1CEDB2032DF4D3C8
:105A20008BF80040F08808B1401EF080F078012823
:105A300003D0F078022815D0AAE0DAF868205146A1
:105A4000DAF8280000EB8000B2EB400F27D8886E10
:105A500028B3F08818BB886E886000E020E0022040
:105A6000F07019E0BAF86C205146DAF8300000EB1B
:105A70008000B2EB400F12D9B1F86C0078B1F08819
:105A800068B986F803903C70874981F8009087498F
:105A900081F800908BF8009041F28830F08077E038
:105AA000002580480621801DFDF770FF3220FCF79D
:105AB00052FF6D1CEDB2032DF3D37D4804706420BA
:105AC000FCF749FF7B48016841F0400101608021FB
:105AD0007948FDF756F9F08808B1401EF080DAF8F1
