:020000040802F0
:1000000080170020890202087F3C0208732F020833
:100010007D3C0208F91D0208B580020800000000BE
:100020000000000000000000000000006F44020813
:100030003D2B020800000000953D020849560208C9
:10004000A3020208A3020208A3020208A3020208F4
:10005000A3020208A3020208A3020208A3020208E4
:10006000A3020208A3020208A3020208A3020208D4
:10007000A3020208A302020809280208A302020838
:10008000A3020208A3020208A3020208A3020208B4
:10009000A3020208A3020208A3020208A3020208A4
:1000A000A3020208A3020208A3020208A302020894
:1000B000A302020849580208A3020208A302020888
:1000C000A3020208A3020208A3020208A302020874
:1000D000A302020835790208517A0208697D0208F4
:1000E000A3020208A3020208A3020208A302020854
:1000F000A3020208A3020208A3020208A302020844
:10010000A3020208A302020811610208A302020866
:10011000A3020208A302020809620208A30202085D
:1001200049280208A3020208A3020208A302020847
:10013000A3020208A3020208A3020208A302020803
:10014000A3020208A3020208A3020208253D020836
:10015000A3020208A3020208A3020208A3020208E3
:10016000A3020208A3020208A3020208A3020208D3
:10017000A3020208A3020208A3020208A3020208C3
:10018000A3020208A302020800F002F800F06CF8D3
:100190000AA090E8000C82448344AAF10107DA45E2
:1001A00001D100F061F8AFF2090EBAE80F0013F0C8
:1001B000010F18BFFB1A43F001031847448A0000DF
:1001C000648A00000A444FF0000C10F8013B13F061
:1001D000070408BF10F8014B1D1108BF10F8015BA0
:1001E000641E05D010F8016B641E01F8016BF9D193
:1001F00013F0080F1EBF10F8014BAD1C0C1B09D1EA
:100200006D1E58BF01F801CBFAD505E014F8016B5B
:1002100001F8016B6D1EF9D59142D6D370470000ED
:100220000023002400250026103A28BF78C1FBD8FF
:10023000520728BF30C148BF0B607047662908F0DD
:100240008983642900F07C80002070471FB508F086
:100250007CFB00F091FD04000020002108F0AAF9C9
:10026000E0601FBD10B510BD00F086FE1146FFF71F
:10027000EDFF08F0C7F800F0A4FE03B4FFF7F2FFAB
:1002800003BC00F0E7FE000009488047094800472A
:10029000FEE7FEE7FEE7FEE7FEE7FEE7FEE7FEE736
:1002A000FEE7FEE704480549054A064B7047000093
:1002B000F1560208890102088011002080170020F1
:1002C00080130020801300200FB41CB5074B06AA32
:1002D0007B4469460090059800F0F9FC00206946CF
:1002E00000F008FD1CBC5DF814FB0000210A0000B2
:1002F00070B5044685690068C10601D5302600E066
:100300002026C00707D070BDD4E9012130469047B0
:10031000206A401C20626D1EF6D570BD70B5044683
:1003200085690078C00707D170BDD4E9012120207C
:100330009047206A401C20626D1EF6D570BD0000FB
:100340002DE9F0410646002410687529314616A5AE
:1003500010D0AFF30080002802DA404213A507E076
:1003600031688A0701D512A502E0490704D511A515
:10037000012401E0AFF3008000210A2206F12407E6
:1003800009E0B0FBF2FCB0FBF2F302FB1C003030E2
:1003900078541846491C0028F3D123462A46304693
:1003A000BDE8F04100F025BA000000002D0000007B
:1003B0002B000000200000002DE9F05F8946044674
:1003C0004FF0000ADFF824B1FB44C0F820A020461B
:1003D000E168884700287DD0252806D0D4E901218E
:1003E0009047206A401C2062F1E700255F462046C6
:1003F000E16888472028064607DB312E05D2B81968
:1004000010F8200C08B10543F1E7A80701D525F045
:100410000405C4F81CA00027C4F818A02A2E09D08F
:10042000304607F0D1FE38B304EB8708303EC8F8F9
:10043000186019E059F8041B204604EB870291610B
:10044000E1688847012F064618D1E069002820DAC4
:1004500025F020051DE0D8F8180000EB800006EB21
:1004600040003038C8F818002046E1688847064642
:1004700007F0AAFE0028EED1012F0AD02E2E08D1B7
:100480002046E16888477F1C0646022F45F020057C
:10049000C4DBA069002803DA404245F00105A061F1
:1004A000E80701D025F01005A6B1A6F141001928F2
:1004B00002D8203645F400654A463146204625607C
:1004C0004D46FFF7BBFE60B1012807D0ED1D25F0BA
:1004D000070000E007E000F1080978E705F10409EA
:1004E00075E730467AE7206ABDE8F09F8C87000008
:1004F00010B5431E13F8014F002CFBD105E011F895
:10050000014B002C03F8014B03D0521EF7D20021FF
:10051000197010BD10B5431C02E010F8011B71B139
:100520008107FAD14FF0013202C88C1A8C4314EAC9
:10053000C211F9D0C01A0A0603D0C01E10BDC01ADD
:1005400010BD0A0401D0801E10BD0902FCD0401E5F
:1005500010BD40EA010370B59B072ED14FF0013664
:10056000042A2AD308C810C99D1B9D43121F15EAEF
:10057000C61517D0D8B2E1B2401A50EA056110D1C1
:1005800098B2A1B2401A50EA05410AD123F07F4047
:1005900024F07F41401A50EA052102D1180EA0EB49
:1005A000146070BDA342DBD018BA21BA884201D9C9
:1005B000012070BD4FF0FF3070BD0AB9002070BD42
:1005C00010F8013B11F8014B63B1A3420AD1521E4E
:1005D00008D010F8013B11F8014B1BB1A34201D127
:1005E000521EEDD1181B70BD032A40F2308010F06E
:1005F000030C00F0158011F8013BBCF1020F6244BE
:1006000098BF11F801CB00F8013B38BF11F8013B4E
:10061000A2F1040298BF00F801CB38BF00F8013BFB
:1006200011F0030300F06780083AC0F0088051F829
:10063000043B083A51F804CBA0E80810F5E7121D76
:100640005CBF51F8043B40F8043BAFF30080D20795
:1006500024BF11F8013B11F801CB48BF11F8012B61
:1006600024BF00F8013B00F801CB48BF00F8012B84
:100670007047431A28BF9A427FF6B6AF032A104448
:10068000114440F2268010F0030F1EBF11F8013D07
:10069000521E00F8013D10F0030F7FF4F6AF11F089
:1006A000030300F03F83083AC0F00B8051F8043D8B
:1006B000083A51F804CD40F8043D40F804CDFFF766
:1006C000F3BF121D5CBF51F8043D40F8043DAFF389
:1006D0000080D20724BF11F8013D11F801CD48BFB9
:1006E00011F8012C24BF00F8013D00F801CD48BFEE
:1006F00000F8012C704710B5203AC0F00B80B1E82B
:100700001850203AA0E81850B1E81850A0E8185046
:10071000BFF4F5AF5FEA027C24BFB1E81850A0E84F
:10072000185044BF18C918C0BDE810405FEA827C69
:1007300024BF51F8043B40F8043B08BF7047D20780
:1007400028BF31F8023B48BF11F8012B28BF20F821
:10075000023B48BF00F8012B70474FF0000204290C
:10076000C0F0128010F0030C00F01B80CCF1040CE0
:10077000BCF1020F18BF00F8012BA8BF20F8022B14
:10078000A1EB0C0100F00DB85FEAC17C24BF00F8BA
:10079000012B00F8012B48BF00F8012B70474FF0E8
:1007A000000200B5134694469646203922BFA0E8C1
:1007B0000C50A0E80C50B1F12001BFF4F7AF0907CD
:1007C00028BFA0E80C5048BF0CC05DF804EB8900BE
:1007D00028BF40F8042B08BF704748BF20F8022B01
:1007E00011F0804F18BF00F8012B70477047704719
:1007F00070472DE9F0470D4699469246044600F1B0
:1008000024080168880604D5E06921F01001216000
:1008100000E00120A84201DD471B00E00027A1699C
:100820007A1902EB0900081AA0612078C00602D4E8
:100830002046FFF75DFD002608E0D4E901211AF803
:1008400006009047206A401C761C20624E45F4DB6F
:100850002078C0060AD52046FFF74AFD06E0D4E915
:10086000012130209047206A401C2062381EA7F1E9
:100870000107F4DC07E0D4E9012118F805009047EE
:10088000206A401C2062281EA5F10105F3DC2046E9
:10089000FFF744FD2078000602D50220BDE8F0876E
:1008A0000120FBE770472DE9FF4F0C461E464FF035
:1008B000FF378BB0D2E90001DDF860800A908A46EC
:1008C000C1F30A5505B93D46002108464FF0000026
:1008D000BAF1000F00F4400005DA00EB80004FF49D
:1008E000400101EA50004FEA9059B9F1010F00DDD3
:1008F000B9460A9850EA4A000ED044F61050A5F2C4
:10090000FF3545432F14B8F1000F1ED07542291E44
:100910001EDDC9F100021CE0B8F1010F4FF000002C
:1009200001D0302103E0F24305E02154401CB042E5
:10093000FBDB30460022002121540B99C1F80880CE
:10094000C1E900200FB0BDE8F08FBD1B6D1CDEE7D4
:100950004A4600DA694206A800F098FA06AB93E826
:10096000070003AB83E8070050460A9900F079FBC3
:100970008DE80700A0F500501F3800900398002D67
:100980000ADD42F21F014A460844002303A90390EE
:10099000684600F0E2FD09E0A0F500504A461F3825
:1009A000002303A90390684600F0ECFD8DE80700E2
:1009B0000004000C03D04FF0FF30410800E0104667
:1009C000B8F1000F03D00022009215461EE0751EFC
:1009D00005D400F0D5F9303262556D1EF9D5B34615
:1009E0000122084302D000227F1C04E02078302836
:1009F00001D100227F1E002A099784D01DE0112D0D
:100A000007DA00F0BDF9303262556D1C50EA010280
:100A1000F5D1084302D00098C8B10EE00021681E4D
:100A200005E0235C625C63542254401E491C8142F1
:100A3000F7DBAB46A81B401E0990002004F80B0012
:100A40000B98099AC0F80880C0E9002B7AE71126B4
:100A50004FF0000857E72DE9F04F88460446D21DB5
:100A600022F0070191B0D1E90001CDE90A0107F0B8
:100A700093FB02460B98C00F01D02D2007E02068A1
:100A8000810701D52B2002E0202101EAC000032AC2
:100A9000099001D0072A05DB03464146204600F0B5
:100AA000B5F90BE12078800601D5E06900E0062069
:100AB000B8F1650F814606D0B8F1660F18D0B8F1CD
:100AC000670F70D131E00020B9F1110F009001DB08
:100AD000112301E009F101030AAA01A90CA8FFF7FB
:100AE000E2FEDDE90C70002609F10105834647E0CE
:100AF00001204B4600904FF000470AAA01A90CA81C
:100B0000FFF7D1FEDDE90DB00C995D46002610B966
:100B100009F101000D18B9EB050003D4C0F1FF364F
:100B200009F10105A5EB09002BE0B9F1010F01DA8C
:100B30004FF001090020B9F1110F0090484601DD86
:100B4000112300E003460AAA01A90CA8FFF7ABFE97
:100B5000DDE90C704D4600268346207800070AD454
:100B6000AB4500DA5D4601A8012D04DD411911F8FD
:100B7000011C302907D04F4502DA17F1040F04DABF
:100B8000012082460FE06D1EEEE7002F02DCED1B18
:100B90003E4403E0781CA84200DD7D1CB81B00F138
:100BA000010A4FF000472078000703D4AA4501DB73
:100BB0004FF0FF3A0021B7F1004F0DF143088DF8D7
:100BC000431024D002202B23002F01DA7F422D2353
:100BD0000A21021EA0F1010000DC5FB197FBF1FCCD
:100BE00097FBF1F201FB1C7C17460CF1300C08F866
:100BF00001CDEEE7A8F1010003702188090501D5B8
:100C0000452100E06521A0F1010800F8011C0998C8
:100C10000FA9A1EB0807FF1D00B10120411901EB4D
:100C2000EA70A1693844081A401EA0612078C00605
:100C300002D42046FFF75CFB099828B1D4E90121D2
:100C40009047206A401C20622078C00622D52046AA
:100C5000FFF74EFB1EE0002E04DBB34502DD01A8CA
:100C6000805D00E03020D4E901219047206A401CDB
:100C70002062761CAAF101005FEA000A0AD100F0A6
:100C80007BF8C0680168405CD4E901219047206A84
:100C9000401C2062281EA5F10105DCDC07E0D4E938
:100CA000012118F8010B9047206A401C2062381E71
:100CB000A7F10107F3DC2046FFF730FB032011B05A
:100CC00041E6000001694A1C02610878704700B5DE
:100CD0008FB0CDE901310021059105497944CDE975
:100CE000031011466846FFF767FB0FB000BD000018
:100CF000E5FFFFFF0A6802F8010B0A607047431A1C
:100D000028BF9A427FF6F7AC104410F0030F11444D
:100D10001EBF11F8013D521E00F8013D10F0030FF7
:100D20007FF4F6AF103AC0F00A8010B531E91850E0
:100D3000103A20E91850BFF4F9AFBDE8104053074E
:100D400024BF31E9081020E9081044BF51F8043DE0
:100D500040F8043D12F0030F08BF7047D20728BFC8
:100D600031F8023D48BF11F8012C28BF20F8023DA0
:100D700048BF00F8012C7047004870474011002020
:100D800030B5B0F10A024FEA900E71F100034EEA5D
:100D9000817EB0EB0E0061EB91014FEA101E4EEA2E
:100DA000017E10EB0E0041EB11114FEA102E4EEABE
:100DB000016E10EB0E0041EB11214FEA104E4EEA8E
:100DC000014E10EB0E0041EB1141401841F10001C2
:100DD0004FEAD00040EA41704FEAD10110EB8005A4
:100DE0004FEA810444EA907444EB01046D1944EB2A
:100DF0000404521BA3414FF0000348BF0A3200D540
:100E000030BD401C41F1000130BD00002DE9F04132
:100E10001F46044603260168072A01F4006004DB2C
:100E200008B116A505E016A503E008B115A500E078
:100E300015A521F010002060A069C01EA0610FB1AF
:100E4000401EA0612046FFF753FA4FB1D4E90121BB
:100E500038469047206A401C2062C01C206206E091
:100E6000206AFAE7D4E9012115F8010B9047761EB4
:100E7000F8D22046FFF752FABDE8F0814E414E000D
:100E80006E616E00494E4600696E66002DE9F047BE
:100E9000814616468AB0354878440DC88DE80D0065
:100EA00032487844801C03AC0DC884E80D0041F63C
:100EB0009B300844372190FBF1F290FBF1F5A5F14E
:100EC000800501FB12041B3C02D56442012000E0B6
:100ED0000020DFF898A080460027FA44AAF1BE0A55
:100EE0000EE0E0070AD03246684607EB47010123CF
:100EF0000AEB810100F046FB8DE8070064107F1CBF
:100F0000002CEED1194F7F44AE3F19E0E80715D011
:100F100007EB04100DF1180A90E80E008AE80E00A5
:100F2000C068F04201D1981908903246012306A901
:100F300003A800F027FB03AB83E807006D10641CD7
:100F4000002DE3D14FF0010332466946B8F1000F9E
:100F500003A802D000F001FB01E000F013FBC9E997
:100F60000001C9F808200AB0BDE8F0874C7D0000F8
:100F700000487047201100207546FFF7F9FFAE4684
:100F800005006946534620F00700854618B020B595
:100F9000FFF788F9BDE820404FF000064FF000074A
:100FA0004FF000084FF0000B21F00701AC46ACE811
:100FB000C009ACE8C009ACE8C009ACE8C0098D467E
:100FC000704710B50446AFF300802046BDE81040DE
:100FD000FFF753B94FF0013C50F8042B51F8043B94
:100FE0009A4221D1A2EB0C03934313EACC1317D1FD
:100FF00050F8042B51F8043B9A4215D1A2EB0C0394
:10100000934313EACC130BD150F8042B51F8043B53
:101010009A4209D1A2EB0C03934313EACC13DBD021
:101020004FF00000704700BFD01A01BAB1FA81F149
:1010300001F0180122FA01F0CB40C1F12001DBB22E
:10104000C0B2C01A2CFA01F3D11A914311EAC311AC
:10105000E6D1704701491820ABBEFEE7260002002A
:1010600070475FEA400C08BF91F0000F4FEA8C23F5
:101070004FEAC12243EA51514FEA1C5018BF00F514
:10108000F0404FEA300018BF41F000415FEA6C5C6D
:1010900000F02980BCF1FF3F08BF40F0804070475E
:1010A000130C06BF12044FF0100C4FF0000C130E7F
:1010B00004BF12020CF1080C130F04BF12010CF153
:1010C000040C930F04BF92000CF1020CD30F04BF69
:1010D00052000CF1010C11464FF00002A0F11F006C
:1010E000A0EB0C00704711F0004F08BF704731F0C3
:1010F00000413FF4D5AF0B0C06BF09044FF0100CB4
:101100004FF0000C0B0E04BF09020CF1080C0B0F82
:1011100004BF09010CF1040C8B0F04BF89000CF112
:10112000020CCB0F04BF49000CF1010CCCF12003E1
:10113000A0EB0C0022FA03F302FA0CF241EA0301DD
:1011400000F10100704720F07F4C80EA030023F09B
:101150007F47ACEB070303F57C5300F0004003F13D
:10116000FF032DE980494FEA154B09B44FEA1443B8
:1011700025EA0B4E24EA03480FF2042606EB132758
:1011800049083E785FEA320203FB0667C7F50007AD
:1011900007FB06F64FEA54374FEAD64606F1020639
:1011A00007FB066CCCF1005C4FEA1C472CEA074CAD
:1011B00007FB06F40CFB06F504EB15464FEA961602
:1011C00034BF00204FF000404FEAD13706FB07FC48
:1011D0004FEA1C4C0CFB0BF7D21B03FB0CF761EB2B
:1011E00007010CFB0EF7B0EB074072EB17420CFB4C
:1011F00008F734BFA2EB0742B2EB074261EB17419D
:101200004FEA0C444FEA910706FB07FC4FEA1C4CDF
:101210000CFB0BF7B0EBC74072EB573203FB0CF73C
:1012200034BFA2EBC742B2EBC74261EB57310CFBB4
:101230000EF7B0EBC70072EB57720CFB08F734BF28
:10124000A2EBC702B2EBC70261EB5771039F4FEAF3
:10125000816141EA921104EBCC044FEAD1374FEAA5
:10126000826206FB07FC42EA90124FEA80604FEA76
:101270001C4C0CFB0BF7D21B03FB0CF761EB0701BB
:101280000CFB0EF7B0EB074072EB17420CFB08F7B4
:1012900034BFA2EB0742B2EB074261EB17414FEAC2
:1012A0008C554FEA910704EB9C2406FB07FC4FEAA0
:1012B0001C4C0CFB0BF7B0EBC74072EB573203FB37
:1012C0000CF734BFA2EBC742B2EBC74261EB573118
:1012D0000CFB0EF7B0EBC70072EB57720CFB08F774
:1012E00034BFA2EBC702B2EBC70261EB577115EB3B
:1012F0004C254FEA816141EA92114FEA82624FEA3E
:10130000D13742EA901206FB07FC44F100044FEA91
:1013100080604FEA1C4C0CFB0BF7D21B03FB0CF755
:1013200061EB07010CFB0EF7B0EB074072EB1742C5
:101330000CFB08F734BFA2EB0742B2EB074261EBAC
:10134000174115EB1C154FEA813141EA92414FEAF2
:10135000823242EA90424FEA80304FEA0C7644F102
:10136000000448EA03434EEA0B484FF0000EB2EB8C
:10137000080C71EB030724BF624639464EEB0E0E94
:101380004FF0000B0018524149414BEB0B0BB2EBF5
:10139000080C71EB03077BF1000B24BF6246394652
:1013A0004EEB0E0E4FF0000B0018524149414BEB33
:1013B0000B0BB2EB080C71EB03077BF1000B24BFA6
:1013C000624639464EEB0E0E51EA020718BF46F050
:1013D000010616EB0E7655F1000254F1000103D51B
:1013E000BDE88901BDE80088BDE88901BDE8004885
:1013F000B619524141EB0101A3F10103704780800E
:101400007F7E7D7C7B7A797877767675747372715E
:1014100071706F6E6E6D6C6C6B6A6A696868676616
:1014200066656464636362616160605F5F5E5E5DA8
:101430005D5C5C5B5B5A5A5959585857575656551C
:1014400055555454535352525251515050504F4F7E
:101450004F4E4E4D4D4D4C4C4C4B4B4B4A4A4A49CE
:101460004949484848474747474646464545454411
:101470004444444343434342424242414141002B9E
:101480009C4630D477002BD01CB54FEA370703B405
:101490004FF010004FF01001BAF1000F06D0BCF170
:1014A000000FDCBF40F0080040F008014FF00000E2
:1014B0000FBCBDE810400BF1010BBBF1010F08BFE1
:1014C0005FEA170722BF12F1010211F101014FF08B
:1014D000004143F1000300F0004043EA0000704780
:1014E000F9D35708D0E746EA064613F1400F4FEA12
:1014F00016461FDD13F1200FDFBF16430A460021F9
:1015000020335B42BED0C3F1200746EA064602FA0A
:1015100007F74FEA164646EA0706C3F1200722FA04
:1015200003F201FA07F721FA03F14FF0000342EA50
:101530000702A7E746EA020646EA06464FEA1646CB
:1015400046EA0106BCBF46EA0646360C4FF00003E9
:101550004FF000024FF0000194E72DE9804C9A46CD
:10156000934670B491E8380007C831EA400C48BF90
:1015700034EA430C03D5FFF7E6FDFFF780FFF0BC2C
:10158000BDE8008C2DE9804C9A46934670B491E8F2
:10159000380007C810F0804F08BF13F0804F03D108
:1015A00000F005F8FFF76BFFF0BCBDE8008C20F001
:1015B0007F4780EA030023F07F4C07EB0C03A3F581
:1015C0007C5300F00040A3F1FE0392F0000F00F006
:1015D000B38095F0000F00F077802DE901494FEAC4
:1015E00011404FEA144621EA004800FB06FC24EAB9
:1015F000064708FB06F607FB08F800FB07F718EBA1
:1016000006484CEB164C4FEA124B18EB07484FEAD2
:1016100015464CEB174022EA0B4E0BFB06FC25EA65
:1016200006470EFB06F607FB0EFE0BFB07F71EEB4D
:10163000064E4CEB164C4FF000061EEB074E4CEBE3
:10164000174B18EB0B0840F1000018EB0E0B58EB92
:10165000000840F100008F1A4FF000013CBFC94361
:10166000661B14BFB5EB040C00213CBFC943F61B3D
:101670004FEA17444EEA8E0E27EA04454FEA1C470C
:1016800004FB07622CEA074C05FB07F70CFB05F689
:1016900004FB0CFC16EB074642EB174216EB0C461C
:1016A00042EB1C421BEB060658EB0202414146EAA4
:1016B0009E0601D5BDE80189B619524141EB0101F1
:1016C000A3F10103BDE801894FEA14454FEA114730
:1016D00024EA054621EA074C05FB07F406FB07F759
:1016E0000CFB06F105FB0CFC11EB074144EB174426
:1016F0004FEA124711EB0C4144EB1C4422EA074C21
:1017000005FB07F206FB07F70CFB06F605FB0CFCD6
:1017100016EB074642EB174216EB0C4642EB1C4514
:101720006A1854F1000148BF7047B619524141EBA5
:101730000101A3F10103704795F0000F37D04FEA84
:1017400011424FEA144721EA024624EA074C02FB01
:1017500007F106FB07F70CFB06F402FB0CFC14EB8D
:10176000074441EB17414FEA154714EB0C4441EB9A
:101770001C4125EA074C02FB07F506FB07F70CFBAB
:1017800006F602FB0CFC16EB074645EB174516EB7D
:101790000C4645EB1C42121951F1000148BF70473D
:1017A000B619524141EB0101A3F1010370474FEA21
:1017B00014454FEA114724EA054621EA074C05FB88
:1017C00007F106FB07F70CFB06F24FF0000605FBDE
:1017D0000CFC12EB074241EB174112EB0C4251EBB0
:1017E0001C4148BF7047921841EB0101A3F101036E
:1017F000704700001CB50121102002F0EFFA022012
:101800008DF8050001208DF8040000208DF80600F9
:10181000702000906946024801F054FB1CBD000096
:101820000010024031B52A4D82B02021284601F037
:101830009CFB1021284601F09AFB00BF00BF00BFAF
:1018400000BF2021284601F092FB00BF102128464E
:1018500001F08DFB00BF00BF2021284601F085FB71
:1018600000218DF800104FF6FF7422E0BDF808004B
:101870004FF040010004284602D501F078FB01E05A
:1018800001F073FB1021284601F06FFB00BF00BF81
:101890001021284601F06BFB00BF00BFBDF8080017
:1018A00004EA4000ADF808009DF80010491C8DF8CE
:1018B00000109DF800001028D8D32021284601F000
:1018C00056FB03B02846BDE83040102101F04FBB65
:1018D0000010024008B54FF47A70ADF80000BDF872
:1018E0000000002803D0BDF80000401EF5E708BD49
:1018F0002DE9F041012188B0080302F093FA022695
:101900008DF8056001270420DFF8AC808DF80470A5
:10191000002400908DF806406946404601F0D2FA56
:101920008DF804608DF8064003208DF80500234EE5
:10193000382500958DF807706946304601F0C2FAE7
:1019400005220321304601F0F9FA05220421304630
:1019500001F0F4FA05221146304601F0EFFA0421B5
:10196000404601F004FBFFF7B5FF0421404601F0BB
:10197000FCFAADF808404FF48270ADF80A00F0149C
:10198000ADF80C00ADF810408010ADF81450ADF873
:101990000E40ADF81200ADF816400720084CADF827
:1019A000180002A9204602F046FD0121204602F05F
:1019B0002DFD08B0BDE8F081000C0240000402409B
:1019C000003001402DE9FF4700258DF80050424CC2
:1019D000424E434FDFF80C81DFF80C91DFF80CA189
:1019E00020E09DF80010012002F0DEFC9DF80010C0
:1019F00024F811002088308060883880A188A8F8F9
:101A00000010E088ADF808002089ADF80C0061896D
:101A1000A9F80010A189AAF800109DF80000401C48
:101A20008DF800009DF800000728DAD3BDF80C10EF
:101A30002F4C6078284ED83606EB4002401C607070
:101A40001180607864281DD165706421304600954E
:101A500000F0B0F9282009E09DF80400009936F85C
:101A60001000084400909DF80400401C8DF804000C
:101A70009DF804003228EFD300980A21B0FBF1F062
:101A80001C490880BDF8082021781348103000EB6D
:101A90004103491C21701A8021781E291AD1257012
:101AA00000958DF804500BE09DF8041030F81110EB
:101AB000009A114400919DF80410491C8DF80410FF
:101AC0009DF804101E29EFD300981E21B0FBF1F001
:101AD00009490880BDE8FF87A00700208800002092
:101AE0008A000020840000207E000020800000206A
:101AF000CA010020860000208200002011B50D4C94
:101B000081B00221204602F08BFC0028F9D0BDF8FC
:101B10000410204602F08DFC0121204602F080FCDA
:101B20000028F9D0204602F082FCADF80000BDF894
:101B300000001CBD00300140F0B501210D029BB03A
:101B4000284602F06FF90121880502F047F940208C
:101B5000032619908DF8686000248DF86B4019A950
:101B60002B4801F0AFF92B480AA9CDE900402A48DB
:101B7000CDE902046420CDE90404A80006904000E9
:101B800007908000CDE908050001012581E83100BA
:101B9000224F0D94694638460E9400F073FF0121E0
:101BA000384600F08FFE01221021384600F054FF25
:101BB00000F019FE174F01214C3F384600F072F833
:101BC00015941694179415A8189400F055F80F94CE
:101BD0008DF840508DF84150129413948DF8506058
:101BE0000FA9384600F07EF800230122062138466E
:101BF00000F09EF80121384600F034F8384600F035
:101C0000D1F80121384600F057F81BB0F0BD0000B4
:101C1000000002404C200140A80400201064024053
:101C20000CB5002000908DF804000C490BE09DF8E5
:101C3000040031F81000009A104400909DF8040050
:101C4000401C8DF804009DF804006428EFD3009830
:101C50003221B0FBF1F0024908800CBDA80400203D
:101C60007C0000200029816802D041F0010101E0E0
:101C700021F0010181607047084B10B5D3F80423AF
:101C800007490A40D0E900142143D0E90240044347
:101C900021431143C3F8041310BD0000002001408C
:101CA000E030FCFF0029816802D041F4807101E03E
:101CB00021F48071816070470029816802D041F46D
:101CC000007101E021F400718160704710B50121BD
:101CD0000C02204602F0B2F82046BDE81040002178
:101CE00002F0ACB830B542680F4B0C791A400B6863
:101CF00042EA04221343436082680C4B4D791A4038
:101D0000D1E9034323438C6844EA45042343134346
:101D10008360C26A097D22F47002491EC9B242EA98
:101D20000151C16230BD0000FFFEFFFCFDF7FFC0A6
:101D300070B5072609290AD9C568A1F10A0404EB80
:101D40004404A640B543A3401D43C56007E00569B0
:101D500001EB4104A640B543A3401D4305611F2389
:101D6000072A09D2446B521E02EB820293409C4325
:101D700091400C43446370BD0D2A09D2046BD21FFD
:101D800002EB820293409C4391400C43046370BD7C
:101D9000C46A0D3A02EB820293409C4391400C438B
:101DA000C46270BD816841F08041816070470088E5
:101DB00040BA70472DE9F043884606460025A1F158
:101DC000010915E00024A8EB05077F1E0DE006EBD6
:101DD000440136F814004988884205D9601C82B253
:101DE000A1B2304603F026FC641CA742EFDC6D1C58
:101DF0004D45E7DBBDE8F083FEE7000070B5094D17
:101E0000FF22134605F5807605E010F8014B54409B
:101E10002A5D5A40335D491E89B2F6D243EA022058
:101E200070BD0000588902082DE9F05F0023FE4EC6
:101E3000DFF8F8C314460127FD4DDFF8FCA3DFF8F7
:101E4000F4B3DFF8F8E3DAF80020DFF8F493D5ED27
:101E5000050A95ED060AD5ED0A2A95ED092A22F024
:101E6000080220B1012874D0022873D051E2F5484D
:101E7000F1B1012920D0022942D0032945D041F2F5
:101E80008838042968D0F04805296DD006297FD00C
:101E9000EE484FF47A78072974D0082973D00929BD
:101EA00072D00A2971D00B2970D00C296FD030E282
:101EB0003770CCF81C3026E0008801EE104AB8EEEE
:101EC000400AF8EE600AB8EE411AC5E9070431EE9F
:101ED000401A00EE100AB8EE400A70EE600A81EE79
:101EE000200A00EE900AB8EE601A00EE904AF8EE72
:101EF000600A8BED000A40EE410ACBED040A97E33D
:101F00003770CCF81C700088C3E3008801EE104ADB
:101F1000B8EE400AF8EE600AB8EE411AC5E90704C7
:101F200031EE401A00EE100AB8EE400A70EE600A78
:101F300081EE200A00EE900AB8EE601A00EE904A98
:101F4000F8EE600A8BED010A40EE410ACBED050A7E
:101F50006EE3E6E02BE3FFE73770BD4840F6AC5197
:101F60000180AEF80080C8E2B9496C610A88AA61B4
:101F70000088C5E9090442F210700880AEF80080BC
:101F8000C7E105E04DE057E063E087E094E0A3E0BF
:101F9000AF49EC6109882962008801EE101AB8EE99
:101FA000400AF8EE600AB8EE411AC5E90B0431EEBA
:101FB000401A00EE104A5D46B8EE400A70EE600A24
:101FC00081EE200A00EE904AB8EE601A00EE901AF8
:101FD000F8EE600A8BED020A40EE410A00EE104A6C
:101FE000B8EE421AB8EE400ACBED060AF8EE620AE5
:101FF00070EE600A00EE100AB8EE400A30EE411AA8
:1020000080EE810A00EE900AB8EE601A00EE904A67
:10201000F8EE600A85ED030A40EE410ACBED070AAF
:102020005CE2CCF81870CCF81C30022100F09DFF67
:102030003770A9F800803CE0CCF81870CCF81C3060
:10204000022100F092FF6C61B9F800104846A961C6
:102050007FE1EC61B9F80000B8EE400A01EE100A29
:10206000F8EE600A2862B8EE411A31EE401A00EE2E
:10207000104AB8EE400A70EE600A81EE200A00EEC7
:10208000904AB8EE601A00EE900AF8EE600A8BED06
:102090000D0A40EE410ACBED1B0A1FE2CCF8187086
:1020A000CCF81C70022100F062FF377041464846B0
:1020B00010E0012102202AE1CCF81870CCF81C7045
:1020C000022100F054FF6C61B9F800104846A96184
:1020D00040F2DC510180ECE7EC61B9F80000B8EEA9
:1020E000400A01EE100AF8EE600A2862B8EE411AC2
:1020F00031EE401A00EE104AB8EE400A70EE600A67
:1021000081EE200A00EE904AB8EE601A00EE900AC6
:10211000F8EE600A8BED0E0A40EE410ACBED1C0A88
:10212000DCE121B3012927D0022933D0DFF8008177
:102130000329D8ED0E3A98ED0D3AD8ED081A98ED2E
:10214000071A36D043484FF40068042967D00529A0
:1021500066D0062965D0072964D0082963D00929EB
:102160007ED03D4F0A297CD00B297BD037E3CCF8B9
:10217000203041F27071C6E0CCF820306C61B9F8C3
:1021800000104846A96135490988C5E90B1445F690
:10219000D8110CE0CCF82030EC61B9F800104846BA
:1021A00029622E490988C5E90D144DF6C021018028
:1021B00015E36C62B9F800702848AF620188B8EE88
:1021C000612AB8EE400AF8EE600AC5E90F1432EE53
:1021D000402AB8EE410A584670EE600A82EE200AA4
:1021E000B8EE412AF8EE610AB8EE411A8BED080A02
:1021F00040EE420A00EE107AB8EE400ACBED160A25
:10220000F8EE610A70EE600A00EE104AB8EE400A7D
:1022100030EE411A80EE810A8BED090A23E06BE073
:1022200078E088E098E0A8E0320000207005002007
:10223000C4000020AC0200203C0000208E000020E2
:1022400090000020840000207E0000200004024056
:102250008C00002000080240800000208200002046
:1022600042E14DE15AE100EE904AB8EE601A00EE0C
:10227000907AF8EE600A40EE410AB8EE431AC0EDDB
:10228000170A95ED0C0AF8EE630AB8EE400A70EEF4
:10229000C00A95ED0B0AB8EE400A31EE401A80EE06
:1022A000810AB8EE431AF8EE630A80ED0F0A40EE99
:1022B000410A00EE104AB8EE431AB8EE400AC0EDEB
:1022C0001D0AF8EE630A70EE600A00EE101AB8EE0E
:1022D000400A30EE411A80EE810A00EE901AB8EE04
:1022E000601A00EE904AF8EE600A80ED100A40EEA7
:1022F000410ACBED1E0AF1E0CCF82070414600F017
:1023000034FE41F66411A9F800103770D1E601F0EF
:102310001BFD64E2CCF82070414600F026FE6C61A3
:10232000B9F800104846A961FB490988C5E90D14B0
:1023300042F6E0613BE7CCF82070414600F015FE24
:10234000EC61B9F8001048462962F3490988C5E9EB
:102350000F1444F620612AE7CCF82070414600F0C3
:1023600004FE6C62B9F800104846A962EA4909887F
:10237000C5E9111446F6781119E7EC62B9F8007056
:10238000E5482F630188B8EE614AB8EE400AF8EEDE
:10239000600AC5E9131434EE404AB8EE410A5846C3
:1023A00070EE600A84EE200AB8EE414AF8EE610A47
:1023B000B8EE411A8BED0A0A40EE440AB8EE620A02
:1023C000CBED180AF8EE610A70EE600AB8EE420A28
:1023D00030EE411A80EE810AB8EE421AF8EE620A37
:1023E0008BED0B0A40EE410A00EE107AB8EE421A6D
:1023F000B8EE432AB8EE400AC0ED190AF8EE620AB8
:1024000070EE600A00EE104AB8EE400A30EE411A53
:1024100080EE810A00EE904AB8EE601A00EE907AE3
:10242000F8EE600A80ED0C0A40EE410AB8EE631A3D
:10243000C0ED1A0A95ED100AF8EE400A70EEC11AC6
:10244000D5ED0F0AB8EE601A31EE422A81EE821AFB
:10245000B8EE602AF8EE401AB8EE400AF8EE600ACC
:1024600080ED111A41EE421AC0ED1F1A95ED121AB5
:10247000F8EE411A71EEC01A95ED110AB8EE402A35
:1024800032EE602AC1EE820AB8EE402AF8EE411A16
:10249000B8EE411AC0ED120A40EEC21A00EE904AA0
:1024A000F8EE600AC0ED201A30EEC11A00EE901A64
:1024B000B8EE400AF8EE600A70EEC00A81EE200A1B
:1024C00000EE901AB8EE601A00EE904AF8EE600A3C
:1024D00080ED130A40EE410ACBED210ACAF8002034
:1024E000337001F021FC7AE18C4940F6AC50088051
:1024F0004FF47A61AEF8001037700121002006E732
:102500006C61BEF800107046A9613988C5E90914EC
:10251000824940F6AC520A80910048E6EC61BEF870
:1025200000002862398801EE100AB8EE400AF8EE81
:10253000600AB8EE411AC5E90B1431EE401A00EEFC
:10254000104A5D46B8EE400A70EE600A81EE200A3D
:1025500000EE904AB8EE601A00EE900AF8EE600ABB
:102560008BED140A40EE410A00EE104AB8EE421A12
:10257000B8EE400ACBED220AF8EE620A70EE600A6D
:1025800000EE101AB8EE400A30EE411A80EE810AD1
:1025900000EE901AB8EE601A00EE904AF8EE600A6B
:1025A00085ED150A40EE410ACBED230A96E75C481B
:1025B000C1B1012919D002297ED0032939D0DFF811
:1025C00064914FF6FF78042957D0052962D0DFF8CF
:1025D0005891062971D0072970D008296CD0092993
:1025E0006DD0FCE0CCF82430D0E0008801EE104A39
:1025F000B8EE400AF8EE600AB8EE411AC5E90704E1
:1026000031EE401A00EE100AB8EE400A70EE600A91
:1026100081EE200A00EE900AB8EE601A00EE904AB1
:10262000F8EE600A8BED240A40EE410ACBED290A50
:10263000D2E0008801EE104AB8EE400AF8EE600AD7
:10264000B8EE411AC5E9070431EE401A00EE100A4F
:10265000B8EE400A70EE600A81EE200A00EE900AA1
:10266000B8EE601A00EE904AF8EE600A8BED250A8B
:1026700040EE410ACBED2A0AAEE03770B9F80010FF
:102680004FF47A72B9F800005143A8EB0000B1FB97
:10269000F0F03EE0B9F800104FF47A77B9F8000096
:1026A0007943A8EB0000B1FBF0F001EE104AC5E958
:1026B0000704B8EE411A03E066E01EE036E068E089
:1026C000B8EE400AF8EE600A31EE401A00EE100A49
:1026D000B8EE400A70EE600A81EE200A00EE900A21
:1026E000B8EE601A00EE904AF8EE600A8BED270A09
:1026F00040EE410ACBED2C0A6EE03770B9F80000CD
:102700004FF47A72B9F800105043A8EB0101B0FB06
:10271000F1F0C5E9050462E0820000208C00002091
:1027200086000020880000208A000020B9F80010F0
:102730004FF47A77B9F80000794301EE104AA8EB1C
:102740000000B1FBF0F0B8EE411AB8EE400AF8EE26
:10275000600AC5E9070431EE401A00EE100AB8EE2F
:10276000400A70EE600A81EE200A00EE900AB8EE90
:10277000601A00EE904AF8EE600A8BED280A40EEEF
:10278000410ACBED2D0A27E0CCF824703770FFF713
:10279000BABB008801EE104AB8EE400AF8EE600AB3
:1027A000B8EE411AC5E9070431EE401A00EE100AEE
:1027B000B8EE400A70EE600A81EE200A00EE900A40
:1027C000B8EE601A00EE904AF8EE600A8BED260A29
:1027D00040EE410ACBED2B0ACAF800203370BDE869
:1027E000F05F05F0D1BC08B538208DF8000003205B
:1027F0008DF801008DF8020001208DF80300684675
:1028000001F04AFA08BD000070B50C4D0C4C294689
:10281000204600F0F7F800280ED02946204600F0A8
:1028200025F80021204600F04DF8064801884906A9
:10283000FCD501880906FCD570BD00000080001899
:10284000586002400048004010B50549054800F0B6
:1028500023F80548016841F00201016010BD000045
:10286000208000101064024038000020074A904287
:1028700001D2074801E005481038064A8B0001EAFA
:10288000020101D5C1607047816070471064024049
:10289000006002407D0F7D0F074A904201D2074839
:1028A00001E005481038064A8B0001EA020101D513
:1028B000C160704781607047106402400060024050
:1028C0007D0F7D0F0029016802D041F0010101E078
:1028D00021F00101016070472DE9F043016821F00A
:1028E000010101600021016041608160C1600161FE
:1028F000212141613C493C4A3D251039904202D199
:102900008D60BDE8F083384A4FF474661832904207
:1029100001D18E60F5E7344A4FF47417303290429B
:1029200001D18F60EDE7304A4FF0746C483290422D
:1029300002D1C1F808C0E4E72B4B2C4A603398421F
:1029400001D1CA60DDE7284C294B7834A04201D17F
:10295000CB60D6E7DFF89080264C08F19008404520
:1029600001D1CC60CDE7DFF880804FF03D5908F110
:10297000A808404502D1C1F80C90C2E71E49DFF813
:1029800078800839404501D10D60BAE71A4D1835F5
:10299000A84201D10E60B4E7174D3035A84201D1ED
:1029A0000F60AEE7144D4835A84202D1C1F800C00F
:1029B000A7E7114D10496035091FA84201D10A60EF
:1029C0009FE70D4A7832904201D10B6099E70A4A9D
:1029D0009032904201D10C6093E7074AA8329042AE
:1029E0008FD1C1F800908CE7106002403D000020BC
:1029F000400F002000003D2010640240406880B27B
:102A00007047000030B5104A0024904201D20F4AAE
:102A100001E00D4A103A0E4B194205D01E2303EA7D
:102A2000D12503682B4002E0406900F08003880054
:102A300001D5506800E01068064A1040084201D0F5
:102A400003B10124204630BD106402400060024002
:102A50003C0F3C0F7D0F7D0F0B0607D5436912B16C
:102A600043F0800301E023F080034361802908D014
:102A7000002A026801F01E0101D00A4300E08A43E7
:102A80000260704730B50368124ACC6813400A6888
:102A90002243D1E905452C432243CC6922430C6AE9
:102AA00022434C6A22438C6A22434C6B22438C6B38
:102AB00022431A430260426922F00703D1E90B2442
:102AC00022431A4342610A6942604A688260896807
:102AD000C16030BD3F801CF0416070471CB50121D2
:102AE000022001F07BF902208DF8050000208DF80E
:102AF000040001208DF8070080020090694602481A
:102B000000F0E0F91CBD0000000402401CB50121EA
:102B1000022001F063F902208DF8050001208DF8F4
:102B2000040000208DF806004FF480600090694694
:102B3000014800F0C7F91CBD00040240704711B500
:102B40004FF47A7402E0204600F007F8BDF8001058
:102B5000481EADF80000F6D218BD01B582B00020C5
:102B6000ADF80000042113E0ADF8041000BF00BF71
:102B700000BF00BF00BFBDF80400401E0004000CF1
:102B8000ADF80400F2D1BDF80000401CADF8000023
:102B9000BDF80000BDF808209042E5D30EBD00004E
:102BA00070B50024FFF79AFF4FF48065124E04E0E1
:102BB000641CE4B20320FFF7D0FF2946304600F042
:102BC000CDF910B1C82CF3D30FE0C82C0DD20024DE
:102BD00004E0641CE4B20320FFF7BFFF294630463F
:102BE00000F0BCF918B1F02C04D3012070BDF02C1A
:102BF000EFD3FAE7002070BD0004024070B500F08A
:102C00009DF800F081F8FFF7CBFFCC2000F0A4F88E
:102C1000BE2000F0A1F800F067F8044600F064F868
:102C2000072805D9C043E143C0B2CCB2002500E07B
:102C3000012504EB002000B205F001FD9FED061B0D
:102C400053EC112B05F012FD05F0CAFC00B2002D6B
:102C500001D1404200B270BD000000000000E43F1E
:102C60007CB502208DF8050001208DF804000020BD
:102C7000094D8DF806004FF480646946284600949B
:102C800000F020F92146284600F071F900F03CF8E8
:102C9000FFF786FF7CBD00000004024070B5FFF71F
:102CA00035FF104D4FF480642146284600F05DF951
:102CB0000520FFF752FF2146284600F058F9FFF79C
:102CC0000DFF1E20FFF749FF2146284600F046F978
:102CD00008B1012400E000247D20FFF73EFF2046DC
:102CE00070BD00000004024070B500250124FFF70C
:102CF000D5FFC001641C40EA5500E4B2C5B2082CFF
:102D0000F5D9284670BD000070B5FFF7FFFE0A4DEB
:102D10004FF480642146284600F027F940F2E24053
:102D2000FFF71BFF2146284600F021F9BDE870405F
:102D30002620FFF712BF00000004024010B5FFF785
:102D4000E3FFFFF72DFFCC2000F006F8BDE81040B0
:102D5000442000F001B800002DE9F0410546FFF7DE
:102D6000D5FE0124124EA70215F0010F4FEA5505BA
:102D7000394630460AD000F0F8F80520FFF7EDFE9E
:102D80003946304600F0F3F8962009E000F0EDF8FF
:102D90009620FFF7E2FE3946304600F0E8F80520BD
:102DA000FFF7DBFE641CE4B2082CDDD9BDE8F0813E
:102DB00000040240064900200860091D0860091D42
:102DC0000860091D08600249024814310860704714
:102DD000003C0140FFFF7F002DE9FC4101211F2045
:102DE00000F0FCFF02248DF805400125A002304FC1
:102DF0008DF80450002600908DF80660694638462C
:102E000000F060F88DF80540A0038DF80460009094
:102E10008DF807506946384600F054F88DF80540A3
:102E200041F202008DF8045000908DF8066069466A
:102E3000204800F047F88DF8054043F6C240DFF81F
:102E400078808DF8045000908DF806606946404601
:102E500000F038F88DF805404FF44050174F8DF8CA
:102E6000045000908DF806606946384600F02AF854
:102E70008DF8054004208DF8045000908DF8066010
:102E800069460F4800F01EF824032146384600F03A
:102E90006EF84021404600F068F84021404600F0BE
:102EA00066F82146404600F062F8BDE8FC8100006B
:102EB000000002400004024000080240000C0240F2
:102EC00000100240F0B5002201274FF0030C0B6800
:102ED00007FA02F52B40AB422CD1066853000CFADE
:102EE00003F4A64306600E79D0F800E09E4046EA5F
:102EF0000E0606600E79012E01D0022E12D18668D0
:102F0000A64386604E79D0F808E09E4046EA0E0659
:102F100086604668AE43466045688E799640B6B294
:102F200035434560C568A543C560CC799C40C368FE
:102F30001C43C460521C102AC9D3F0BD4B07DB0EE2
:102F40009A40C90810B500EB8100016A0F249C402B
:102F5000A1430162016A1143016210BD02460020D3
:102F600012690A4200D001207047418370470183F3
:102F70007047FEE713B582B04FF6FF71ADF8001051
:102F80009DF80C1011B901218DF80C1000234AF2A4
:102F900001029DF80C104C1E8DF80C4022D30178D4
:102FA000BDF800406140ADF800108DF8043013E02A
:102FB000BDF80010C907BDF800104FEA510104D058
:102FC000ADF80010BDF800105140ADF800109DF8AC
:102FD0000410491C8DF804109DF804100829E7D34B
:102FE000401CD6E7BDF8000004B010BD30380A28F8
:102FF00001D3002070470120704700002DE9F04107
:1030000037287DD14FF0006472B665685C4E0021B0
:10301000304603F00CF9304603F01EF9002201217E
:10302000304603F0CDF9E6000021304603F0FFF80A
:10303000304603F011F900220121304603F0C0F9B7
:10304000504E0021304603F0F2F8304603F004F908
:1030500000220121304603F0B3F94B4E00213046E7
:1030600003F0E5F8304603F0F7F80022012130467E
:1030700003F0A6F9454E0021304603F0D8F830465B
:1030800003F0EAF800220121304603F099F9404E9E
:103090000021304603F0CBF8304603F0DDF8002283
:1030A0000121304603F08CF93A4E304604F010FF0F
:1030B00040F2255700223946304604F085FF0021B2
:1030C000304604F092FE344E304604F001FF0022F8
:1030D0003946304604F078FF0021304604F085FE82
:1030E0002E4E304604F0F4FE00223946304604F0FD
:1030F0006BFF0021304604F078FE00F0E3FE00E0B4
:103100003BE0002000F0B2FFFFF754FE4FF0E0205C
:103110000026066100F0D0FF0021601301F042F8A4
:10312000002001F085F872B6432000F0A9FD2A20A6
:1031300000F0A6FD4D2000F0A3FD4C2000F0A0FD06
:10314000FEF7C4FD164F00213846FFF7BBFB0022F7
:1031500010213846FFF780FC00211248FEF7A2FD3F
:1031600072B6206880F3098886F31488206880F39B
:103170000888AC46BDE8F0416047BDE8F08100003A
:10318000000001400004004000080040000C004026
:103190000010004000100140004400400048004082
:1031A00010640240002001402DE9F14F634A2DEDEB
:1031B000028B92F805C0634C0026DFF884912168E9
:1031C0000123614D614F41F04000BCF1050F25D254
:1031D000DFE80CF003192E7B9800C9F818604FF453
:1031E00080513846FFF7C1FE9DF8080038B19DF8C0
:1031F0000800012812D1206840F0400089E02068D2
:1032000020F0400090E09DF8080058B19DF80800BB
:10321000012803D15372107B401C1073BDEC028B4C
:10322000BDE8F88F03205072D07A401CD072F5E7C9
:10323000917A491C91729DF80810DFF814A19FED56
:10324000458ADFF81481B1B39DF808100129E5D152
:10325000C9F82030414991ED000A414981ED000A49
:10326000DFED408A20EE280ABDEEC00A10EE101AEB
:1032700001F57A71A9604FF47A71E960696C69614E
:1032800039490E703949464681ED008A88ED008A39
:103290008AF8003036490B70206080213846FFF7ED
:1032A00064FE686C00EE100AB8EE400AC0EE280A10
:1032B000C6ED000AB2E7FFE700F036FD8AF80060CD
:1032C00088ED008A686C6861A8E79DF80800294CC1
:1032D00078B19DF808000128A0D1B5F86A00A8606F
:1032E000B5F86C00E86004212046FFF740FE02219B
:1032F0001CE002213846FFF738FEAE60EE60042184
:10330000204609E09DF8082062B19DF808100129C7
:1033100084D1206080213846BDEC028BBDE8F84F97
:10332000FFF723BE21F04000802120603846BDEC2D
:10333000028BBDE8F84FFFF71ABE0000C400002062
:1033400070050020380000206403002000080240BF
:10335000240000200000000028000020540000206D
:10336000F801002000007A44D00100202C00002049
:1033700031000020001002402DE9F0473F4C206A48
:10338000DFF8FCA001284FF40061504616D0FFF78B
:10339000EEFDE069DFF8EC9000284FF002014846AE
:1033A0000FD0FFF7E4FDE069374D384E01274FF0AD
:1033B000000848B1E069012813D01FE0FFF7D5FDF0
:1033C000E7E7FFF7D2FDEEE7E86A42F6E061884200
:1033D00014D9307890B9E76102214846FFF7C7FD5C
:1033E0000CE0E86A42F21071884207D2307828B9BE
:1033F000C4F81C8002214846FFF7B7FD606A4FF40D
:103400000051002850460BD0FFF7AFFD204801784F
:1034100049B10178012917D00078022817D017E0A8
:10342000FFF7A5FDF2E7606A18B1606A012806D0CF
:103430000EE0A86BD2280BD9307840B108E0A86B19
:10344000BE2805D2307818B9C4F8248000E067623D
:10345000A0694FF4805150B1A069022807D0A0693B
:10346000012809D15046BDE8F047FFF780BD50461E
:10347000BDE8F047FFF779BDBDE8F0877005002093
:1034800000080240000402406403002032000020D3
:10349000CB0000202DE9F14F414A2DED028B5179EF
:1034A000404D4148E9B3012601296DD002294AD196
:1034B0009DF80810DFF8F4909FED3D8ADFF8F48066
:1034C0003D4C002771B39DF8081001293BD13B49C1
:1034D0008F6181148246FFF748FD606C6061384857
:1034E000DFED398A90ED000A364880ED000A20EEC3
:1034F000280ABDEEC00A10EE100A00F57A70A0602E
:103500004FF47A70E060314807703148474680EDEB
:10351000008A88ED008A89F800602E4806702868C5
:1035200001E014E032E040F0400028608021504685
:10353000FFF71BFD606C00EE100AB8EE400AC0EE0B
:10354000280AC7ED000ABDEC028BBDE8F88F9DF894
:103550000820144909686AB19DF80820012AF2D1AF
:1035600041F0400129608021BDEC028BBDE8F84F9D
:10357000FFF7FBBC21F0400129608021BDEC028BEC
:10358000BDE8F84FFFF7F3BC1672DCE700F0CCFBA8
:1035900089F8007088ED008A606C6061D3E70000F4
:1035A000C400002038000020000802402400002051
:1035B00000000000280000206403002070050020A7
:1035C00054000020F801002000007A44D0010020BF
:1035D0002C0000203100002070B5234A53790021CF
:1035E0000124224D2248052B14D2DFE803F0033AD0
:1035F0002B333A008269AA61AA69022A0BD0C26DF4
:103600004261B0F860200261406944F62062904255
:1036100016D92C6270BD426EDFED160A00EE102A3C
:10362000154AB8EE401AD2ED001A81EE200A80EE5B
:10363000211A21EE200ABCEEC00A10EE102ADFE7A4
:10364000296270BDA9612C624FF47A71C160416C2E
:10365000416170BDA9614FF480510848FFF785FCB6
:10366000D7E7147270BD0000C40000207005002070
:103670006403002000007A44540000200008024047
:103680002DE9F04F2D4E91B04FF0000A86F8A1A021
:1036900096F89E004FF00309082809D1B01CFEF7E8
:1036A00086FB0746301DFEF782FB0546202804D91D
:1036B00086F8A19011B0BDE8F08F00244FF0020B06
:1036C000E84609E008EB4401384600F0CFF9C8B1FC
:1036D0007F1C641CBFB2A4B2AC42F3D396F8A10025
:1036E0000028E7D1154832781E3001210AF8002061
:1036F00072780A546A000BF8002086F8A290002124
:10370000434618E086F8A1B0D4E796F8A24013F833
:103710001120225496F8A22003EB4104521CD2B28D
:1037200086F8A2206478145496F8A220521C491CF2
:1037300086F8A22089B2A942E7D3BBE7040400209F
:1037400010B5124C002084F8A10094F89E000828BF
:1037500001D003200DE0A01CFEF729FB0246201D2E
:10376000FEF725FB0146104600F048FA012803D079
:10377000022084F8A10003E094F8A100002804D0FE
:10378000BDE81040C0B200F0EDB910BD0404002047
:1037900010B5134C002084F8A10094F89E0008286E
:1037A00001D003200DE0A01CFEF701FB0246201D06
:1037B000FEF7FDFA0146104600F0C8F8012803D0D4
:1037C000022084F8A10002E094F8A10020B1BDE835
:1037D0001040C0B200F0C6B9BDE8104000F0D6B944
:1037E0000404002010B5134C002084F8A10094F8C4
:1037F0009E00082801D003200DE0A01CFEF7D7FA98
:103800000246201DFEF7D3FA0146104600F0FAF8F2
:10381000012803D0022084F8A10002E094F8A1005E
:1038200020B1BDE81040C0B200F09CB9BDE8104026
:1038300000F0ACB90404002010B5134C002084F84B
:10384000A10094F89E00082801D003200DE0A01CE0
:10385000FEF7ADFA0246201DFEF7A9FA0146104612
:1038600000F014F8012803D0022084F8A10002E03F
:1038700094F8A10020B1BDE81040C0B200F072B9C8
:10388000BDE8104000F082B9040400202DE9F041A9
:10389000122843D2DFE800F0093F3F3F3F3F3F3F60
:1038A0003F3F3F3F3F3F3F3F3F3F002501241C4EEE
:1038B0001C4FDFF87480012902D004291DD02AE0B2
:1038C0001A49052008701A48B0F86A108160B0F8EB
:1038D0006C10C160816F416134703C70124888F88F
:1038E0000240C01E85704470124804701248047073
:1038F000124941F2883008800DE000F015FA357069
:103900003C7010489FED0E0A88F8025080ED000AC6
:103910000D4880ED000A0120BDE8F0810020FBE7A2
:10392000CA000020CD0000206F000020C900002048
:1039300064030020D3010020D4010020D601002020
:1039400000000000640000206800002070B512280C
:1039500023D2DFE800F00920202020202020202092
:10396000202020202020202000240D480D4D01295A
:1039700002D004290AD00EE004700078FFF72CFE74
:103980000120FFF787FD0120287004E0047000206B
:10399000FFF780FD2C70012070BD002070BD00007D
:1039A000C90000206F00002010B5134C134A94F892
:1039B0009E005060082801D1092151609368116868
:1039C0008B4214D091600E4A117821B1491E11F03A
:1039D000FF0111700BD1002809D0042804D3A0786E
:1039E000A52805D000F0C0FC002084F89E0010BD82
:1039F00003F098F8F8E7000004040020B800002065
:103A00006C00002070B5122825D2DFE800F00922F2
:103A10002222222222222222222222222222222286
:103A200001240E480E4A0F4D012902D0042909D065
:103A30000FE004700C48B0F854108160B0F85610D4
:103A4000C16001E00470002414700120FFF722FD22
:103A50006C70012070BD002070BD0000C900002006
:103A6000CA0000206F0000206403002070B5324AB5
:103A70000D462DED028B13283049314C9FED318AD4
:103A800092ED000A56D2DFE800F00A0E13151D1F52
:103A900036383A3C3A3636363E4447494C0081ED9A
:103AA000020AA06B02E081ED030AE06A80B23AE00C
:103AB000254817E02548DFED260A90ED000A20EEA4
:103AC000200A13E023480DE000F02EF90020606189
:103AD0000A20A4F848002049022008700120FFF7BE
:103AE000D9FC1E4890ED000A20EE080ABDEEC00A7F
:103AF00010EE100ADAE7002015E0E06BD6E70820A8
:103B000011E0206CD2E71648007840F3C010401C4A
:103B100009E0B4F8600006E0E06DC7E7B4F85400CF
:103B200001E0B4F85600010A297068700120BDEC6C
:103B3000028B70BD0020FAE7540000206C000020CA
:103B40006403002000007A445C000020580000203C
:103B50000000C84260000020C900002028000020AA
:103B600048000020084908B50A788DF800204978F7
:103B700041F080018DF801108DF8020003216846A4
:103B800000F016F808BD0000040400201CB5074929
:103B900000206A460B5C1354401CC0B20628F9D3BF
:103BA0000621104600F004F81CBD000004040020AB
:103BB000F0B50C460A46A1B0054601466846FCF73A
:103BC00013FD21462846FEF719F9010A0DF80410E5
:103BD000641CE1B26E460DF80100491CCDB2002410
:103BE000054F05E0315D384604F065FA641CE4B227
:103BF000AC42F7D321B0F0BD0010014030B501EB6D
:103C000081034FF6FF7404EA430301EB81041A4A6F
:103C1000640013282DD2DFE800F00A0C0F111417EE
:103C20001A1D1F2224262A2A2A2A2A2A29009161BB
:103C30001DE0A2F860101AE0D16518E0A2F8543037
:103C400015E0A2F8561012E0A2F86A300FE0A2F8D0
:103C50006C100CE014670AE0A2F8741007E091679A
:103C600005E0D16703E082F8801000E0546601208F
:103C700030BD002030BD000064030020FEE7704727
:103C800000F01F02012191404009800000F1E02076
:103C9000C0F880117047000030B50F23C27801785A
:103CA0000125FAB1144A126801F1E02102F4E06240
:103CB000C2F5E062C2F30722C2F10404D3404278A5
:103CC000A24084781C401443220181F8002400782B
:103CD00000F01F018D404009800000F1E020C0F895
:103CE000005130BD01F01F0085404809800000F1FF
:103CF000E020C0F8805130BD0CED00E002490843DF
:103D000002490860704700000000FA050CED00E071
:103D1000024A1140014302480160704780FFFF1FC3
:103D200008ED00E07047000010B5064C0020207040
:103D30006070217800F008F86178BDE8104002203A
:103D400000F002B83000002003B49DF80000002805
:103D500019D0022817D19DF804300C4A0C4811687C
:103D600053B19DF80430012B0DD141F04001116099
:103D7000802102B0FFF7F9B821F0400111608021E5
:103D800002B0FFF7F4B802B070470000380000201E
:103D9000000802407047000031B50F4C0120062199
:103DA000207061700021A170E0709DF80000217109
:103DB0009DF80000607106212046FFF7DBF8A07136
:103DC00006212046FFF7D6F8000AE071BDE838402A
:103DD000082003F0D5BE0000A0060020044A0029F8
:103DE000116801D0014300E0814311607047000079
:103DF00030380240044A0029116801D0014300E034
:103E0000814311607047000040380240044A002995
:103E1000116801D0014300E0814311607047000048
:103E200020380240044A0029116801D0014300E013
:103E3000814311607047000044380240044A002961
:103E4000116801D0014300E0814311607047000018
:103E50002438024008B500F035F8012000F0D0F811
:103E600000F014F9164908700878012827D10020BD
:103E700000F0E2F8022000F0FFF8002000F0B6F8B1
:103E80004FF4A05000F0C4F84FF4805000F0CAF88E
:103E90000420014600900223A822000500F0D2F879
:103EA000012000F0C9F8392000F07EF80028FAD08F
:103EB000022000F0E1F800F091F80828FBD108BDDD
:103EC000C90100201048016841F0010101600E4A5B
:103ED00000210832116002680C4B1A400260031D79
:103EE0000B4A1A60084B0B4A84331A60084A103A8E
:103EF0001B1D1A60026822F48022026002480C3006
:103F00000160181D0160704700380240FFFFF6EAAB
:103F1000103000240030002070B5204B1968204C70
:103F200011F00C0104D06610042903D0082903D035
:103F300004601BE0066019E0184A121F1168C1F303
:103F40008055116801F03F0115B1B6FBF1F101E0B8
:103F5000B4FBF1F114681268C4F388146143C2F32E
:103F60000142521C5200B1FBF2F1016019680F22AC
:103F700002EA11110B4A545C0168E14041601C687F
:103F8000072505EA9424145D21FA04F484601B6873
:103F900005EA5333D25CD140C16070BD083802409D
:103FA0000024F400140000200246002051090129D9
:103FB0000BD002290CD00849096802F01F02012326
:103FC00093400B4200D00120704703497439F3E756
:103FD0000149091FF0E700007438024002480068F8
:103FE00000F00C007047000008380240034A1168D6
:103FF00021F0F001014311607047000008380240D1
:10400000024900220A70087070470000023802401E
:10401000034A116821F4E051014311607047000028
:1040200008380240034A116821F4604141EAC000A7
:104030001060704708380240014908667047000068
:104040000000474241EA82115A0810B5054B029C14
:1040500003EB02421143014341EA04600249086054
:1040600010BD00000000FFFF043802400149086055
:10407000704700003C0E4742034A116821F00301DB
:1040800001431160704700000838024018B5002055
:104090004FF4A04400903120FFF786FF0099491C9F
:1040A0000091A14201D00028F5D03120FFF77CFF1C
:1040B000002800D0012018BD78B50024284ECA2061
:1040C0000094254630605320306000F04DF8E0B396
:1040D000234824380460224942F201102039086044
:1040E0000B1D186800F0070018608D131A1D10686A
:1040F000009900F00400491C0091A94201D0002859
:10410000F5D01068400729D518681C6014494FF68F
:10411000FF7010390860091F1248086010480C38F9
:104120000460001D0460001D04600D480830046038
:104130000B48183004600A4820300460001D0460F9
:10414000146007481C30046000E003E000F04AF807
:1041500020B10125FF203060284678BD0025F9E711
:1041600024280040FF007F0008B50D490020009082
:104170000868400612D44FF0FF3008608B130868BF
:10418000009A00F04000521C00929A4201D0002890
:10419000F5D00868400601D4002008BD012008BD04
:1041A0000C28004030B50E4DCA222A6053222A60E6
:1041B0000B4C0B4B1C3C1C33002920F004022168E3
:1041C00000F0040004D0114321601968014303E0AA
:1041D00091432160196881431960FF20286030BD38
:1041E0002428004018B50020104B0090CA20186009
:1041F000532018600D491839086820F0A0000860A5
:104200004FF400340868009A00F02000521C00921D
:10421000A24201D00028F5D00868800601D501200F
:1042200000E00020FF21196018BD00002428004094
:1042300018B50021134B0091CA2119605321196050
:1042400010491C390028086803D040F480600860D9
:1042500014E020F4806008600A4918398C1308685B
:10426000009A00F00400521C0092A24201D00028E3
:10427000F5D00868400701D4002000E00120FF21AC
:10428000196018BD2428004017B581B0044604F019
:1042900067F8A02004F02AF804F092F878B9BDF885
:1042A0000800C0B204F022F804F08AF838B904F02B
:1042B00057F8A12004F01AF804F082F8C0B104F015
:1042C0006BF8002004B010BD03F0E0FFBDF8001053
:1042D0006054BDF80010BDF80C00401E814202D0B1
:1042E00003F07AFF01E003F0B9FFBDF80000401CC5
:1042F000ADF80000BDF80000BDF80C108842E3D313
:1043000004F04AF80120DDE710B50E4C0120102121
:104310002070032060700020A070E17020710220E6
:10432000607106212046FEF725FEA0710621204679
:10433000FEF720FE000AE071BDE81040082003F0FF
:104340001FBC0000A00600200122B8210148FFF791
:104350009BBF000050000020B82200210148FFF759
:1043600093BF0000AC0200200D49012008700D48E9
:10437000407850280ED005DC032809D006280DD13E
:10438000FFF7DEB9512807D0522807D1FFF754BAFA
:10439000FFF776B9FFF7FCB9FFF724BA70470000C2
:1043A000160200200404002013B582B00020ADF8EE
:1043B0000000BDF80800BDF80C10400340EAC11031
:1043C00041F659010843ADF80000BDF800004FF672
:1043D000FF7101EA8000ADF800000B4C042120467B
:1043E000FEF7C3FDBDF80000FDF788FBADF8000047
:1043F000FDF770FA04212046FEF7B9FDFDF76AFAD1
:10440000BDF8000004B010BD000C02400029018876
:1044100002D041F0400101E021F0400101807047ED
:104420000246002012890A4200D00120704780898C
:1044300070478181704730B502884C8802F441533F
:104440000A88CD8822438C882C4322430C8922433E
:104450004C8922438C892243CC8922431A4302800F
:10446000828B22F400628283098A018230BD704708
:10447000F0B434490122364E0A700A228A70324D55
:104480009FED320AD6ED000A95ED001A324A60EE31
:10449000800A21EE000A12882E4CFCEEE00ABCEEE7
:1044A000C00AC2F30723D2B228B12C4D012805D08F
:1044B000022808D01CE05020487034E05120487099
:1044C0001BE0887107E05220487025480678A6B1A5
:1044D0000078012827D0206B000EC871206B000CDB
:1044E0000872206B000A4872206B8872CB720A73C4
:1044F000F0BC0D211348FFF75BBBA86A00EB8000FE
:10450000C0F3D710C870A86A00EB800040000871A3
:10451000286B00EB8000C0F3D7104871286B00EBCC
:1045200080004000CDE710EE100A000AC87010EEBF
:10453000100A087110EE900A000A487110EE900AF5
:10454000BFE70000101100205400002000007A4452
:104550005C000020D0010020340000206403002013
:104560006E0000202DE9F04F2DED028BB3B0054613
:1045700000200C463290C8216846FCF710F92078DC
:104580003C2808D1601910F8021C0D2903D110F83D
:10459000010C0A2801D002224EE13C218DF80010C6
:1045A000FEA10DF10100329AFBF78EFE0122FCA163
:1045B0006846FBF79DFF6846FBF7ACFF1FFA80FAE1
:1045C0006846FBF7A7FF024669462046FBF7C1FF96
:1045D0000028E0D1DFF8CCB3804604EB0A0508EBF5
:1045E000C80101EB0B000646FBF794FF00F0FF0942
:1045F000314628464A46FBF7ACFF38B108F10100C6
:1046000000F0FF08B8F1130FE9D3C4E73E20207093
:104610000AEB090085B2DFF88CB3E348DFF88CA31E
:104620004FF00A09ABF1580B6FF02F06B8F1130FDA
:10463000B1D2DFE808F00BBBE4FDFCFB0A0A0A0A72
:104640000A0AFAF9F80A0A0AF700A4E7605D3F28A7
:10465000A1D1DAF82C2056466019D5A1FBF734FE1B
:104660006D1DA8B22C252554401C726B87B2E01931
:10467000D1A1FBF729FEBF1DB8B22554401CB26A78
:1046800087B2E019CAA1FBF71FFE7F1DB8B22554FF
:10469000401C326B87B2E019C5A1FBF715FE7F1DE8
:1046A000B8B22554401CB26B87B2E019C0A1FBF729
:1046B0000BFE7F1DB8B22554401CF26B87B2E01987
:1046C000BFA1FBF701FE3F1DB8B22554401C326C60
:1046D00087B2E019BAA1FBF7F7FD3F1DB8B2255428
:1046E000401C86B2B84890ED000ADFEDB80AA01968
:1046F000B1A120EE200ABDEEC00A10EE102AFBF791
:10470000E3FDB61DB0B2B2492554401C86B20A780A
:10471000A019B0A1FBF7D8FDF61CB0B22554401C7F
:1047200086B29BF80620A019ACA1FBF7CDFD761C44
:10473000B0B2AB492554401C86B20A78A019A7A193
:10474000FBF7C2FD761CB0B2A6492554401C86B2C8
:104750000A78A019A1A1FBF7B7FD761CB0B2A24957
:104760002554401C86B20A78A019A0A1FBF7ACFD25
:10477000B61CB0B29E492554401C86B2B1F9002047
:10478000A01994A1FBF7A0FDF61CB0B299492554DD
:10479000401C85B20A78601990A1FBF795FD6D1C4D
:1047A000A8B20D212154401C80B223E0605D01229B
:1047B0003F281AD000200146635D01EB81016D1C8A
:1047C000401C06EB4101C0B21944ADB29042F3D394
:1047D0005E468BF8051000210220FFF7B5FA002095
:1047E000B07103203072707929E29BF805206019BE
:1047F0007AA12AE004F80090401C85B2FEE3615DD6
:1048000001223F297ED000210846635D00EB800035
:104810006D1C491C06EB4000C9B21844ADB2914270
:10482000F3D306E0ECE3ECE3ECE3ECE3ECE309E2E6
:104830001AE001280DD901222046329900F07CFDB2
:1048400033B0BDEC028BBDE8F08FFBF73DFD6D1C76
:10485000FEE38BF806009BF80600FEF71BFE0D201A
:1048600060556D1CADB2F4E3615D3F29CAD00B2DDC
:104870000DD100200746615D07EB870206EB42027F
:104880006D1C401C8F18C0B2ADB20528F3D3514641
:10489000CAF84470625D6D1C0023A8B22C2A0CD1AA
:1048A0000022255C03EB8303401C521C06EB4303F0
:1048B000D2B22B4480B2052AF3D3A1F84830225C4F
:1048C000401C002380B22C2A0CD10022255C03EB73
:1048D0008303401C521C06EB4303D2B22B4480B22C
:1048E000052AF3D3CB64225C401C002380B22C2A1F
:1048F0000ED10022255C03EB830306EB43032B441C
:10490000401C00E020E2521CD2B280B2032AF1D354
:10491000A1F85030225C401C002380B22C2A0CD11C
:104920000022255C03EB8303401C521C06EB43036F
:10493000D2B22B4480B2052AF3D3A1F85430225CC2
:10494000401C002380B22C2A0CD10022255C03EBF2
:104950008303401C521C06EB4303D2B22B4480B2AB
:10496000052AF3D3A1F85630225C401C002380B204
:104970002C2A0CD10022255C03EB8303401C521C23
:1049800006EB4303D2B22B4480B2052AF3D3A1F83D
:1049900058300023225C401C80B22DE025640000CA
:1049A0002F0000001C0100203100002064030020C3
:1049B000253035640000000025303664000000001A
:1049C00025303464000000002800002000007A44F4
:1049D000D001002025303364000000002531640040
:1049E000D201002016020020CC01002025326400F4
:1049F00034000020D50100202C2A0CD10022255C97
:104A000003EB8303401C521C06EB4303D2B22B443E
:104A100080B2052AF3D3A1F86030225C401C002349
:104A200080B22C2A0CD10022255C03EB8303401CAE
:104A3000521C06EB4303D2B22B4480B2052AF3D3B7
:104A4000CB65225C401C002380B22C2A0CD10022B2
:104A5000255C03EB8303401C521C06EB4303D2B2DC
:104A60002B4480B2052AF3D3A1F86830225C401CA5
:104A7000002380B22C2A0CD10022255C03EB830397
:104A8000401C521C06EB4303D2B22B4480B2052AD1
:104A9000F3D3A1F86A30225C401C002380B22C2A98
:104AA0000CD10022255C03EB8303401C521C06EB57
:104AB0004303D2B22B4480B2052AF3D3A1F86C3061
:104AC000225C401C002380B22C2A0CD10022255CE1
:104AD00003EB8303401C521C06EB4303D2B22B446E
:104AE00080B2052AF3D30B67225C401C002380B2FE
:104AF0002C2A0CD10022255C03EB8303401C521CA2
:104B000006EB4303D2B22B4480B2052AF3D3A1F8BB
:104B10007430225C401C002380B22C2A0CD100226D
:104B2000255C03EB8303401C521C06EB4303D2B20B
:104B30002B4480B2052AF3D38B67225C401C0023F0
:104B400080B22C2A0CD10022255C03EB8303401C8D
:104B5000521C06EB4303D2B22B4480B2052AF3D396
:104B6000CB67225C401C002380B22C2A0CD100228F
:104B7000255C03EB8303401C521C06EB4303D2B2BB
:104B80002B4480B2032AF3D381F88030225C401C8E
:104B9000002580B22C2A0CD10022235C05EB850570
:104BA000401C521C06EB4505D2B21D4480B2032ABC
:104BB000F3D39BF805205B4602B98D61225C401C53
:104BC000002580B22C2A0CD10022275C05EB85053C
:104BD000401C521C06EB4505D2B23D4480B2032A6C
:104BE000F3D3DD71225C401C002580B22C2A0CD14D
:104BF0000022275C05EB8505401C521C06EB450591
:104C0000D2B23D4480B2032AF3D381F85250275CDC
:104C1000401C002285B22C2F0CD10020675D02EBD6
:104C200082026D1C401C06EB4202C0B23A44ADB297
:104C30000628F3D302EB8200400048665879FEF75D
:104C4000CBFC0CE6615D3F297ED00B2D0DD1002001
:104C50000746615D07EB870206EB42026D1C401CB4
:104C60008F18C0B2ADB20228F3D38BF805709BF851
:104C700005000027DFF8789444F62061B8B19BF86E
:104C800005005A46012866D0507902287ED09BF84C
:104C9000050003287BD05079042879D09BF80500C3
:104CA0005946052875D04879062873D0E2E1625D3F
:104CB0006D1CA8B22C2A06D10022401C521CD2B274
:104CC00080B2052AF9D3235C401C002285B22C2B2C
:104CD0000CD10020635D02EB82026D1C401C06EBD0
:104CE0004202C0B21A44ADB20528F3D3CAF8142068
:104CF000DAF814000027884207D90120C9F82000FB
:104D0000C102FC48FEF731F907E00021C9F8201084
:104D10004FF40061F748FEF72AF9605D6D1CADB2F3
:104D20002C280CD10020615D07EB870206EB4202C4
:104D30006D1C8F18401CADB210F0FF00F3D08BF843
:104D400006709BF8060000E026E20028AED10120A4
:104D5000C9F8200020E1615D6D1CA8B22C290CD19E
:104D60000021235C07EB870506EB4505401C491C29
:104D70005F19C9B280B20529F3D35546AAF86A7003
:104D8000215C401C002380B22C2904E027E074E061
:104D9000B2E007E13FE10CD10021275C03EB830384
:104DA000401C491C06EB4303C9B23B4480B20529B1
:104DB000F3D3A5F86C30235C401C002185B22C2B6A
:104DC0000CD10020635D6D1C01EB810106EB4101FC
:104DD000401C1944ADB210F0FF00F3D08AE001206E
:104DE000C9F82000C102C348FEF7BFF8615D6D1C21
:104DF000A8B22C290CD10021225C07EB870306EB1B
:104E00004303401C491CD718C9B280B20529F3D30B
:104E10005346CAF84470215C401C002280B22C2901
:104E20000CD10021255C02EB8202401C491C06EBE0
:104E30004202C9B22A4480B20529F3D3A3F848201C
:104E4000225C401C002185B22C2A0CD10020625D1E
:104E50006D1C01EB810106EB4101401C1144ADB218
:104E600010F0FF00F3D08BF806109BF80600012825
:104E700002D1A14900200870FCE0615D6D1CA8B260
:104E80002C290CD10021235C07EB870506EB450597
:104E9000401C491C5F19C9B280B20529F3D355469D
:104EA000AAF86A70215C401C002380B22C290CD126
:104EB0000021275C03EB8303401C491C06EB4303E2
:104EC000C9B23B4480B20529F3D3A5F86C30235C0A
:104ED000401C002185B22C2B0CD10020635D6D1C81
:104EE00001EB810106EB4101401C1944ADB210F009
:104EF000FF00F3D09171BDE0625D6D1CA8B22C2A59
:104F000006D10022401C521CD2B280B2052AF9D32D
:104F1000235C401C002285B22C2B0CD10020635D49
:104F200002EB82026D1C401C06EB4202C0B21A4426
:104F3000ADB20528F3D3CAF81420DAF8140000271C
:104F4000884207D90121C9F82010C9026948FEF733
:104F50000CF807E00021C9F820104FF40061654803
:104F6000FEF705F8605D6D1CADB22C280CD1002059
:104F7000615D07EB870206EB42026D1C8F18401C37
:104F8000ADB210F0FF00F3D08BF806709BF806006E
:104F9000A8BB0121C9F820104FF400615548FDF766
:104FA000E4FF67E0625D6D1CA8B22C2A06D10022E6
:104FB000401C521CD2B280B2052AF9D3225C401C9C
:104FC00080B22C2A06D10022401C521CD2B280B2E0
:104FD000052AF9D3235C401C002285B22C2B0CD16E
:104FE0000020635D6D1C02EB820206EB4202401C56
:104FF0001A44ADB210F0FF00F3D006E04EE139E004
:105000006CE112E1CFE03CE0AEE08A71887988BBC8
:10501000002088712EE0625D6D1CA8B22C2A06D19A
:105020000022401C521CD2B280B2052AF9D3225C65
:10503000401C80B22C2A06D10022401C521CD2B245
:1050400080B2052AF9D30022235C401C85B201E01E
:1050500021E162E12C2B0CD10020635D6D1C02EB81
:10506000820206EB4202401C1A44ADB210F0FF006F
:10507000F3D08A71FEF758FE9BF80600FEF794F80D
:10508000DFE5605D09233F2819D00122002141B1ED
:10509000052906D06818205CFDF7A8FF012831D04B
:1050A0000022491CC9B29942F1D3012A7FF473AAA4
:1050B000E818205C0D28F9D1002210464BE0B5EE2F
:1050C000C08AF1EE10FA01DB2B2000E02D206055A4
:1050D0006D1CADB218EE100A03F0C6FB41EC100BCC
:1050E000601953EC102B05A1FBF7EEF80935D2E05F
:1050F0007005002000080240D20100202530332E28
:105100003366000002F00102CBE760B1012816D03F
:10511000052805D0615D02EB820206EB42020A44DB
:105120006D1CADB215E0615D303901EB81014900C4
:1051300000EE101A6D1CADB2B8EEC08A09E0615DD8
:105140006D1C303900EE101AADB2B8EEC00A30EE68
:10515000088A401CC0B29842D7D3BCEEC80A10EEF1
:10516000100AC1B200205DE0615D01223F2913D029
:1051700000210846635D00EB80006D1C491C06EBB6
:105180004000C9B21844ADB29142F3D301283FF6B2
:1051900052AB6749087054E502786319AFF2C471E5
:1051A0001846FFF752BB605D08233F2876D00122E6
:1051B000002141B1042906D06818205CFDF716FFD4
:1051C00001280ED00022491CC9B29942F1D3012A0C
:1051D0007FF4E1A9E818205C0D28F9D100221046DF
:1051E00018E002F00102EEE750B1042805D0615D3D
:1051F00002EB820206EB42020A446D1CADB207E0EC
:10520000615D6D1C303900EE101AADB2B8EEC08A87
:10521000401CC0B29842E7D3BCEEC80A10EE100A98
:10522000C1B20120FCF700FE77E0605D06233F2855
:1052300018D00122002141B1042906D06818205C51
:10524000FDF7D4FE01282AD00022491CC9B2994298
:10525000F1D3012ABCD1E818205C0D28B8D1002276
:1052600010462AE0B5EEC08AF1EE10FA01DB2B20E1
:1052700000E02D2060556D1CADB218EE100A03F051
:10528000F3FA41EC100B601953EC102BAFF29411B0
:10529000FBF71AF8AD1DA8B2FFF7ACBA41E002F077
:1052A0000102D2E7615D88B102EB820206EB4202A5
:1052B0006D1C0A44ADB2401CC0B29842F2D3BCEEA1
:1052C000C80A10EE100AC1B20220ABE76D1C3039DB
:1052D00000EE101AADB2B8EEC08AECE7605D3F2870
:1052E0001FD0012100200746625D07EB870306EB14
:1052F00043036D1C401CD718C0B2ADB28842F3D333
:10530000012F3FF698AA0B490120087002F034FFE4
:10531000012F02D13720FDF771FEB8F1130FBFF452
:105320003AA933B06D1CBDEC028BA8B2BDE8F08F7A
:10533000D501002050000020F8B504460020009060
:10534000206016463E2020700A461AA16846FAF7E9
:10535000BBFF6846FBF7DEF80546601C2A46694637
:10536000FBF7C6F86D1CA8B22F212154401C85B252
:10537000012E08D0022E01D0032E15D00826601968
:1053800032460DA103E00926601932460DA1FBF754
:1053900070F9A81980B20D212154401C80B20A2155
:1053A0002154401C80B2F8BD08266019324608A17D
:1053B000EDE7000025640000434D44204552522192
:1053C000000000005041524120455252210000008F
:1053D00052454D204552522100000000044810B5AE
:1053E000B0F86C0000F03AF802490320487210BD92
:1053F00064030020C400002070B50F4CA0790F4D4D
:10540000012809D104212846FDF7B1FD0A20FDF746
:1054100096FBA079FEF7C0FCA07948B9A079FEF709
:10542000BBFC0A20FDF78BFB04212846FDF79DFD00
:105430000020607270BD0000C40000200010024017
:10544000044810B5B0F86A0000F072F80249022072
:10545000487210BD64030020C400002031B5124C16
:1054600001202070062060700020A0703120E070C4
:10547000BDF800100A20B1FBF0F1090A2171BDF856
:105480000010B1FBF0F0607106212046FDF772FDBF
:10549000A07106212046FDF76DFD000AE071BDE810
:1054A0003840082002F06CBBA0060020044810B56C
:1054B000B0F85600FFF7D2FF02490320087210BD72
:1054C00064030020C400002070B5104CA079104D7A
:1054D000012802D0A07958B114E004212846FDF734
:1054E00046FD0A20FDF72BFBA079FEF755FC09E0ED
:1054F000A079FEF751FC0A20FDF721FB0421284684
:10550000FDF733FD0020207270BD0000C4000020B4
:1055100000100240044810B5B0F8540000F008F83C
:1055200002490220087210BD64030020C40000205C
:1055300031B5124C01202070062060700020A07050
:105540003020E070BDF800100A20B1FBF0F1090A2C
:105550002171BDF80010B1FBF0F06071062120460A
:10556000FDF708FDA07106212046FDF703FD000AA6
:10557000E071BDE83840082002F002BBA006002020
:105580000CB50022274900920192086840F480304F
:1055900008604FF4A043086800F4003001900098C0
:1055A000401C0090019810B900989842F3D1086807
:1055B000800334D5012001901A484030026842F03F
:1055C000805202601848026842F440420260154866
:1055D000083002680260026842F400420260026819
:1055E00042F4A0520260031F104A1A600A6842F097
:1055F00080720A600A689201FCD50D4940F205727A
:105600000A60016821F003010160016841F00201B4
:1056100001600168C1F381010229FAD10CBD019238
:105620000CBD0000003802400070004019544007D3
:10563000003C024010B530F8113030F8124020F82C
:10564000114020F8123010BD10B500F0F7FF1248DD
:105650000168491C016011480188491C01800188CA
:105660000022142905D902800D48016841F080010B
:1056700001600C4C0C492068C30702D00B785B1CFE
:105680000B700B78282B05D90A7020F001002060E0
:105690000648027010BD0000180200209200002091
:1056A0003800002048000020C8010020C701002069
:1056B0000D4801684FF4FA70B1FBF0F0401EB0F1F4
:1056C000807F0FD24FF0E0214861084AF02082F835
:1056D000140D0020886107200861086940F001006E
:1056E00008617047FEE70000000000200FE000E0C6
:1056F000114810B5016841F4700101600F4801685C
:1057000041F0010101600D4A002108321160026878
:105710000B4B1A400260031D0A4A1A60026822F409
:105720008022026005480C300160FFF729FF024922
:1057300005488039086010BD88ED00E0003802405F
:10574000FFFFF6FE10300024000002087CB5134E67
:10575000012207213046FDF7F1FB012208213046E6
:10576000FDF7ECFB022480208DF80440002500901A
:105770008DF806508DF8054069463046FDF7A2FBCE
:10578000E0018DF8044000908DF806508DF805403A
:1057900069463046FDF796FB7CBD000000000240E4
:1057A00070B5012188B00846FEF73CFBFFF7CEFF3D
:1057B00004260024F001ADF81C00214DADF8146062
:1057C000ADF8164006948DF81E4005A9284600F055
:1057D000BBFE7020ADF800000120ADF8020045F6D8
:1057E000C050ADF80C40ADF810400290ADF8046028
:1057F000ADF80E40ADF812406946284600F0E8FDCD
:10580000104C48F2E80020800821284600F010FEE5
:105810002188284600F090FE0121284600F0FAFC7D
:105820000121284600F003FD0121284600F009FD72
:1058300020884108284600F081FE08B070BD0000B5
:1058400000000140B40000202DE9F05F2DED048B35
:105850009FEDF78A0121F74800F0A6FD01287CD1D1
:10586000F5480168491C0160F44E3169F448002490
:10587000814200D93461F168814200D9F460F06A54
:1058800010B1F06A401EF062EE4801789FEDEE0A1A
:105890009FEDEE9AEE48DFF8BCB3DFF8BCA301271A
:1058A000DFF8B8834FF47A79062910D2DFE801F0E7
:1058B000033E6A0F0FFD0078012809D0E84880ED0B
:1058C000008A346398F80000012822D03481AFE2C6
:1058D00031694846B1FBF0F209FB12110029F1D100
:1058E00031694945EED3DAED000ADD4820EE891A28
:1058F000C1EE000A90ED000A30EE200A80ED000AA9
:10590000BCEEC00A10EE100A30630020FEF7B0FDB6
:10591000D8E7308940F2E7318842D8D2D1490A88A5
:10592000D14921F81020401C308181E240780128C3
:1059300004D0CB4880ED008A346379E2316948466F
:10594000B1FBF0F209FB12110029C0D131694945C0
:10595000BDD3C648D0ED000A00E0FCE220EE891A73
:10596000BF48C1EE000A90ED000A30EE200A80ED3B
:10597000000ABCEEC00A10EE100A30630120FEF7E8
:1059800077FD55E2BA490878BA4D01284BD1BA489B
:105990000078012847D1584630F8482F008901285F
:1059A00000DA0120B2490978E9B3B44ADAED000A15
:1059B00092ED000AF4EEC00AF1EE10FA01DDC2ED3C
:1059C000000A3169B1FBF0F300FB1311AC4851B987
:1059D00092ED000A80ED000ADBF81430BBF848C0F5
:1059E0006344CBF8143092ED000AA64ADFEDA68A94
:1059F000B5EEC00AF1EE10FA33D070EE600AA34B98
:105A000010EE901A994203DAA1490968914252DADC
:105A100080ED000A20EE280A9E49BDEEC00A10EE75
:105A2000100A000A00E046E001F82B0F10EE100A01
:105A300048708F480470FEF777F92DE0316296EDDB
:105A40000A0A20EE090ABDEEC00A10EE101A01F68D
:105A5000B83120F8541FA0F8029088F800702F7019
:105A600029E08B490968914225DA854880ED000AD2
:105A7000FEF75AF98248874990ED000A20EE280A7D
:105A8000BDEEC00A10EE100A000A01F82B0F10EE4E
:105A9000100A4870764804709BF85210584641B17D
:105AA00090F852104FF47A7200E088E011FB02F196
:105AB000C4E74946C2E7306AB0B1306A401E30627E
:105AC000306A88B988F800400320287072488761DE
:105AD0004FF480517148FDF74AFA7770CBF81040C7
