:020000040802F0
:10000000A817002089020208C33C0208AD2F02088D
:10001000C13C0208D51D020821830208000000002F
:10002000000000000000000000000000B7440208CB
:10003000492B020800000000D93D0208B956020809
:10004000A3020208A3020208A3020208A3020208F4
:10005000A3020208A3020208A3020208A3020208E4
:10006000A3020208A3020208A3020208A3020208D4
:10007000A3020208A302020815280208A30202082C
:10008000A3020208A3020208A3020208A3020208B4
:10009000A3020208A3020208A3020208A3020208A4
:1000A000A3020208A3020208A3020208A302020894
:1000B000A3020208B9580208A3020208A302020818
:1000C000A3020208A3020208A3020208A302020874
:1000D000A3020208A17B0208BD7C0208D57F0208AA
:1000E000A3020208A3020208A3020208A302020854
:1000F000A3020208A3020208A3020208A302020844
:10010000A3020208A30202084D630208A302020828
:10011000A3020208A302020845640208A30202081F
:1001200055280208A3020208A3020208A30202083B
:10013000A3020208A3020208A3020208A302020803
:10014000A3020208A3020208A3020208693D0208F2
:10015000A3020208A3020208A3020208A3020208E3
:10016000A3020208A3020208A3020208A3020208D3
:10017000A3020208A3020208A3020208A3020208C3
:10018000A3020208A302020800F002F800F06CF8D3
:100190000AA090E8000C82448344AAF10107DA45E2
:1001A00001D100F061F8AFF2090EBAE80F0013F0C8
:1001B000010F18BFFB1A43F001031847A08C000081
:1001C000C08C00000A444FF0000C10F8013B13F003
:1001D000070408BF10F8014B1D1108BF10F8015BA0
:1001E000641E05D010F8016B641E01F8016BF9D193
:1001F00013F0080F1EBF10F8014BAD1C0C1B09D1EA
:100200006D1E58BF01F801CBFAD505E014F8016B5B
:1002100001F8016B6D1EF9D59142D6D370470000ED
:100220000023002400250026103A28BF78C1FBD8FF
:10023000520728BF30C148BF0B607047662908F0DD
:10024000B784642900F07C80002070471FB508F057
:10025000AAFC00F08FFD04000020002108F0D8FA6D
:10026000E0601FBD10B510BD00F080FE1146FFF725
:10027000EDFF08F001FA00F09EFE03B4FFF7F2FF75
:1002800003BC00F0E1FE0000094880470948004730
:10029000FEE7FEE7FEE7FEE7FEE7FEE7FEE7FEE736
:1002A000FEE7FEE704480549054A064B7047000093
:1002B0006157020889010208A8110020A817002030
:1002C000A8130020A81300200FB41CB5074B06AAE2
:1002D0007B4469460090059800F0F7FC00206946D1
:1002E00000F006FD1CBC5DF814FB00001D0A0000B8
:1002F00070B5044685690068C10601D5302600E066
:100300002026C00707D070BDD4E9012130469047B0
:10031000206A401C20626D1EF6D570BD70B5044683
:1003200085690078C00707D170BDD4E9012120207C
:100330009047206A401C20626D1EF6D570BD0000FB
:100340002DE9F0410646002410687529314616A5AE
:1003500010D0AFF30080002802DA404213A507E076
:1003600031688A0701D512A502E0490704D511A515
:10037000012401E0AFF3008000210A2206F12407E6
:1003800009E0B0FBF2FCB0FBF2F302FB1C003030E2
:1003900078541846491C0028F3D123462A46304693
:1003A000BDE8F04100F025BA000000002D0000007B
:1003B0002B000000200000002DE9F05F8946044674
:1003C0004FF0000ADFF824B1FB44C0F820A020461B
:1003D000E168884700287DD0252806D0D4E901218E
:1003E0009047206A401C2062F1E700255F462046C6
:1003F000E16888472028064607DB312E05D2B81968
:1004000010F8200C08B10543F1E7A80701D525F045
:100410000405C4F81CA00027C4F818A02A2E09D08F
:10042000304608F009F838B304EB8708303EC8F8C6
:10043000186019E059F8041B204604EB870291610B
:10044000E1688847012F064618D1E069002820DAC4
:1004500025F020051DE0D8F8180000EB800006EB21
:1004600040003038C8F818002046E1688847064642
:1004700007F0E2FF0028EED1012F0AD02E2E08D17E
:100480002046E16888477F1C0646022F45F020057C
:10049000C4DBA069002803DA404245F00105A061F1
:1004A000E80701D025F01005A6B1A6F141001928F2
:1004B00002D8203645F400654A463146204625607C
:1004C0004D46FFF7BBFE60B1012807D0ED1D25F0BA
:1004D000070000E007E000F1080978E705F10409EA
:1004E00075E730467AE7206ABDE8F09FE8890000AA
:1004F00010B5431E13F8014F002CFBD105E011F895
:10050000014B002C03F8014B03D0521EF7D20021FF
:10051000197010BD10B5431C02E010F8011B71B139
:100520008107FAD14FF0013202C88C1A8C4314EAC9
:10053000C211F9D0C01A0A0603D0C01E10BDC01ADD
:1005400010BD0A0401D0801E10BD0902FCD0401E5F
:1005500010BD40EA010370B59B072ED14FF0013664
:10056000042A2AD308C810C99D1B9D43121F15EAEF
:10057000C61517D0D8B2E1B2401A50EA056110D1C1
:1005800098B2A1B2401A50EA05410AD123F07F4047
:1005900024F07F41401A50EA052102D1180EA0EB49
:1005A000146070BDA342DBD018BA21BA884201D9C9
:1005B000012070BD4FF0FF3070BD0AB9002070BD42
:1005C00010F8013B11F8014B63B1A3420AD1521E4E
:1005D00008D010F8013B11F8014B1BB1A34201D127
:1005E000521EEDD1181B70BD032A40F2308010F06E
:1005F000030C00F0158011F8013BBCF1020F6244BE
:1006000098BF11F801CB00F8013B38BF11F8013B4E
:10061000A2F1040298BF00F801CB38BF00F8013BFB
:1006200011F0030300F06780083AC0F0088051F829
:10063000043B083A51F804CBA0E80810F5E7121D76
:100640005CBF51F8043B40F8043BAFF30080D20795
:1006500024BF11F8013B11F801CB48BF11F8012B61
:1006600024BF00F8013B00F801CB48BF00F8012B84
:100670007047431A28BF9A427FF6B6AF032A104448
:10068000114440F2268010F0030F1EBF11F8013D07
:10069000521E00F8013D10F0030F7FF4F6AF11F089
:1006A000030300F03D83083AC0F00B8051F8043D8D
:1006B000083A51F804CD40F8043D40F804CDFFF766
:1006C000F3BF121D5CBF51F8043D40F8043DAFF389
:1006D0000080D20724BF11F8013D11F801CD48BFB9
:1006E00011F8012C24BF00F8013D00F801CD48BFEE
:1006F00000F8012C704710B5203AC0F00B80B1E82B
:100700001850203AA0E81850B1E81850A0E8185046
:10071000BFF4F5AF5FEA027C24BFB1E81850A0E84F
:10072000185044BF18C918C0BDE810405FEA827C69
:1007300024BF51F8043B40F8043B08BF7047D20780
:1007400028BF31F8023B48BF11F8012B28BF20F821
:10075000023B48BF00F8012B70474FF0000204290C
:10076000C0F0128010F0030C00F01B80CCF1040CE0
:10077000BCF1020F18BF00F8012BA8BF20F8022B14
:10078000A1EB0C0100F00DB85FEAC17C24BF00F8BA
:10079000012B00F8012B48BF00F8012B70474FF0E8
:1007A000000200B5134694469646203922BFA0E8C1
:1007B0000C50A0E80C50B1F12001BFF4F7AF0907CD
:1007C00028BFA0E80C5048BF0CC05DF804EB8900BE
:1007D00028BF40F8042B08BF704748BF20F8022B01
:1007E00011F0804F18BF00F8012B70477047704719
:1007F00070472DE9F0470D4699469246044600F1B0
:1008000024080168880604D5E06921F01001216000
:1008100000E00120A84201DD471B00E00027A1699C
:100820007A1902EB0900081AA0612078C00602D4E8
:100830002046FFF75DFD002608E0D4E901211AF803
:1008400006009047206A401C761C20624E45F4DB6F
:100850002078C0060AD52046FFF74AFD06E0D4E915
:10086000012130209047206A401C2062381EA7F1E9
:100870000107F4DC07E0D4E9012118F805009047EE
:10088000206A401C2062281EA5F10105F3DC2046E9
:10089000FFF744FD2078000602D50220BDE8F0876E
:1008A0000120FBE770472DE9FF4F0C461E464FF035
:1008B000FF378BB0D2E90001DDF860800A908A46EC
:1008C000C1F30A5505B93D46002108464FF0000026
:1008D000BAF1000F00F4400005DA00EB80004FF49D
:1008E000400101EA50004FEA9059B9F1010F00DDD3
:1008F000B9460A9850EA4A000ED044F61050A5F2C4
:10090000FF3545432F14B8F1000F1ED07542291E44
:100910001EDDC9F100021CE0B8F1010F4FF000002C
:1009200001D0302103E0F24305E02154401CB042E5
:10093000FBDB30460022002121540B99C1F80880CE
:10094000C1E900200FB0BDE8F08FBD1B6D1CDEE7D4
:100950004A4600DA694206A800F096FA06AB93E828
:10096000070003AB83E8070050460A9900F073FBC9
:100970008DE80700A0F500501F3800900398002D67
:1009800009DD42F21F014A46084403A90390684664
:1009900000F0D2FD08E0A0F500504A461F3803A938
:1009A0000390684600F0DCFD8DE807000004000CB1
:1009B00003D04FF0FF30410800E01046B8F1000FBF
:1009C00003D00022009215461EE0751E05D400F0EB
:1009D000D5F9303262556D1EF9D5B3460122084370
:1009E00002D000227F1C04E02078302801D10022B0
:1009F0007F1E002A099786D01DE0112D07DA00F02E
:100A0000BDF9303262556D1C50EA0102F5D1084340
:100A100002D00098C8B10EE00021681E05E0235CFA
:100A2000625C63542254401E491C8142F7DBAB4692
:100A3000A81B401E0990002004F80B000B98099A8F
:100A4000C0F80880C0E9002B7CE711264FF00008B1
:100A500059E72DE9F04F88460446D21D22F00701E0
:100A600091B0D1E90001CDE90A0107F0CDFC0246C1
:100A70000B98C00F01D02D2007E02068810701D519
:100A80002B2002E0202101EAC000032A099001D0B6
:100A9000072A05DB03464146204600F0B5F90BE185
:100AA0002078800601D5E06900E00620B8F1650FE6
:100AB000814606D0B8F1660F18D0B8F1670F70D133
:100AC00031E00020B9F1110F009001DB112301E0AA
:100AD00009F101030AAA01A90CA8FFF7E4FEDDE968
:100AE0000C70002609F10105834647E001204B46C2
:100AF00000904FF000470AAA01A90CA8FFF7D3FE07
:100B0000DDE90DB00C995D46002610B909F1010030
:100B10000D18B9EB050003D4C0F1FF3609F101054A
:100B2000A5EB09002BE0B9F1010F01DA4FF0010943
:100B30000020B9F1110F0090484601DD112300E0BB
:100B400003460AAA01A90CA8FFF7ADFEDDE90C7067
:100B50004D4600268346207800070AD4AB4500DACC
:100B60005D4601A8012D04DD411911F8011C302951
:100B700007D04F4502DA17F1040F04DA012082464C
:100B80000FE06D1EEEE7002F02DCED1B3E4403E09C
:100B9000781CA84200DD7D1CB81B00F1010A4FF053
:100BA00000472078000703D4AA4501DB4FF0FF3A45
:100BB0000021B7F1004F0DF143088DF8431024D008
:100BC00002202B23002F01DA7F422D230A21021E4F
:100BD000A0F1010000DC5FB197FBF1FC97FBF1F2A3
:100BE00001FB1C7C17460CF1300C08F801CDEEE738
:100BF000A8F1010003702188090501D5452100E015
:100C00006521A0F1010800F8011C09980FA9A1EBCA
:100C10000807FF1D00B10120411901EBEA70A1692D
:100C20003844081A401EA0612078C00602D420462D
:100C3000FFF75EFB099828B1D4E901219047206AAB
:100C4000401C20622078C00622D52046FFF750FBCA
:100C50001EE0002E04DBB34502DD01A8805D00E04C
:100C60003020D4E901219047206A401C2062761C84
:100C7000AAF101005FEA000A0AD100F07BF8C0681F
:100C80000168405CD4E901219047206A401C206241
:100C9000281EA5F10105DCDC07E0D4E9012118F8E4
:100CA000010B9047206A401C2062381EA7F1010703
:100CB000F3DC2046FFF732FB032011B043E60000CF
:100CC00001694A1C02610878704700B58FB0CDE910
:100CD00001310021059105497944CDE90310114600
:100CE0006846FFF769FB0FB000BD0000E5FFFFFF9E
:100CF0000A6802F8010B0A607047431A28BF9A423B
:100D00007FF6F9AC104410F0030F11441EBF11F828
:100D1000013D521E00F8013D10F0030F7FF4F6AFC5
:100D2000103AC0F00A8010B531E91850103A20E9A5
:100D30001850BFF4F9AFBDE81040530724BF31E9A4
:100D4000081020E9081044BF51F8043D40F8043D64
:100D500012F0030F08BF7047D20728BF31F8023DD9
:100D600048BF11F8012C28BF20F8023D48BF00F809
:100D7000012C7047004870476411002030B5B0F175
:100D80000A024FEA900E71F100034EEA817EB0EB49
:100D90000E0061EB91014FEA101E4EEA017E10EB4E
:100DA0000E0041EB11114FEA102E4EEA016E10EBCE
:100DB0000E0041EB11214FEA104E4EEA014E10EBAE
:100DC0000E0041EB1141401841F100014FEAD00003
:100DD00040EA41704FEAD10110EB80054FEA8104EF
:100DE00044EA907444EB01046D1944EB0404521B73
:100DF000A3414FF0000348BF0A3200D530BD401C6C
:100E000041F1000130BD00002DE9F0411F460446CC
:100E100003260168072A01F4006004DB08B116A567
:100E200005E016A503E008B115A500E015A521F021
:100E300010002060A069C01EA0610FB1401EA0611B
:100E40002046FFF755FA4FB1D4E9012138469047C3
:100E5000206A401C2062C01C206206E0206AFAE77B
:100E6000D4E9012115F8010B9047761EF8D22046EF
:100E7000FFF754FABDE8F0814E414E006E616E00FE
:100E8000494E4600696E66002DE9F04781461646D8
:100E90008AB0334878440DC88DE80D003048784456
:100EA000801C03AC0DC884E80D0041F69B3008445B
:100EB000372190FBF1F290FBF1F5A5F1800501FBE4
:100EC00012041B3C02D56442012000E00020DFF840
:100ED00090A080460027FA44AAF1BE0A0DE0E00780
:100EE00009D03246684607EB47010AEB810100F062
:100EF00037FB8DE8070064107F1C002CEFD1184FE2
:100F00007F44AC3F18E0E80714D007EB04100DF164
:100F1000180A90E80E008AE80E00C068F04201D17D
:100F200098190890324606A903A800F019FB03ABF4
:100F300083E807006D10641C002DE4D13246694639
:100F4000B8F1000F03A802D000F0F6FA01E000F0BB
:100F500007FBC9E90001C9F808200AB0BDE8F0871D
:100F6000AC7F000000487047441100207546FFF731
:100F7000F9FFAE4605006946534620F00700854656
:100F800018B020B5FFF78EF9BDE820404FF00006FD
:100F90004FF000074FF000084FF0000B21F0070161
:100FA000AC46ACE8C009ACE8C009ACE8C009ACE8A4
:100FB000C0098D46704710B50446AFF30080204647
:100FC000BDE81040FFF759B94FF0013C50F8042B31
:100FD00051F8043B9A4221D1A2EB0C03934313EA4C
:100FE000CC1317D150F8042B51F8043B9A4215D179
:100FF000A2EB0C03934313EACC130BD150F8042B50
:1010000051F8043B9A4209D1A2EB0C03934313EA33
:10101000CC13DBD04FF00000704700BFD01A01BAEC
:10102000B1FA81F101F0180122FA01F0CB40C1F1CF
:101030002001DBB2C0B2C01A2CFA01F3D11A9143DD
:1010400011EAC311E6D1704701491820ABBEFEE793
:101050002600020070475FEA400C08BF91F0000FC5
:101060004FEA8C234FEAC12243EA51514FEA1C5008
:1010700018BF00F5F0404FEA300018BF41F00041C2
:101080005FEA6C5C00F02980BCF1FF3F08BF40F0D4
:1010900080407047130C06BF12044FF0100C4FF045
:1010A000000C130E04BF12020CF1080C130F04BF46
:1010B00012010CF1040C930F04BF92000CF1020C0E
:1010C000D30F04BF52000CF1010C11464FF0000287
:1010D000A0F11F00A0EB0C00704711F0004F08BFFB
:1010E000704731F000413FF4D5AF0B0C06BF090447
:1010F0004FF0100C4FF0000C0B0E04BF09020CF166
:10110000080C0B0F04BF09010CF1040C8B0F04BF7A
:1011100089000CF1020CCB0F04BF49000CF1010C4B
:10112000CCF12003A0EB0C0022FA03F302FA0CF23C
:1011300041EA030100F10100704720F07F4C80EA92
:10114000030023F07F47ACEB070303F57C5300F06B
:10115000004003F1FF032DE980494FEA154B09B424
:101160004FEA144325EA0B4E24EA03480FF2042603
:1011700006EB132749083E785FEA320203FB066755
:10118000C7F5000707FB06F64FEA54374FEAD64685
:1011900006F1020607FB066CCCF1005C4FEA1C4727
:1011A0002CEA074C07FB06F40CFB06F504EB15468E
:1011B0004FEA961634BF00204FF000404FEAD13777
:1011C00006FB07FC4FEA1C4C0CFB0BF7D21B03FB86
:1011D0000CF761EB07010CFB0EF7B0EB074072EB6D
:1011E00017420CFB08F734BFA2EB0742B2EB0742F1
:1011F00061EB17414FEA0C444FEA910706FB07FCED
:101200004FEA1C4C0CFB0BF7B0EBC74072EB5732AC
:1012100003FB0CF734BFA2EBC742B2EBC74261EB52
:1012200057310CFB0EF7B0EBC70072EB57720CFB9B
:1012300008F734BFA2EBC702B2EBC70261EB5771EC
:10124000039F4FEA816141EA921104EBCC044FEA1B
:10125000D1374FEA826206FB07FC42EA90124FEA5E
:1012600080604FEA1C4C0CFB0BF7D21B03FB0CF706
:1012700061EB07010CFB0EF7B0EB074072EB174276
:101280000CFB08F734BFA2EB0742B2EB074261EB5D
:1012900017414FEA8C554FEA910704EB9C2406FB5B
:1012A00007FC4FEA1C4C0CFB0BF7B0EBC74072EB92
:1012B000573203FB0CF734BFA2EBC742B2EBC74275
:1012C00061EB57310CFB0EF7B0EBC70072EB5772B6
:1012D0000CFB08F734BFA2EBC702B2EBC70261EB0D
:1012E000577115EB4C254FEA816141EA92114FEAA3
:1012F00082624FEAD13742EA901206FB07FC44F1C2
:1013000000044FEA80604FEA1C4C0CFB0BF7D21B29
:1013100003FB0CF761EB07010CFB0EF7B0EB07408A
:1013200072EB17420CFB08F734BFA2EB0742B2EB9B
:10133000074261EB174115EB1C154FEA813141EA79
:1013400092414FEA823242EA90424FEA80304FEABD
:101350000C7644F1000448EA03434EEA0B484FF090
:10136000000EB2EB080C71EB030724BF624639464E
:101370004EEB0E0E4FF0000B0018524149414BEB63
:101380000B0BB2EB080C71EB03077BF1000B24BFD6
:10139000624639464EEB0E0E4FF0000B00185241DC
:1013A00049414BEB0B0BB2EB080C71EB03077BF1E4
:1013B000000B24BF624639464EEB0E0E51EA02077F
:1013C00018BF46F0010616EB0E7655F1000254F1F7
:1013D000000103D5BDE88901BDE80088BDE88901A9
:1013E000BDE80048B619524141EB0101A3F10103E8
:1013F000704780807F7E7D7C7B7A79787776767582
:101400007473727171706F6E6E6D6C6C6B6A6A69F9
:101410006868676666656464636362616160605F93
:101420005F5E5E5D5D5C5C5B5B5A5A59595858570C
:101430005756565555555454535352525251515074
:1014400050504F4F4F4E4E4D4D4D4C4C4C4B4B4BC7
:101450004A4A4A494949484848474747474646460D
:101460004545454444444443434343424242424148
:101470004141002B26D4770021D01CB54FEA370715
:1014800003B44FF010004FF010014FF000000FBCFC
:10149000BDE810400BF1010BBBF1010F08BF5FEA83
:1014A000170722BF12F1010211F101014FF00041B3
:1014B00043F1000300F0004043EA00007047F9D315
:1014C0005708DAE746EA064613F1400F4FEA164698
:1014D0001FDD13F1200FDFBF16430A460021203322
:1014E0005B42C8D0C3F1200746EA064602FA07F776
:1014F0004FEA164646EA0706C3F1200722FA03F22E
:1015000001FA07F721FA03F14FF0000342EA07025C
:10151000B1E746EA020646EA06464FEA164646EABA
:101520000106BCBF46EA0646360C4FF000034FF0FA
:1015300000024FF000019EE72DE9C048934630B409
:1015400091E8380007C831EA400C48BF34EA430C40
:1015500003D5FFF7F2FDFFF78CFFF0BCBDE8008874
:101560002DE9C048934630B491E8380007C810F020
:10157000804F08BF13F0804F03D100F005F8FFF74C
:1015800078FFF0BCBDE8008820F07F4780EA0300C8
:1015900023F07F4C07EB0C03A3F57C5300F00040D5
:1015A000A3F1FE0392F0000F00F0B38095F0000F5E
:1015B00000F077802DE901494FEA11404FEA1446C7
:1015C00021EA004800FB06FC24EA064708FB06F671
:1015D00007FB08F800FB07F718EB06484CEB164C26
:1015E0004FEA124B18EB07484FEA15464CEB1740F1
:1015F00022EA0B4E0BFB06FC25EA06470EFB06F61D
:1016000007FB0EFE0BFB07F71EEB064E4CEB164CD2
:101610004FF000061EEB074E4CEB174B18EB0B0878
:1016200040F1000018EB0E0B58EB000840F10000F1
:101630008F1A4FF000013CBFC943661B14BFB5EBC6
:10164000040C00213CBFC943F61B4FEA17444EEA85
:101650008E0E27EA04454FEA1C4704FB07622CEA7A
:10166000074C05FB07F70CFB05F604FB0CFC16EB1F
:10167000074642EB174216EB0C4642EB1C421BEBB3
:10168000060658EB0202414146EA9E0601D5BDE836
:101690000189B619524141EB0101A3F10103BDE8F3
:1016A00001894FEA14454FEA114724EA054621EA29
:1016B000074C05FB07F406FB07F70CFB06F105FBDF
:1016C0000CFC11EB074144EB17444FEA124711EBB6
:1016D0000C4144EB1C4422EA074C05FB07F206FBD5
:1016E00007F70CFB06F605FB0CFC16EB074642EB76
:1016F000174216EB0C4642EB1C456A1854F10001E8
:1017000048BF7047B619524141EB0101A3F10103F3
:10171000704795F0000F37D04FEA11424FEA144757
:1017200021EA024624EA074C02FB07F106FB07F711
:101730000CFB06F402FB0CFC14EB074441EB1741D5
:101740004FEA154714EB0C4441EB1C4125EA074CCA
:1017500002FB07F506FB07F70CFB06F602FB0CFC89
:1017600016EB074645EB174516EB0C4645EB1C42BE
:10177000121951F1000148BF7047B619524141EBAF
:101780000101A3F1010370474FEA14454FEA1147E5
:1017900024EA054621EA074C05FB07F106FB07F79B
:1017A0000CFB06F24FF0000605FB0CFC12EB0742A7
:1017B00041EB174112EB0C4251EB1C4148BF704703
:1017C000921841EB0101A3F1010370471CB50121FF
:1017D000102002F025FB02208DF8050001208DF875
:1017E000040000208DF80600702000906946024831
:1017F00001F070FB1CBD00000010024031B52A4C06
:1018000082B02021204601F0CDFB1021204601F0BE
:10181000CBFB00BF00BF00BF00BF2021204601F06E
:10182000C3FB00BF1021204601F0BEFB00BF00BF7C
:101830002021204601F0B6FB00208DF800004FF675
:10184000FF7522E0BDF808004FF04001000420467B
:1018500002D501F0A9FB01E001F0A4FB1021204614
:1018600001F0A0FB00BF00BF1021204601F09CFB4F
:1018700000BF00BFBDF8080005EA4000ADF8080051
:101880009DF80000401C8DF800009DF80000102815
:10189000D8D32021204601F087FB03B02046BDE8C5
:1018A0003040102101F080BB0010024008B54FF419
:1018B0007A7000BFADF80000BDF80000002803D02A
:1018C000BDF80000401EF5E708BD00002DE9F0411D
:1018D000012188B0080302F0C7FA02258DF80550EF
:1018E00001260420DFF8AC808DF80460002400900D
:1018F0008DF806406946404601F0ECFA8DF8045038
:101900008DF8064003208DF80500234D38270097F9
:101910008DF807606946284601F0DCFA05220321AC
:10192000284601F028FB05220421284601F023FB6C
:1019300005221146284601F01EFB0421404601F015
:1019400033FBFFF7B3FF0421404601F02BFBADF85A
:1019500008404FF48270ADF80A00E814ADF80C00AE
:10196000ADF810408010ADF81470ADF80E40ADF831
:101970001200ADF816400720084CADF8180002A977
:10198000204602F07CFD0121204602F063FD08B0F4
:10199000BDE8F081000C024000040240003001402C
:1019A0002DE9FF4700258DF80450434C434E444F2A
:1019B000DFF81081DFF81091DFF810A121E000BFFF
:1019C0009DF80410012002F013FD9DF8041024F886
:1019D00011002088308060883880A188A8F8001025
:1019E000E088ADF808002089ADF80C006189A9F8FD
:1019F0000010A189AAF800109DF80400401C8DF881
:101A000004009DF804000728DAD3BDF80C10304C10
:101A10006078294ED83606EB4002401C6070118079
:101A2000607864281ED1657064213046019500F00D
:101A3000B0F928200AE000BF9DF80000019936F8AF
:101A40001000084401909DF80000401C8DF8000033
:101A50009DF800003228EFD301980A21B0FBF1F085
:101A60001C490880BDF8082020781349103101EB8B
:101A70004003401C20701A8020781E281AD125703F
:101A800001958DF800500BE09DF8000031F8100032
:101A9000019A104401909DF80000401C8DF8000050
:101AA0009DF800001E28EFD301981E21B0FBF1F035
:101AB00009490880BDE8FF87C4070020880000208E
:101AC0008A000020840000207E000020800000208A
:101AD000CA010020860000208200002011B50D4CB4
:101AE00081B00221204602F0BFFC0028F9D0BDF8E9
:101AF0000410204602F0C1FC0121204602F0B4FC93
:101B00000028F9D0204602F0B6FCADF80000BDF880
:101B100000001CBD00300140F0B501210D029BB05A
:101B2000284602F0A1F90121880502F079F9402048
:101B3000032619908DF8686000248DF86B4019A970
:101B40002B4801F0C7F92B480AA9CDE900402A48E3
:101B5000CDE902046420CDE90404A8000690400009
:101B600007908000CDE908050001012581E83100DA
:101B7000224F0D94694638460E9400F089FF0121EA
:101B8000384600F0A5FE01221021384600F06AFF19
:101B900000F02FFE174F01214C3F384600F074F83B
:101BA00015941694179415A8189400F057F80F94EC
:101BB0008DF840508DF84150129413948DF8506078
:101BC0000FA9384600F080F800230122062138468C
:101BD00000F0A0F80121384600F036F8384600F051
:101BE000D3F80121384600F059F81BB0F0BD0000D1
:101BF000000002404C200140CC0400201064024050
:101C00000CB5002001908DF800000D490CE000BFDC
:101C10009DF8000031F81000019A104401909DF8E1
:101C20000000401C8DF800009DF800006428EFD3F0
:101C300001983221B0FBF1F0024908800CBD000090
:101C4000CC0400207C0000200029816802D041F0F3
:101C5000010101E021F0010181607047084B10B5DE
:101C6000D3F8042307490A40D0E900142143D0E9FE
:101C70000240044321431143C3F8041310BD000084
:101C800000200140E030FCFF0029816802D041F4CF
:101C9000807101E021F480718160704700298168C2
:101CA00002D041F4007101E021F4007181607047BD
:101CB00010B501210C02204602F0E2F82046BDE8F2
:101CC0001040002102F0DCB830B542680F4B0C79AF
:101CD0001A400B6842EA04221343436082680C4BAB
:101CE0004D791A40D1E9034323438C6844EA450403
:101CF000234313438360C26A097D22F47002491EA4
:101D0000C9B242EA0151C16230BD0000FFFEFFFCD2
:101D1000FDF7FFC070B5072409290AD9C568A1F1EC
:101D20000A0606EB4606B440A543B3401D43C56012
:101D300007E0056901EB4106B440A543B3401D43EC
:101D400005611F23072A09D2446B521E02EB82024F
:101D500093409C4391400C43446370BD0D2A09D2CB
:101D6000046BD21F02EB820293409C4391400C43D0
:101D7000046370BDC46A0D3A02EB820293409C4337
:101D800091400C43C46270BD816841F08041816024
:101D900070472DE9F0430025894680464F1E15E027
:101DA0000024A9EB0506761E0DE008EB440038F888
:101DB00014104088814205D9601C82B2A1B240460D
:101DC00003F070FC641CA642EFDC6D1CBD42E7DB37
:101DD000BDE8F083FEE7000070B5094DFF22134611
:101DE00005F5807606E000BF10F8014B54402A5DEF
:101DF0005A40335D491E89B2F6D243EA022070BDD3
:101E0000B48B02082DE9F05F1546FF4EFF4A00270C
:101E10004FF00108FE4CDFF800C4DFF8F8A3DFF84C
:101E2000FC93DCF80030D4ED050A94ED060AD4EDFD
:101E30000A2A94ED092A23F0080330B14FF4006E0A
:101E400001287CD002287BD054E2F548F9B1012961
:101E500021D04FF00A0B022941D0032949D041F289
:101E60008830042971D0DFF8BCE305297BD006292E
:101E700069D0ED48072967D008296FD009296ED0AD
:101E80000A296DD00B296CD00C296BD032E286F870
:101E90000080D761A9E3008801EE105AB8EE400A2D
:101EA000F8EE600AB8EE411AC4E9070531EE401AAF
:101EB00000EE100AB8EE400A30EE600AC1EE000AE9
:101EC00000EE100AB8EE401A00EE105AB8EE400AC2
:101ED000CAED000A00EEC10A8AED040AABE386F8F7
:101EE0000080C2F81C8000886061B5FBFBF0A06137
:101EF00000E20088B5FBFBF101EE101AB8EE400AD3
:101F0000F8EE600AB8EE411AC4E9070131EE401A52
:101F100000EE100AB8EE400A30EE600AC1EE000A88
:101F200000EE100AB8EE401A00EE101AB8EE400AA1
:101F3000CAED010A00EEC10A8AED050A7BE3EAE078
:101F40002AE302E00FE01BE064E086F80080B74976
:101F500040F6AC520A80B6490880C3E261E06CE00A
:101F600090E09FE0B0E0B14965610A88A261BEF8E7
:101F70000020C4E9092542F210720A80AC49C0E28F
:101F8000AA48E56101882162BEF8000001EE101A3E
:101F9000B8EE400AF8EE600AB8EE411AC4E90B0543
:101FA00031EE401A00EE105A5246B8EE400A30EEBA
:101FB000600AC1EE000A00EE105AB8EE401A00EEB8
:101FC000101AB8EE400ACAED020A00EEC10AF8EE95
:101FD000620A8AED060A00EE105AB8EE400A30EEA8
:101FE000601A00EE100AF8EE420AB8EE400A30EE2F
:101FF000600AC1EE000A00EE100AB8EE401A00EEC8
:10200000105AB8EE400AC2ED030A00EEC10A8AED8A
:10201000070A57E2C2F81880D761022100F0C2FF18
:1020200037E0C2F81880D761022100F0BBFF65617C
:10203000B9F800104846A1617EE1E561B9F80000F9
:10204000B8EE400A01EE100AF8EE600A2062B8EE1F
:10205000411A31EE401A00EE105AB8EE400A30EE46
:10206000600AC1EE000A00EE105AB8EE401A00EE07
:10207000100AB8EE400ACAED0D0A00EEC10A8AED58
:102080001B0A1FE2C2F81880C2F81C80022100F06F
:102090008BFF86F800804FF47A70A9F800000121C8
:1020A000022025E1C2F81880C2F81C80022100F04D
:1020B0007BFFB5FBFBF06061B9F80010A16144F64D
:1020C0002061A9F80010EAE7B5FBFBF1E161B9F87E
:1020D0000000B8EE400A01EE100AF8EE600A206235
:1020E000B8EE411A31EE401A00EE101AB8EE400A6E
:1020F00030EE600AC1EE000A00EE101AB8EE401A87
:1021000000EE100AB8EE400ACAED0E0A00EEC10A4F
:102110008AED1C0AD6E111B3DFF818B1012920D0ED
:10212000022929D03A480329D0ED0E3A90ED0D3A14
:10213000D0ED081A90ED071A2CD004297ED005297D
:102140007DD006297CD007297BD008297AD009299F
:1021500079D039480A2977D00B2976D045E3176220
:10216000BFE017626561B9F800104846A161BBF88D
:102170000010C4E90B15DFE01762E561B9F8001043
:1021800048462162BBF80010C4E90D154EF66021E7
:1021900001802AE36562B9F80020A262BBF8001052
:1021A000B8EE612AB8EE400AF8EE600AC4E90F15ED
:1021B00032EE402AB8EE410A504670EE600A82EED6
:1021C000200AB8EE412AF8EE610A8AED080A40EECC
:1021D000420A00EE102AB8EE400ACAED160AF8EEDE
:1021E000610A70EE601A00EE105AF8EE410AB8EE7D
:1021F000400A30EE600AC1EE800A00EE105AB8EED6
:10220000401ACAED090A21E033000020940500209D
:10221000C4000020C00200203C00002090000020EC
:10222000840000207E000020000402408C0000207A
:102230008E00002082000020800000204BE05AE049
:102240006BE07CE08DE043E14FE15CE100EE102AC1
:10225000B8EE400A00EEC10AF8EE630AB8EE431A7F
:1022600080ED170A94ED0C0AB8EE400A70EEC00A31
:1022700094ED0B0AB8EE400A31EE401A80EE810A66
:10228000B8EE431AF8EE630A80ED0F0A40EE410AF9
:1022900000EE105AB8EE400AC0ED1D0AF8EE630ACF
:1022A00030EE601A00EE101AF8EE430AB8EE400A5B
:1022B00030EE600AC1EE000A00EE101AB8EE401AC5
:1022C00000EE105AB8EE400AC0ED100A00EEC10A46
:1022D0008AED1E0AF6E0C2F820807146F84800F048
:1022E00061FE41F27070A9F8000086F80080D6E621
:1022F00001F04CFD79E2C2F820807146F04800F010
:1023000051FE6561B9F800104846A161BBF80010A4
:10231000C4E90D1542F6E0613AE7C2F82080714643
:10232000E74800F03FFEE561B9F800104846216239
:10233000BBF80010C4E90F1544F6206128E7C2F885
:1023400020807146DE4800F02DFE6562B9F800106D
:102350004846A162BBF80010C4E9111549F6404196
:1023600016E7E562B9F800202263BBF80010B8EE6A
:10237000614AB8EE400AF8EE600AC4E9131534EE7B
:10238000404AB8EE410A504670EE600A84EE200AD8
:10239000B8EE414AF8EE610AB8EE411A8AED0A0A2F
:1023A00040EE440AB8EE620ACAED180AF8EE610A75
:1023B00070EE600AB8EE420A30EE411A80EE810AF1
:1023C000B8EE421AF8EE620A8AED0B0A40EE410AB4
:1023D00000EE102AB8EE400AC0ED190AF8EE620AC3
:1023E00030EE601A00EE105AF8EE420AB8EE432AB8
:1023F000B8EE400A30EE600AC1EE000A00EE105A54
:10240000B8EE401A00EE102AB8EE400AC0ED0C0AF1
:1024100000EEC10AB8EE631A80ED1A0A94ED100AB4
:10242000F8EE400A70EEC11AD4ED0F0AB8EE601A49
:1024300031EE422A81EE821AB8EE602AF8EE401A96
:10244000B8EE400AF8EE600A80ED111A41EE421A29
:10245000C0ED1F1A94ED121AF8EE411A71EEC01A6F
:1024600094ED110AB8EE402A32EE602AC1EE820ADB
:10247000B8EE402AF8EE411AB8EE411AC0ED120A41
:1024800040EEC21A00EE905AF8EE600AC0ED201A33
:1024900030EEC11A00EE901AB8EE400AF8EE600A6B
:1024A00030EEC00AC1EE000A00EE101AB8EE401A73
:1024B00000EE105AB8EE400AC0ED130A00EEC10A51
:1024C0008AED210ACCF80030377001F04FFC8CE126
:1024D0007C4940F6AC5008807B484FF47A6101801B
:1024E00086F800800121002002E7774965610A88AB
:1024F000A2610088C4E90905724A40F6AC50108018
:102500008000088071E17049E561098821620088D6
:1025100001EE101AB8EE400AF8EE600AB8EE411A61
:10252000C4E90B0531EE401A00EE105A5246B8EEDF
:10253000400A30EE600AC1EE000A00EE105AB8EE12
:10254000401A00EE101AB8EE400ACAED140A00EE66
:10255000C10AF8EE620A8AED220A00EE105AB8EEBD
:10256000400A30EE601A00EE100AF8EE420AB8EEA9
:10257000400A30EE600AC1EE000A00EE100AB8EE22
:10258000401A00EE105AB8EE400AC2ED150A00EEED
:10259000C10A8AED230A95E7DFF83091C1B101291C
:1025A00025D0022948D0032950D0DFF824B14FF6B6
:1025B000FF70042974D005296ED0DFF818B1062900
:1025C0006ED0072969D0082968D0092967D00CE1A5
:1025D0004046C246904610627146394800F0E2FC1F
:1025E000C8F8247086F800A0D6E0008864E0B9F846
:1025F000000001EE105AB8EE400AF8EE600AB8EE9C
:10260000411AC4E9070531EE401A00EE100AB8EE8F
:10261000400A30EE600AC1EE000A00EE100AB8EE81
:10262000401A00EE105AB8EE400ACAED240A00EE35
:10263000C10A8AED290AD5E01746C2F82080714602
:102640001F4800F0AFFCC7F82480A3E0B9F80000F1
:1026500001EE105AB8EE400AF8EE600AB8EE411AE0
:10266000C4E9070531EE401A00EE100AB8EE400A40
:1026700030EE600AC1EE000A00EE100AB8EE401A11
:1026800000EE105AB8EE400ACAED250A00EEC10A63
:102690008AED2A0AA6E003E01EE04BE078E07DE048
:1026A00086F80080BBF800204FF47A73BBF8001066
:1026B0005A43401AB2FBF0F0C4E9050595E000006A
:1026C000000802408C0000208E00002086000020C0
:1026D000880000208A000020BBF800204FF47A78A0
:1026E000BBF8001002FB08F201EE105A401AB2FBD0
:1026F000F0F0B8EE411AB8EE400AF8EE600AC4E90C
:10270000070531EE401A00EE100AB8EE400A30EE2E
:10271000600AC1EE000A00EE100AB8EE401A00EEA0
:10272000105AB8EE400ACAED270A00EEC10A8AED37
:102730002C0A57E0BBF800204FF47A78BBF8001061
:1027400002FB08F201EE105A401AB2FBF0F0B8EEAC
:10275000411AB8EE400AF8EE600AC4E9070531EE06
:10276000401A00EE100AB8EE400A30EE600AC1EEE0
:10277000000A00EE100AB8EE401A00EE105AB8EE49
:10278000400ACAED280A00EEC10A8AED2D0A29E0A6
:10279000C2F8248086F80080484626E7B9F8000091
:1027A00001EE105AB8EE400AF8EE600AB8EE411A8F
:1027B000C4E9070531EE401A00EE100AB8EE400AEF
:1027C00030EE600AC1EE000A00EE100AB8EE401AC0
:1027D00000EE105AB8EE400ACAED260A00EEC10A11
:1027E0008AED2B0ACCF800303770BDE8F05F05F0B9
:1027F00003BE08B538208DF8000003208DF80100D5
:102800008DF8020001208DF80300684601F066FA99
:1028100008BD000070B50C4D0C4C2946204600F058
:10282000F7F800280ED02946204600F025F80021B0
:10283000204600F04DF8064801884906FCD501887D
:102840000906FCD570BD00000080001858600240E9
:102850000048004010B50549054800F023F8054838
:10286000016841F00201016010BD000020800010ED
:102870001064024038000020074A904201D2074805
:1028800001E005481038064A8B0001EA020101D533
:10289000C160704781607047106402400060024070
:1028A0007D0F7D0F074A904201D2074801E005489D
:1028B0001038064A8B0001EA020101D5C160704759
:1028C0008160704710640240006002407D0F7D0F00
:1028D0000029016802D041F0010101E021F001016D
:1028E000016070472DE9F043016821F001010160AA
:1028F0000021016041608160C1600161212141616D
:102900003C493C4A3D251039904202D18D60BDE8DA
:10291000F083384A4FF474661832904201D18E60C9
:10292000F5E7344A4FF474173032904201D18F608A
:10293000EDE7304A4FF0746C4832904202D1C1F852
:1029400008C0E4E72B4B2C4A6033984201D1CA609F
:10295000DDE7284C294B7834A04201D1CB60D6E783
:10296000DFF89080264C08F19008404501D1CC60FA
:10297000CDE7DFF880804FF03D5908F1A8084045C9
:1029800002D1C1F80C90C2E71E49DFF878800839FF
:10299000404501D10D60BAE71A4D1835A84201D162
:1029A0000E60B4E7174D3035A84201D10F60AEE795
:1029B000144D4835A84202D1C1F800C0A7E7114D17
:1029C00010496035091FA84201D10A609FE70D4AEE
:1029D0007832904201D10B6099E70A4A90329042D6
:1029E00001D10C6093E7074AA83290428FD1C1F819
:1029F00000908CE7106002403D000020400F002056
:102A000000003D2010640240406880B27047000022
:102A100030B5104A0024904201D20F4B01E00D4B1B
:102A2000103B0E4A114205D01E2202EAD12502684F
:102A30002A4002E0406900F08002880001D5586811
:102A400000E01868064B1840084201D002B101248A
:102A5000204630BD10640240006002403C0F3C0F35
:102A60007D0F7D0F0B0607D5436912B143F080033C
:102A700001E023F080034361802908D0002A026826
:102A800001F01E0101D00A4300E08A430260704752
:102A900030B50368124ACC6813400A682243D1E972
:102AA00005452C432243CC6922430C6A22434C6ADD
:102AB00022438C6A22434C6B22438C6B22431A4381
:102AC0000260426922F00703D1E90B2422431A4332
:102AD00042610A6942604A6882608968C16030BDAB
:102AE0003F801CF0416070471CB50121022001F0BD
:102AF00097F902208DF8050000208DF804000120D0
:102B00008DF80700800200906946024800F0E2F963
:102B10001CBD0000000402401CB50121022001F090
:102B20007FF902208DF8050001208DF804000020B7
:102B30008DF806004FF4806000906946014800F06F
:102B4000C9F91CBD00040240704711B54FF47A74F6
:102B500002E0204600F008F8BDF80010481EADF86D
:102B60000000F6D218BD000001B582B00020ADF81B
:102B70000000042114E000BFADF8041000BF00BF46
:102B800000BF00BF00BFBDF80400401E0004000CE1
:102B9000ADF80400F2D1BDF80000401CADF8000013
:102BA000BDF80000BDF808209042E5D30EBD00003E
:102BB00070B50024FFF798FF4FF48065124E04E0D3
:102BC000641CE4B20320FFF7CFFF2946304600F033
:102BD000E2F910B1C82CF3D30FE0C82C0DD20024B9
:102BE00004E0641CE4B20320FFF7BEFF2946304630
:102BF00000F0D1F918B1F02C04D3012070BDF02CF5
:102C0000EFD3FAE7002070BD0004024070B500F079
:102C10009DF800F081F8FFF7CBFFCC2000F0A4F87E
:102C2000BE2000F0A1F800F067F8044600F064F858
:102C3000072805D9C043E143C0B2CCB2002500E06B
:102C4000012504EB002000B205F027FE9FED061BD6
:102C500053EC112B05F038FE05F0F0FD00B2002D0D
:102C600001D1404200B270BD000000000000E43F0E
:102C70007CB502208DF8050001208DF804000020AD
:102C8000094D8DF806004FF480646946284600948B
:102C900000F020F92146284600F086F900F03CF8C3
:102CA000FFF786FF7CBD00000004024070B5FFF70F
:102CB00033FF104D4FF480642146284600F072F92E
:102CC0000520FFF751FF2146284600F06DF9FFF778
:102CD0000BFF1E20FFF748FF2146284600F05BF956
:102CE00008B1012400E000247D20FFF73DFF2046CD
:102CF00070BD00000004024070B500255FF00104C3
:102D0000FFF7D4FFC001641C40EA5500E4B2C5B22D
:102D1000082CF5D9284670BD70B5FFF7FDFE0A4DA9
:102D20004FF480642146284600F03CF940F2E2402E
:102D3000FFF71AFF2146284600F036F9BDE870403B
:102D40002620FFF711BF00000004024010B5FFF776
:102D5000E3FFFFF72DFFCC2000F006F8BDE81040A0
:102D6000442000F001B800002DE9F0410546FFF7CE
:102D7000D3FE0124124FA60215F0010F4FEA5505AC
:102D8000314638460AD000F00DF90520FFF7ECFE79
:102D90003146384600F008F9962009E000F002F9C3
:102DA0009620FFF7E1FE3146384600F0FDF8052099
:102DB000FFF7DAFE641CE4B2082CDDD9BDE8F0812F
:102DC00000040240064900200860091D0860091D32
:102DD0000860091D08600249024814310860704704
:102DE000003C0140FFFF7F002DE9FC4101211F2035
:102DF00001F016F802248DF805400125A002304F9D
:102E00008DF80450002600908DF80660694638461B
:102E100000F060F88DF80540A0038DF80460009084
:102E20008DF807506946384600F054F88DF8054093
:102E300041F202008DF8045000908DF8066069465A
:102E4000204800F047F88DF8054043F6C240DFF80F
:102E500078808DF8045000908DF8066069464046F1
:102E600000F038F88DF805404FF44050174F8DF8BA
:102E7000045000908DF806606946384600F02AF844
:102E80008DF8054004208DF8045000908DF8066000
:102E900069460F4800F01EF824032146384600F02A
:102EA00083F84021404600F07DF84021404600F084
:102EB0007BF82146404600F077F8BDE8FC81000031
:102EC000000002400004024000080240000C0240E2
:102ED00000100240F0B50023012403270D6804FA16
:102EE00003F21540954242D1D0F800C05E0007FAC7
:102EF00006F52CEA050CC0F800C091F804C0D0F823
:102F000000E00CFA06FC4CEA0E0CC0F800C091F888
:102F100004C0BCF1010F02D0BCF1020F1FD1D0F8E8
:102F200008C02CEA050CC0F808C091F805C0D0F81C
:102F300008E00CFA06FC4CEA0E0CC0F808C0D0F809
:102F400004C02CEA020CC0F804C0426891F806C024
:102F50000CFA03FC1FFA8CFC42EA0C024260C268C5
:102F6000AA43C260CA79C568B2402A43C2605B1CEA
:102F7000102BB3D3F0BD4B07DB0E9A40C90810B538
:102F800000EB8100016A0F249C40A1430162016AA9
:102F90001143016210BD0246002012690A4200D0AE
:102FA000012070474183704701837047FEE70000AE
:102FB00013B582B04FF6FF71ADF800109DF80C10FC
:102FC00011B901218DF80C1000244AF2010300BF51
:102FD0009DF80C104A1E8DF80C2023D30178BDF803
:102FE00000205140ADF800108DF8044014E000BFFF
:102FF000BDF80010C907BDF800104FEA510104D018
:10300000ADF80010BDF800105940ADF800109DF863
:103010000410491C8DF804109DF804100829E7D30A
:10302000401CD5E7BDF8000004B010BD30380A28B8
:1030300001D3002070470120704700002DE9F041C6
:1030400037287DD14FF0006572B66C685C4E002168
:10305000304603F00AFA304603F01CFA0022012140
:10306000304603F0CBFAEE000021304603F0FDF9C4
:10307000304603F00FFA00220121304603F0BEFA79
:10308000504E0021304603F0F0F9304603F002FACA
:1030900000220121304603F0B1FA4B4E00213046A8
:1030A00003F0E3F9304603F0F5F900220121304640
:1030B00003F0A4FA454E0021304603F0D6F930461D
:1030C00003F0E8F900220121304603F097FA404E60
:1030D0000021304603F0C9F9304603F0DBF9002245
:1030E0000121304603F08AFA3A4E304605F026F8C0
:1030F00040F2255700223946304605F09BF8002162
:10310000304604F0A8FF344E304605F017F8002290
:103110003946304605F08EF80021304604F09BFF1A
:103120002E4E304605F00AF800223946304605F0AA
:1031300081F80021304604F08EFF00F0E7FE00E049
:103140003BE0002000F0B6FFFFF73CFE4FF0E02030
:103150000026066100F0D4FF0021681301F046F854
:10316000002001F089F872B6432000F0ABFD2A2060
:1031700000F0A8FD4D2000F0A5FD4C2000F0A2FDC0
:10318000FEF796FD164F00213846FFF7A1FB0022FF
:1031900010213846FFF766FC00211248FEF774FD47
:1031A00072B6286880F3098886F31488286880F34B
:1031B0000888A446BDE8F0416047BDE8F081000002
:1031C000000001400004004000080040000C0040E6
:1031D0000010004000100140004400400048004042
:1031E00010640240002001402DE9F14F63482DEDAD
:1031F000028B90F805C0634D0026DFF884912B68A0
:103200000121614C614F43F04002BCF1050F26D211
:10321000DFE80CF0031A2F7C9800C9F818604FF40F
:1032200080513846FFF7BEFE9DF8080040B19DF87A
:103230000800012813D1286840F04000286089E088
:10324000286820F040008FE09DF808205AB19DF8D2
:103250000820012A03D14172017B491C0173BDEC96
:10326000028BBDE8F88F03214172C17A491CC172FB
:10327000F5E7837A5B1C83729DF80800DFF810A1E4
:103280009FED448ADFF81081B0B39DF80800012853
:10329000E5D1C9F82010414890ED000A404880ED82
:1032A000000ADFED408A20EE280ABDEEC00A10EECB
:1032B000100A00F57A70A0604FF47A70E060606CDC
:1032C0006061394806703948464680ED008A88EDCD
:1032D000008A8AF8001036480170802138462A603A
:1032E000FFF760FE606C00EE100AB8EE400AC0EE18
:1032F000280AC6ED000AB2E7FFE700F037FD8AF8BA
:10330000006088ED008A606C6061A8E79DF80800A5
:10331000284D70B19DF808000128A0D1E06EA06092
:10332000B4F87000E06004212846FFF73DFE02215A
:103330001CE002213846FFF735FEA660E660042156
:10334000284609E09DF8080060B19DF808000128B2
:1033500085D12A6080213846BDEC028BBDE8F84F4C
:10336000FFF720BE23F04000802128603846BDECE6
:10337000028BBDE8F84FFFF717BE0000C400002025
:103380009405002038000020780300200008024047
:10339000240000200000000028000020540000202D
:1033A000F801002000007A44D00100202C00002009
:1033B00032000020001002402DE9F0473F4C206A07
:1033C000DFF8FCA001284FF40061504616D0FFF74B
:1033D000EBFDE069DFF8EC9000284FF00201484671
:1033E0000FD0FFF7E1FDE069374D384E01274FF070
:1033F000000848B1E069012813D01FE0FFF7D2FDB3
:10340000E7E7FFF7CFFDEEE7E86A42F6E0618842C2
:1034100014D9307890B9E76102214846FFF7C4FD1E
:103420000CE0E86A42F21071884207D2307828B97D
:10343000C4F81C8002214846FFF7B4FD606A4FF4CF
:103440000051002850460BD0FFF7ACFD2048017812
:1034500049B10178012917D00078022817D017E068
:10346000FFF7A2FDF2E7606A18B1606A012806D092
:103470000EE0A86BD2280BD9307840B108E0A86BD9
:10348000BE2805D2307818B9C4F8248000E06762FD
:10349000A0694FF4805150B1A069022807D0A069FB
:1034A000012809D15046BDE8F047FFF77DBD5046E1
:1034B000BDE8F047FFF776BDBDE8F0879405002032
:1034C000000802400004024078030020330000207E
:1034D000CB0000202DE9F14F41492DED028B4A79B7
:1034E000404D4148EAB30126012A6DD0022A4AD153
:1034F0009DF80810DFF8F4909FED3D8ADFF8F48026
:103500003D4C002771B39DF8081001293BD13B4980
:103510008F6181148246FFF745FD606C6061384819
:10352000DFED398A90ED000A364880ED000A20EE82
:10353000280ABDEEC00A10EE100A00F57A70A060ED
:103540004FF47A70E060314807703148474680EDAB
:10355000008A88ED008A89F800602E480670286885
:1035600001E014E032E040F0400028608021504645
:10357000FFF718FD606C00EE100AB8EE400AC0EECE
:10358000280AC7ED000ABDEC028BBDE8F88F9DF854
:103590000820144909686AB19DF80820012AF2D16F
:1035A00041F0400129608021BDEC028BBDE8F84F5D
:1035B000FFF7F8BC21F0400129608021BDEC028BAF
:1035C000BDE8F84FFFF7F0BC0E72DCE700F0CEFB71
:1035D00089F8007088ED008A606C6061D3E70000B4
:1035E000C400002038000020000802402400002011
:1035F000000000002800002078030020940500202F
:1036000054000020F801002000007A44D00100207E
:103610002C0000203200002070B5224A537900218E
:103620000125214C2148052B13D2DFE803F0033993
:103630002A3239008269A261A269022A0AD0C26DC7
:103640004261026E0261406943F69822904216D9A7
:10365000256270BD426E00EE102A164AB8EE401A7E
:103660009FED130AD2ED001AC1EE000A80EEA11AF6
:1036700021EE000ABCEEC00A10EE102AE0E721623B
:1036800070BDA16125624FF47A71C160416C4161E6
:1036900070BDA1614FF480510748FFF783FCD7E765
:1036A000157270BDC400002094050020780300202E
:1036B00000007A4454000020000802402DE9F04F39
:1036C0002D4C91B04FF0000A84F8A1A094F89E0010
:1036D0000326082806D1608890FA90F8A08845BA99
:1036E000202D04D984F8A16011B0BDE8F08F002727
:1036F0004FF0020BE9460BE009EB4701404600F0B2
:10370000D5F9D8B108F101007F1C1FFA80F8BFB2CB
:10371000AF42F1D394F8A1000028E5D116492278F0
:103720001E3101200AF80120627842546A000BF829
:10373000012084F8A26000204A4619E084F8A1B074
:10374000D2E700BF94F8A26012F81030735494F8D6
:10375000A23002EB40065B1CDBB284F8A230767824
:103760005E5494F8A2305B1C401C84F8A23080B2F6
:10377000A842E7D3B8E700002804002010B5104C99
:10378000002084F8A10094F89E00082801D00320AE
:1037900008E06088A18840BA49BA00F04DFA0128D3
:1037A00003D0022084F8A10003E094F8A1000028CF
:1037B00004D0BDE81040C0B200F0F2B910BD000066
:1037C0002804002010B5114C002084F8A10094F8C2
:1037D0009E00082801D0032008E06088A18840BA34
:1037E00049BA00F0D1F8012803D0022084F8A100E2
:1037F00002E094F8A10020B1BDE81040C0B200F092
:10380000CFB9BDE8104000F0DFB900002804002067
:1038100010B5114C002084F8A10094F89E000828EF
:1038200001D0032008E06088A18840BA49BA00F0BE
:103830000BF9012803D0022084F8A10002E094F8DB
:10384000A10020B1BDE81040C0B200F0A9B9BDE8A8
:10385000104000F0B9B900002804002010B5114C48
:10386000002084F8A10094F89E00082801D00320CD
:1038700008E06088A18840BA49BA00F015F801282C
:1038800003D0022084F8A10002E094F8A10020B146
:10389000BDE81040C0B200F083B9BDE8104000F0B0
:1038A00093B90000280400202DE9F04712284ED2D9
:1038B000DFE800F0094A4A4A4A4A4A4A4A4A4A4A1A
:1038C0004A4A4A4A4A4A00240125224E224FDFF83A
:1038D0008C80DFF88C90DFF88CA0012902D00429BD
:1038E00020D031E02049052008702048C16E816059
:1038F000B0F87010C160C16F416135703D701748FC
:1039000088F80250C01E8470457019480570194827
:103910000570C9F80040CAF80040174941F28830E4
:10392000088011E000F022FA34703D7014489FEDD9
:10393000130A88F8024080ED000A124880ED000A60
:10394000C9F80040CAF800400120BDE8F087002017
:10395000FBE70000CA000020CD0000206F0000201F
:103960000402002008020020C90000207803002083
:10397000D3010020D4010020D60100200000000067
:10398000640000206800002070B5122826D2DFE80D
:1039900000F0092323232323232323232323232367
:1039A0002323232300240E480E4D0F4E012902D05D
:1039B00004290BD010E004700078FFF72DFE0120E1
:1039C000FFF788FD01202870307005E004700020AA
:1039D000FFF780FD2C703470012070BD002070BD99
:1039E000C9000020CA0000206F00002010B5134C51
:1039F000134894F89E104160082901D109224260C1
:103A000083680268934214D082600E4A107820B115
:103A1000401E10F0FF0010700BD1002909D00429BE
:103A200004D3A078A52805D000F0C2FC002084F8BB
:103A30009E0010BD03F0A8F9F8E70000280400205C
:103A4000B80000206C00002070B5122824D2DFE8F6
:103A500000F00921212121212121212121212121C0
:103A60002121212101240D480D4A0E4D012902D0AA
:103A7000042908D00EE004700B48416D8160B0F855
:103A80005810C16001E00470002414700120FFF799
:103A900021FD6C70012070BD002070BDC9000020A8
:103AA000CA0000206F0000207803002070B5314A62
:103AB0000D462DED028B13282F49304C9FED308A97
:103AC00092ED000A53D2DFE800F00A0E13151D1F15
:103AD000393B3D3F3D39393941434547490081ED47
:103AE000020AA06B02E081ED030AE06A80B237E0CF
:103AF00024481AE02448DFED250A90ED000A20EE64
:103B0000200A16E0224810E000F030F90020606141
:103B10000A20A4F848001F49012008701E4902200D
:103B200008700120FFF7D6FC1C4890ED000A20EE3B
:103B3000080ABDEEC00A10EE100AD7E700200FE019
:103B4000E06BD3E708200BE0206CCFE7A069CDE75E
:103B5000206ECBE7E06DC9E7606DC7E7B4F85800A9
:103B6000010A297068700120BDEC028B70BD002035
:103B7000FAE70000540000206C00002078030020C9
:103B800000007A445C000020580000200000C84279
:103B900060000020CA000020C9000020280000208A
:103BA000084908B50A788DF80020497841F080016D
:103BB0008DF801108DF802000321684600F016F818
:103BC00008BD0000280400201CB5074A00206946F3
:103BD000135C0B54401CC0B20628F9D3062168467A
:103BE00000F004F81CBD000028040020F0B50C46CD
:103BF0000A46A1B0054601466846FCF7F5FC214699
:103C00002846FEF7E9F8010A0DF80410641CE1B239
:103C10006D460DF80100491CCEB20024054F05E0A9
:103C2000295D384604F07DFB641CE4B2B442F7D34E
:103C300021B0F0BD0010014030B501EB810301EB74
:103C400041041E4A5B006400152835D2DFE800F00D
:103C50000B0D0F111316181B1D202225323228328E
:103C600032322B2D3000916124E0116622E0D365C1
:103C700020E053651EE0A2F858101BE0D36619E05F
:103C8000A2F8701016E0536714E0A2F8781011E063
:103C9000D3670FE0C2F880100CE082F8841009E0CE
:103CA000A2F8861006E0536604E0C2F8A84001E0DE
:103CB000C2F8AC40012030BD002030BD78030020A8
:103CC000FEE7704700F01F0201219140400980008B
:103CD00000F1E020C0F880117047000030B50F22DD
:103CE000C47801780123FCB1144C246801F1E0216F
:103CF00004F4E064C4F5E064C4F30724C4F10405EB
:103D0000E2404478AC408578154025432A0181F88B
:103D10000024007800F01F018B404009800000F172
:103D2000E020C0F8003130BD01F01F008340480999
:103D3000800000F1E020C0F8803130BD0CED00E0E3
:103D40000249084302490860704700000000FA0574
:103D50000CED00E0024A1140014302480160704747
:103D600080FFFF1F08ED00E07047000010B5064C13
:103D700000206070A070617800F008F8A178BDE8BC
:103D80001040022000F002B83000002003B49DF87B
:103D90000000002819D0022817D19DF804300C49E2
:103DA0000C480A6853B19DF80430012B0DD142F044
:103DB00040020A60802102B0FFF7F4B822F040020E
:103DC0000A60802102B0FFF7EFB802B07047000030
:103DD00038000020000802407047000031B50F4C49
:103DE00001200621207061700021A170E0709DF813
:103DF000000021719DF80000607106212046FFF748
:103E0000D7F8A07106212046FFF7D2F8000AE0712A
:103E1000BDE83840082003F0E9BF0000C4060020D8
:103E2000044A0029116801D0014300E08143116078
:103E30007047000030380240044A0029116801D060
:103E4000014300E0814311607047000040380240A8
:103E5000044A0029116801D0014300E08143116048
:103E60007047000020380240044A0029116801D040
:103E7000014300E081431160704700004438024074
:103E8000044A0029116801D0014300E08143116018
:103E9000704700002438024008B500F037F80120D0
:103EA00000F0D2F800F016F91749087008780128D8
:103EB00028D1002000F0E4F8022000F001F90020F1
:103EC00000F0B8F84FF4A05000F0C6F84FF480505E
:103ED00000F0CCF80420014600900223A82200053F
:103EE00000F0D4F8012000F0CBF8392000F080F881
:103EF0000028FAD0022000F0E3F800BF00F092F8AA
:103F00000828FBD108BD0000C90100201048016845
:103F100041F0010101600E4A00210832116002687F
:103F20000C4B1A400260031D0B4A1A60084B0B4AE7
:103F300084331A60084A103A1B1D1A60026822F482
:103F40008022026002480C300160181D0160704739
:103F500000380240FFFFF6EA103000240030002055
:103F600070B5204A1168204C11F00C0104D0661085
:103F7000042903D0082903D004601BE0066019E07F
:103F80001849091F0B68C3F380550B6803F03F0302
:103F900015B1B6FBF3F301E0B4FBF3F30C68096869
:103FA000C4F388146343C1F30141491C4900B3FBC6
:103FB000F1F1016011680F2303EA11110B4B5C5CF6
:103FC0000168E14041601468072505EA94241C5DFE
:103FD00021FA04F48460126805EA52329A5CD140F6
:103FE000C16070BD083802400024F40014000020B5
:103FF00002460020510901290BD002290CD00849A2
:10400000096802F01F02012393400B4200D00120F7
:10401000704703497439F3E70149091FF0E70000CD
:10402000743802400248006800F00C00704700003D
:1040300008380240034A116821F0F0010143116081
:104040007047000008380240024900220A700870D8
:104050007047000002380240034A116821F4E05121
:1040600001431160704700000838024003490A68A4
:1040700022F4604242EAC0000860704708380240FB
:1040800001490866704700000000474241EA82117A
:104090005A0810B5054B029C03EB02421143014341
:1040A00041EA04600249086010BD00000000FFFF03
:1040B0000438024001490860704700003C0E474246
:1040C000034A116821F003010143116070470000A9
:1040D0000838024018B500204FF4A0440090312069
:1040E000FFF786FF0099491C0091A14201D00028EA
:1040F000F5D03120FFF77CFF002800D0012018BD4B
:1041000078B50024284ECA200094254630605320FC
:10411000306000F04DF8E0B32348243804602249B1
:1041200042F2011020390860091D086800F00700FC
:1041300008608D13081D0268009B02F004025B1CDE
:104140000093AB4201D0002AF5D00268520729D56E
:104150000A680C60144A4FF6FF71103A1160121F82
:104160001249116010490C390C60091D0C60091DC1
:104170000C600D4908310C600B4918310C600A497C
:1041800020310C60091D0C60046007481C3004607D
:1041900000E003E000F04AF820B10125FF20306084
:1041A000284678BD0025F9E724280040FF007F005D
:1041B00008B5002000900C480168490612D44FF061
:1041C000FF31016083130168009A01F04001521C25
:1041D00000929A4201D00029F5D00068400601D42F
:1041E000002008BD012008BD0C28004030B50E4D50
:1041F000CA222A6053222A600B4B0B4A1C3B1C32FA
:10420000002920F00404196800F0040004D02143C0
:1042100019601168014303E0A143196011688143EB
:104220001160FF20286030BD2428004018B5002010
:1042300010490090CA200860532008600D481838C3
:10424000026822F0A00202604FF400340268009B72
:1042500002F020025B1C0093A34201D0002AF5D09B
:104260000068800601D5012000E00020FF220A60DE
:1042700018BD00002428004018B50021134A009101
:10428000CA2111605321116010491C3900280868A7
:1042900003D040F48060086014E020F4806008607F
:1042A0000A48183884130168009B01F004015B1C64
:1042B0000093A34201D00029F5D00068400701D443
:1042C000002000E00120FF21116018BD24280040DB
:1042D00017B581B0044604F07DF9A02004F03EF942
:1042E00004F0A8F978B9BDF80800C0B204F036F9B6
:1042F00004F0A0F938B904F06DF9A12004F02EF90A
:1043000004F098F9C0B104F081F9002004B010BDA8
:1043100004F0F4F8BDF800106054BDF80010BDF8CA
:104320000C00401E814202D004F08EF801E004F03F
:10433000CDF8BDF80000401CADF80000BDF800004D
:10434000BDF80C108842E3D304F060F90120DDE7EA
:1043500010B50E4C01201021207003206070002049
:10436000A070E17020710220607106212046FEF7E6
:104370001FFEA07106212046FEF71AFE000AE0711A
:10438000BDE81040082003F031BD0000C406002045
:104390000122B8210148FFF79BBF00005000002018
:1043A000B82200210148FFF793BF0000C00200209F
:1043B0000D49012008700D48407850280ED005DCCA
:1043C000032809D006280DD1FFF7D8B9512807D006
:1043D000522807D1FFF742BAFFF770B9FFF7F2B9D9
:1043E000FFF716BA704700002802002028040020BA
:1043F00013B582B00020ADF80000BDF80800BDF88C
:104400000C10400340EAC11041F659010843ADF8D1
:104410000000BDF800004FF6FF7101EA8000ADF822
:1044200000000B4C04212046FEF7BCFDBDF8000047
:10443000FDF754FBADF80000FDF738FA04212046E3
:10444000FEF7B2FDFDF732FABDF8000004B010BD72
:10445000000C02400029018802D041F0400101E037
:1044600021F04001018070470246002012890A4273
:1044700000D001207047808970478181704730B536
:1044800002884C8802F441530A88CD8822438C88E4
:104490002C4322430C8922434C8922438C8922439A
:1044A000CC8922431A430280828B22F400628283E9
:1044B000098A018230BD7047F0B444490122444E5C
:1044C0000A700C228A70DFED430A434F96ED001A02
:1044D000434B97ED000A414A1B8820EE200A61EE0B
:1044E000200AC3F30725DCB2BCEEC00AFCEEE00AEA
:1044F00028B13C4B012805D0022808D022E05020EA
:1045000048702FE05120487021E008720DE05220E1
:10451000487035480678D6B10678012E22D0067844
:10452000022E35D0007803281CD0106B000E487284
:10453000106B000C8872106B000AC872106B087345
:104540004D738C73F0BC0F212048FFF74FBB986A66
:1045500000EB8000C0F3D710C870986A00EB8000B1
:1045600040001BE010EE900A000AC87010EE900A9E
:10457000087110EE100A000E487110EE100A000CBF
:10458000887110EE100A000AC87110EE100ABCE71C
:1045900010EE900A000AC87010EE900A0871186BAD
:1045A00000EB8000C0F3C7504871186B00EB80002F
:1045B000C0F3CF308871186B00EB8000C0F3D710C8
:1045C000C871186B00EB800040009EE7341100209A
:1045D0005400002000007A445C000020D00100203C
:1045E00036000020780300206E0000202DE9F04FF7
:1045F000B3B0044600200D463290C8216846FCF74F
:10460000CEF828783C2808D1281910F8021C0D296A
:1046100003D110F8010C0A2801D002224AE13C2102
:104620008DF80010FEA10DF10100329AFBF74CFE4F
:104630000122FCA16846FBF75BFF6846FBF76AFFB7
:104640001FFA80FA6846FBF765FF0246694628466E
:10465000FBF77FFF0028E0D1DFF8CCB3804605EB05
:104660000A0600BF08EBC80101EB0B042046FBF76C
:1046700051FF00F0FF09214630464A46FBF769FF2B
:1046800038B108F1010808F0FF08B8F1130FE9D3B9
:10469000C3E73E2028700AEB090084B2E348DFF844
:1046A00090A34FF00D0B4FF00A096FF02F06B8F1F1
:1046B000130FB2D2DFE808F00BBCE1FCFBFA0A0AE8
:1046C0000A0A0A0AF9F8F70A0A0AF600A5E7285DB5
:1046D0003F28A2D1DAF82C2056462819D5A1FBF79D
:1046E000F3FDA41DA0B22C242C54401C726B87B285
:1046F000E819D0A1FBF7E8FDBF1DB8B22C54401C4F
:10470000B26A87B2E819CDA1FBF7DEFD7F1DB8B212
:104710002C54401C326B87B2E819C8A1FBF7D4FDBA
:104720007F1DB8B22C54401CB26B87B2E819C3A1EC
:10473000FBF7CAFD7F1DB8B22C54401CF26B87B248
:10474000E819C0A1FBF7C0FD3F1DB8B22C54401CB6
:10475000326C87B2E819BBA1FBF7B6FD3F1DB8B2BA
:104760002C54401C86B2B94890ED000ADFEDB80A1F
:10477000A819B0A120EE200ABDEEC00A10EE102A42
:10478000FBF7A2FDB61DB0B2B2492C54401C86B254
:104790000A78A819B0A1FBF797FDF61CB0B2A249A0
:1047A0002C54401C86B2A81958398A79ACA1FBF761
:1047B0008BFD761CB0B2AB492C54401C86B20A78F3
:1047C000A819A7A1FBF780FD761CB0B2A6492C540E
:1047D000401C86B20A78A819A1A1FBF775FD761CCA
:1047E000B0B2A2492C54401C86B20A78A819A0A1E4
:1047F000FBF76AFDB61CB0B29E492C54401C86B231
:10480000B1F90020A81994A1FBF75EFDF61CB0B227
:1048100099492C54401C84B20A78281990A1FBF7BE
:1048200053FD641CA0B205F800B0401C80B2EFE359
:10483000285D01223F281AD0002108462B5D00EB9D
:104840008000641C491C06EB4000C9B21844A4B2A5
:104850009142F3D3744E583E707100210220FFF74D
:1048600095FA0020B0710320307270791CE26E4915
:10487000281958394A797AA123E0295D01223F2974
:104880007DD0002108462B5D00EB8000641C491C94
:1048900006EB4000C9B21844A4B29142F3D30128F8
:1048A00013D906E0FEE3FEE3FEE3FEE3FEE3FEE1F2
:1048B00012E001222846329900F078FD33B0BDE8BD
:1048C000F08FFBF701FD641CF1E3574958398871FB
:1048D0008879FEF7FFFDEBE3295D3F29D0D00B2C53
:1048E0000DD1002007462A5D07EB870106EB410149
:1048F000641C401C5718C0B2A4B20628F3D350461B
:10490000CAF844702B5D641C0022A1B22C2B0CD180
:1049100000236C5C02EB8202491C5B1C06EB42022A
:10492000DBB2224489B2052BF3D3A0F848206A5C9D
:10493000491C002389B22C2A0CD100226C5C03EBA9
:104940008303491C521C06EB4303D2B2234489B2B1
:10495000052AF3D3C3646B5C491C002289B22C2B5B
:104960000CD100236C5C02EB8202491C5B1C06EB41
:104970004202DBB2224489B2032BF3D300E017E2F8
:10498000A0F850206A5C491C002389B22C2A0CD163
:1049900000226C5C03EB8303491C521C06EB4303AF
:1049A000D2B2234489B2062AF3D343656B5C491C17
:1049B000002289B22C2B0CD100236C5C02EB82020A
:1049C000491C5B1C06EB4202DBB2224489B2052B78
:1049D000F3D3A0F858206B5C491C002289B22C2B21
:1049E0000CD100236C5C02EB8202491C5B1C06EBC1
:1049F0004202DBB2224489B2052BF3D3A0F85A203D
:104A00006A5C491C002389B22C2A3BD100226C5CD1
:104A100003EB830306EB4303491C234489B22DE0D7
:104A2000256400002F0000001C010020320000203F
:104A300078030020253036640000000025303564FE
:104A40000000000025303464000000002800002031
:104A500000007A44D00100202530336400000000BB
:104A600025316400D201002028020020CC01002062
:104A70002532640036000020D5010020521CD2B23D
:104A8000062AC4D303666A5C491C002389B22C2A17
:104A90000CD100226C5C03EB8303491C521C06EB17
:104AA0004303D2B2234489B2062AF3D3C3656B5CB5
:104AB000491C002289B22C2B0CD100236C5C02EB28
:104AC0008202491C5B1C06EB4202DBB2224489B223
:104AD000062BF3D3A0F868206A5C491C002389B236
:104AE0002C2A0CD100226C5C03EB8303491C521C62
:104AF00006EB4303D2B2234489B2052AF3D3C3663B
:104B00006B5C491C002289B22C2B0CD100236C5CFD
:104B100002EB8202491C5B1C06EB4202DBB2224420
:104B200089B2052BF3D3A0F870206A5C491C0023DE
:104B300089B22C2A0CD100226C5C03EB8303491C44
:104B4000521C06EB4303D2B2234489B2052AF3D3A5
:104B500043676B5C491C002289B22C2B0CD10023CB
:104B60006C5C02EB8202491C5B1C06EB4202DBB26E
:104B7000224489B2052BF3D3A0F878206A5C491C43
:104B8000002389B22C2A0CD100226C5C03EB830336
:104B9000491C521C06EB4303D2B2234489B2052AB6
:104BA000F3D3C3676A5C491C002389B22C2A0CD159
:104BB00000226C5C03EB8303491C521C06EB43038D
:104BC000D2B2234489B2052AF3D3C0F880306B5C9B
:104BD000491C002289B22C2B0CD100236C5C02EB07
:104BE0008202491C5B1C06EB4202DBB2224489B202
:104BF000032BF3D380F884206A5C491C002389B21C
:104C00002C2A0CD100226C5C03EB8303491C521C40
:104C100006EB4303D2B2234489B2032AF3D3F84A02
:104C2000547904B983616C5C491C002389B22C2C33
:104C30000CD100246F5C03EB8303491C641C06EB5E
:104C40004303E4B23B4489B2032CF3D3D3716C5CCD
:104C5000491C002389B22C2C0CD100246F5C03EB7F
:104C60008303491C641C06EB4303E4B23B4489B252
:104C7000032CF3D380F852306F5C491C00238CB2B4
:104C80002C2F0CD100212F5D03EB8303641C491CE6
:104C900006EB4303C9B23B44A4B20629F3D303EBAA
:104CA0008301490041665079FEF7B6FC6AE3295D4D
:104CB0003F297DD00B2C0DD100200746295D07EB45
:104CC000870206EB4202641C401C8F18C0B2A4B2DB
:104CD0000228F3D3DFF8289389F8057099F80500C6
:104CE0000027DFF8208343F69821C0B199F805002A
:104CF0004B4601285DD0587902287DD099F80500EF
:104D00004A46032879D05079042877D099F80510BD
:104D10004846052973D04179062971D0E0E12A5D22
:104D2000641CA0B22C2A06D10022401C521CD2B214
:104D300080B2062AF9D32B5C401C002284B22C2BB3
:104D40000CD100202B5D02EB8202641C401C06EBA0
:104D50004202C0B21A44A4B20628F3D3CAF81420FF
:104D6000DAF814000027884207D90120C8F820008B
:104D7000C102A548FEF716F907E00020C8F8200098
:104D80004FF40061A048FEF70FF9285D641CA4B23F
:104D90002C280CD10020295D07EB870206EB42028C
:104DA000641C8F18401CA4B210F0FF00F3D01AE16D
:104DB0001DE2295D641CA0B22C290CD100212A5CC3
:104DC00007EB870406EB4404401C491C1719C9B2C1
:104DD00080B20629F3D35446CAF86C70295C401C93
:104DE000002280B22C2912D100212F5C02EB82021A
:104DF00006EB42023A4404E020E06DE0ABE008E15B
:104E00003AE1401C491CC9B280B20629EDD3A4F88E
:104E100070202A5C401C002184B22C2A0CD1002076
:104E20002A5D641C01EB810106EB4101401C114429
:104E3000A4B210F0FF00F3D0997151E10120C8F83D
:104E40002000C1027048FEF7ADF8295D641CA0B2D5
:104E50002C290CD100212A5C07EB870306EB4303C6
:104E6000401C491CD718C9B280B20629F3D3534657
:104E7000CAF844702A5C401C002180B22C2A0CD154
:104E800000222C5C01EB8101401C521C06EB41010D
:104E9000D2B2214480B2062AF3D3A3F848102A5C88
:104EA000401C002184B22C2A0CD100202A5D641CF5
:104EB00001EB810106EB4101401C1144A4B210F04A
:104EC000FF00F3D089F8061099F80600012802D1F6
:104ED0004E490020087003E1295D641CA0B22C2912
:104EE0000CD100212B5C07EB870406EB4404401C2B
:104EF000491C1F19C9B280B20629F3D35446CAF817
:104F00006C702B5C401C002180B22C2B0CD1002338
:104F10002F5C01EB8101401C5B1C06EB4101DBB205
:104F2000394480B2062BF3D3A4F870102B5C401CDC
:104F3000002184B22C2B0CD100202B5D641C01EBD2
:104F4000810106EB4101401C1944A4B210F0FF009E
:104F5000F3D09171C4E02A5D641CA0B22C2A06D162
:104F60000022401C521CD2B280B2062AF9D32B5C1C
:104F7000401C002284B22C2B0CD100202B5D02EBB4
:104F80008202641C401C06EB4202C0B21A44A4B266
:104F90000628F3D3CAF81420DAF814000027884250
:104FA00007D90120C8F82000C1021748FDF7FAFF11
:104FB00007E00020C8F820004FF400611248FDF718
:104FC000F3FF285D641CA4B22C280CD10020295DBD
:104FD00007EB870206EB4202641C8F18401CA4B248
:104FE00010F0FF00F3D089F8067099F80600E8BBCE
:104FF0000120C8F82000C1020348FDF7D3FF6FE08D
:10500000C40000209405002000080240D2010020C6
:1050100061E12A5D641CA1B22C2A06D10022491C40
:10502000521CD2B289B2062AF9D36A5C491C89B2F1
:105030002C2A06D10022491C521CD2B289B2062A5F
:10504000F9D36B5C491C00228CB22C2B0CD10021B3
:105050002B5D641C02EB820206EB4202491C1A44DF
:10506000A4B211F0FF01F3D0827100E038E0817941
:10507000B1BB0021817133E02A5D641CA1B22C2AEE
:1050800006D10022491C521CD2B289B2062AF9D399
:105090006A5C491C89B22C2A0ED10022491C89B2B3
:1050A000521C06E052E1F6E0A8E020E087E011E1C2
:1050B00068E1D2B2062AF1D36B5C491C00228CB2A3
:1050C0002C2B0CD100212B5D641C02EB820206EB21
:1050D0004202491C1A44A4B211F0FF01F3D08271BC
:1050E000FEF744FE99F80600FEF77EF84AE1285DD7
:1050F00009233F2802D00122002122E0B5EEC08A18
:10510000F1EE10FA01DB2B2000E02D202855641C65
:10511000A4B218EE100A03F0D5FC41EC100B2819CC
:1051200053EC102B9CA1FBF7CFF80934D2E041B12E
:10513000052906D06018285CFDF778FF012800D00B
:105140000022491CC9B29942F1D3002A3FF465AA52
:10515000E018285C0D287FF460AA002210460DE0BC
:1051600060B1012816D0052805D0295D02EB820226
:1051700006EB42020A44641CA4B215E0295D3039F2
:1051800001EB8101490000EE101A641CA4B2B8EED4
:10519000C00A09E0295D641C303900EE901AA4B2FF
:1051A000F8EEE00A30EE800A401CC0B29842D7D335
:1051B000BCEEC00A10EE100AC1B20020BAE0295DB0
:1051C00001223F2913D0002108462B5D00EB80000F
:1051D000641C491C06EB4000C9B21844A4B29142B9
:1051E000F3D301283FF65DAB6D490870CAE0027841
:1051F0002B19AFF294711846FFF763BB285D0923A2
:105200003F286CD00122002109E041B1052906D0D8
:105210006018285CFDF70AFF012800D00022491C15
:10522000C9B29942F1D3002A90D0E018285C0D2829
:1052300091D1002210460DE060B1012816D005285A
:1052400005D0295D02EB820206EB42020A44641C8F
:10525000A4B215E0295D303901EB8101490000EE6F
:10526000101A641CA4B2B8EEC00A09E0295D641CDF
:10527000303900EE901AA4B2F8EEE00A30EE800A5F
:10528000401CC0B29842D7D3BCEEC00A10EE100A40
:10529000C1B201204EE0285D06233F2802D0012242
:1052A000002127E0B5EEC08AF1EE10FA01DB2B20D9
:1052B00000E02D202855641CA4B218EE100A03F05B
:1052C00001FC41EC100B281953EC102B32A1FAF71A
:1052D000FBFFA41DA0B205F80090401C84B255E06D
:1052E00041B1042906D06018285CFDF79FFE012813
:1052F00000D00022491CC9B29942F1D3002A93D0B0
:10530000E018285C0D2893D10022104615E0A0B1CA
:10531000295D02EB820206EB4202641C0A44A4B23D
:10532000401CC0B29842F2D3BCEEC00A10EE100A84
:10533000C1B20220FCF766FD28E0295D641C30390B
:1053400000EE101AA4B2B8EEC00AE9E7285D3F28C3
:105350001CD00122002108462B5D00EB8000641C5C
:10536000491C06EB4000C9B21844A4B29142F3D3E1
:1053700001283FF696AA0B4908700B4901200870D6
:1053800003F032F805F804B0641CA4B2641C33B016
:10539000A0B2BDE8F08F00002530332E3366000048
:1053A000D50100203000002050000020F8B5044650
:1053B00000200090206016463E2020700A461AA168
:1053C0006846FAF781FF6846FBF7A4F80546601CBB
:1053D0002A466946FBF78CF86D1CA8B22F21215490
:1053E000401C85B2012E08D0022E01D0032E15D00C
:1053F0000826601932460DA103E0092660193246DD
:105400000DA1FBF736F9A81980B20D212154401CDB
:1054100080B20A212154401C80B2F8BD08266019D0
:10542000324608A1EDE7000025640000434D44200A
:105430004552522100000000504152412045525235
:105440002100000052454D2045525221000000002D
:10545000044810B5B0F8700000F03AF80249032093
:10546000487210BD78030020C400002070B50F4CB6
:10547000A0790F4D012809D104212846FDF794FD9C
:105480000A20FDF762FBA079FEF7A8FCA07948B9D5
:10549000A079FEF7A3FC0A20FDF757FB042128465C
:1054A000FDF780FD0020607270BD0000C400002088
:1054B00000100240044810B5C06E00F073F80349B4
:1054C0000220487210BD000078030020C4000020B4
:1054D00031B5124C01202070062060700020A070B1
:1054E0003120E070BDF800100A20B1FBF0F1090A8C
:1054F0002171BDF80010B1FBF0F06071062120466B
:10550000FDF756FDA07106212046FDF751FD000A6A
:10551000E071BDE83840082002F068BCC4060020F5
:10552000044810B5B0F85800FFF7D2FF0249032035
:10553000087210BD78030020C400002070B5104C24
:10554000A079104D012802D0A07958B114E00421AF
:105550002846FDF729FD0A20FDF7F7FAA079FEF7A6
:105560003DFC09E0A079FEF739FC0A20FDF7EDFAD1
:1055700004212846FDF716FD0020207270BD0000B2
:10558000C400002000100240044810B5406D00F037
:1055900009F803490220087210BD000078030020BA
:1055A000C400002031B5114C01202070062060702D
:1055B0000020A0703020E07000990A20B1FBF0F1CB
:1055C000090A21710099B1FBF0F0607106212046B3
:1055D000FDF7EEFCA07106212046FDF7E9FC000A6C
:1055E000E071BDE83840082002F000BCC40600208D
:1055F0000CB500202749019000900A6842F48032DF
:105600000A604FF4A0430A6802F400320092019A43
:10561000521C0192009A12B9019A9A42F3D10A6877
:10562000920334D5012000901A484030026842F0BD
:10563000805202601848026842F4404202601548F5
:10564000083002680260026842F4004202600268A8
:1056500042F4A0520260031F104A1A600A6842F026
:1056600080720A600A689201FCD50D4A40F2057109
:105670001160016821F003010160016841F002013D
:1056800001600168C1F381010229FAD10CBD0090CB
:105690000CBD000000380240007000401954400763
:1056A000003C024010B530F8113030F8124020F8BC
:1056B000114020F8123010BD10B501F0D9F8124891
:1056C0000168491C016011480188491C0180028859
:1056D0000021142A05D901800D48026842F0800299
:1056E00002600C480C4A0368DC0702D01478641C82
:1056F00014701478282C05D9117023F0010202606F
:105700000648017010BD00002C020020920000200D
:105710003800002048000020C8010020C7010020F8
:105720000D484FF4FA710068B0FBF1F1491EB1F178
:10573000807F0FD24FF0E0204161084AF02182F8CB
:10574000141D0021816107210161016941F00101FE
:1057500001617047FEE70000000000200FE000E05C
:10576000114810B5016841F4700101600F480168EB
:1057700041F0010101600D4A002108321160026808
:105780000B4B1A400260031D0A4A1A60026822F499
:105790008022026005480C300160FFF729FF0249B2
:1057A00005488039086010BD88ED00E000380240EF
:1057B000FFFFF6FE10300024000002087CB5134EF7
:1057C000012207213046FDF7D6FB01220821304691
:1057D000FDF7D1FB022480208DF8044000250090C5
:1057E0008DF806508DF8054069463046FDF772FB8E
:1057F000E0018DF8044000908DF806508DF80540CA
:1058000069463046FDF766FB7CBD000000000240A3
:1058100070B5012188B00846FEF726FBFFF7CEFFE2
:1058200004250024E801ADF81C00214EADF8145009
:10583000ADF8164006948DF81E4005A9304600F0DC
:105840009DFF7020ADF800000120ADF8020045F684
:10585000C050ADF80C40ADF810400290ADF80450C7
:10586000ADF80E40ADF812406946304600F0CEFE6D
:10587000104C48F2E80020800821304600F0F6FE87
:105880002188304600F076FF0121304600F0E0FD2F
:105890000121304600F0E9FD0121304600F0EFFD26
:1058A00020884108304600F067FF08B070BD000056
:1058B00000000140B40000202DE9F05F2DED048BC5
:1058C0009FEDF98A0121F94800F08CFE012872D180
:1058D000F7480168491C0160F6480269F64900244E
:1058E0008A4200D90461C2688A4200D9C4608046F5
:1058F000C06A20B1D8F82C10491EC8F82C10EF4807
:1059000001789FEDEF0ADFEDEF8AEF48DFF8BCA3E7
:105910000125EF4FDFF8BCB34FF47A79062910D296
:10592000DFE801F003416D0F0FFD0078012809D079
:105930008AED008AC8F830403878012824D0A8F8C9
:10594000084051E3D8F8102040464946B2FBF1F335
:1059500009FB1322002AEFD102694A45ECD3DBEDA3
:10596000000A20EEA81AC1EE000A9AED000A30EEF5
:10597000200A8AED000ABCEEC00A10EE101A01637C
:105980000020FEF799FDD7E7B8F8080040F2E732AB
:105990009042D6D2D04A1288D04B23F81020401C17
:1059A000A8F8080020E34078012805D08AED008A95
:1059B000C8F8304018E3FDE3D8F8102040464946C7
:1059C000B2FBF1F309FB1322002ABAD102694A455E
:1059D000B7D3C349D1ED000A20EEA81AC1EE000AE0
:1059E0009AED000A30EE200A8AED000ABCEEC00AE9
:1059F00010EE101A01630120FEF75EFDF4E2B94AD1
:105A00001078DFF8E4A201284CD1B84800780128CA
:105A100048D1B74830F8481F0189012900DA01212F
:105A2000B0480078F0B3B348DBED000A90ED000A0F
:105A3000F4EEC00AF1EE10FA01DDC0ED000AD8F86C
:105A400010204646B2FBF1F301FB1321AA4A49B9E3
:105A500090ED000AA64982ED000A4B69B1F848C0F2
:105A600063444B6190ED000AA4489FEDA59AB5EE02
:105A7000C00AF1EE10FA32D070EE600AA14B10EEBF
:105A8000901A994203DAA0490968814251DA82EDFD
:105A9000000A20EE090ABDEEC00A10EE100A010A43
:105AA0009A4800E045E000F82B1F10EE101A4170F4
:105AB0008C480470FEF75AF92CE0316296ED0A0A20
:105AC00020EE280ABDEEC00A10EE101A01F6B83119
:105AD0004165A0F858903D708AF8005029E08A4945
